{
  "address": "0x33153297B44Bdc36D11D00E3DbBe7900622c9A5D",
  "abi": [
    {
      "inputs": [
        {
          "internalType": "contract ERC20Mock",
          "name": "_pgUSD",
          "type": "address"
        },
        {
          "internalType": "address",
          "name": "forwarder",
          "type": "address"
        }
      ],
      "stateMutability": "nonpayable",
      "type": "constructor"
    },
    {
      "anonymous": false,
      "inputs": [
        {
          "indexed": true,
          "internalType": "address",
          "name": "previousOwner",
          "type": "address"
        },
        {
          "indexed": true,
          "internalType": "address",
          "name": "newOwner",
          "type": "address"
        }
      ],
      "name": "OwnershipTransferred",
      "type": "event"
    },
    {
      "inputs": [],
      "name": "ETHAmount",
      "outputs": [
        {
          "internalType": "uint256",
          "name": "",
          "type": "uint256"
        }
      ],
      "stateMutability": "view",
      "type": "function"
    },
    {
      "inputs": [],
      "name": "get",
      "outputs": [],
      "stateMutability": "nonpayable",
      "type": "function"
    },
    {
      "inputs": [
        {
          "internalType": "address",
          "name": "forwarder",
          "type": "address"
        }
      ],
      "name": "isTrustedForwarder",
      "outputs": [
        {
          "internalType": "bool",
          "name": "",
          "type": "bool"
        }
      ],
      "stateMutability": "view",
      "type": "function"
    },
    {
      "inputs": [],
      "name": "owner",
      "outputs": [
        {
          "internalType": "address",
          "name": "",
          "type": "address"
        }
      ],
      "stateMutability": "view",
      "type": "function"
    },
    {
      "inputs": [],
      "name": "pgUSD",
      "outputs": [
        {
          "internalType": "contract ERC20Mock",
          "name": "",
          "type": "address"
        }
      ],
      "stateMutability": "view",
      "type": "function"
    },
    {
      "inputs": [],
      "name": "pgUSDAmount",
      "outputs": [
        {
          "internalType": "uint256",
          "name": "",
          "type": "uint256"
        }
      ],
      "stateMutability": "view",
      "type": "function"
    },
    {
      "inputs": [],
      "name": "renounceOwnership",
      "outputs": [],
      "stateMutability": "nonpayable",
      "type": "function"
    },
    {
      "inputs": [
        {
          "internalType": "address",
          "name": "newOwner",
          "type": "address"
        }
      ],
      "name": "transferOwnership",
      "outputs": [],
      "stateMutability": "nonpayable",
      "type": "function"
    },
    {
      "inputs": [],
      "name": "trustedForwarder",
      "outputs": [
        {
          "internalType": "address",
          "name": "",
          "type": "address"
        }
      ],
      "stateMutability": "view",
      "type": "function"
    },
    {
      "inputs": [],
      "name": "versionRecipient",
      "outputs": [
        {
          "internalType": "string",
          "name": "",
          "type": "string"
        }
      ],
      "stateMutability": "view",
      "type": "function"
    },
    {
      "inputs": [],
      "name": "withdraw",
      "outputs": [],
      "stateMutability": "nonpayable",
      "type": "function"
    },
    {
      "stateMutability": "payable",
      "type": "receive"
    }
  ],
  "transactionHash": "0x89e95330b8e4c2fcbe9ad3ca5ffaa0993cf8355401df070385aff4fa002ecffb",
  "args": [
    "0xd3F41e2239c848Ed576eB4dc04074Ad6049A00f1",
    "0xeB230bF62267E94e657b5cbE74bdcea78EB3a5AB"
  ],
  "solcInputHash": "02c1d908f46c3fdcf5229d84bb7f6236",
  "bytecode": "0x6702c68af0bb1400006002556402540be40060035560e0604052600560a081905264322e322e3560d81b60c090815261003b916004919061014c565b5034801561004857600080fd5b506040516200098238038062000982833981016040819052610069916101e5565b6100796100746100ad565b6100c6565b6001600160601b0319606083901b16608052600080546001600160a01b0319166001600160a01b0383161790555050610272565b60006100c161011860201b61052a1760201c565b905090565b600180546001600160a01b038381166001600160a01b0319831681179093556040519116919082907f8be0079c531659141344cd1fd0a4f28419497f9722a3daafe3b4186f6b6457e090600090a35050565b60006014361080159061013557506000546001600160a01b031633145b15610147575060131936013560601c90565b503390565b8280546101589061021f565b90600052602060002090601f01602090048101928261017a57600085556101c0565b82601f1061019357805160ff19168380011785556101c0565b828001600101855582156101c0579182015b828111156101c05782518255916020019190600101906101a5565b506101cc9291506101d0565b5090565b5b808211156101cc57600081556001016101d1565b600080604083850312156101f857600080fd5b82516102038161025a565b60208401519092506102148161025a565b809150509250929050565b600181811c9082168061023357607f821691505b6020821081141561025457634e487b7160e01b600052602260045260246000fd5b50919050565b6001600160a01b038116811461026f57600080fd5b50565b60805160601c6106ea62000298600039600081816101dd015261034601526106ea6000f3fe6080604052600436106100a05760003560e01c80637286ec32116100645780637286ec32146101575780637da0a8771461017b5780638da5cb5b146101ad578063b4690c01146101cb578063bec1bc16146101ff578063f2fde38b1461021557600080fd5b80633ccfd60b146100ac578063486ff0cd146100c3578063572b6c05146100ee5780636d4ce63c1461012d578063715018a61461014257600080fd5b366100a757005b600080fd5b3480156100b857600080fd5b506100c1610235565b005b3480156100cf57600080fd5b506100d86102b6565b6040516100e591906105ef565b60405180910390f35b3480156100fa57600080fd5b5061011d6101093660046105bf565b6000546001600160a01b0391821691161490565b60405190151581526020016100e5565b34801561013957600080fd5b506100c1610344565b34801561014e57600080fd5b506100c161041e565b34801561016357600080fd5b5061016d60025481565b6040519081526020016100e5565b34801561018757600080fd5b506000546001600160a01b03165b6040516001600160a01b0390911681526020016100e5565b3480156101b957600080fd5b506001546001600160a01b0316610195565b3480156101d757600080fd5b506101957f000000000000000000000000000000000000000000000000000000000000000081565b34801561020b57600080fd5b5061016d60035481565b34801561022157600080fd5b506100c16102303660046105bf565b610473565b61023d61055e565b6001600160a01b03166102586001546001600160a01b031690565b6001600160a01b0316146102875760405162461bcd60e51b815260040161027e90610644565b60405180910390fd5b60405133904780156108fc02916000818181858888f193505050501580156102b3573d6000803e3d6000fd5b50565b600480546102c390610679565b80601f01602080910402602001604051908101604052809291908181526020018280546102ef90610679565b801561033c5780601f106103115761010080835404028352916020019161033c565b820191906000526020600020905b81548152906001019060200180831161031f57829003601f168201915b505050505081565b7f00000000000000000000000000000000000000000000000000000000000000006001600160a01b031663449a52f861037b61055e565b6003546040516001600160e01b031960e085901b1681526001600160a01b0390921660048301526024820152604401600060405180830381600087803b1580156103c457600080fd5b505af11580156103d8573d6000803e3d6000fd5b505050506103e461055e565b6001600160a01b03166108fc6002549081150290604051600060405180830381858888f193505050501580156102b3573d6000803e3d6000fd5b61042661055e565b6001600160a01b03166104416001546001600160a01b031690565b6001600160a01b0316146104675760405162461bcd60e51b815260040161027e90610644565b610471600061056d565b565b61047b61055e565b6001600160a01b03166104966001546001600160a01b031690565b6001600160a01b0316146104bc5760405162461bcd60e51b815260040161027e90610644565b6001600160a01b0381166105215760405162461bcd60e51b815260206004820152602660248201527f4f776e61626c653a206e6577206f776e657220697320746865207a65726f206160448201526564647265737360d01b606482015260840161027e565b6102b38161056d565b60006014361080159061054757506000546001600160a01b031633145b15610559575060131936013560601c90565b503390565b600061056861052a565b905090565b600180546001600160a01b038381166001600160a01b0319831681179093556040519116919082907f8be0079c531659141344cd1fd0a4f28419497f9722a3daafe3b4186f6b6457e090600090a35050565b6000602082840312156105d157600080fd5b81356001600160a01b03811681146105e857600080fd5b9392505050565b600060208083528351808285015260005b8181101561061c57858101830151858201604001528201610600565b8181111561062e576000604083870101525b50601f01601f1916929092016040019392505050565b6020808252818101527f4f776e61626c653a2063616c6c6572206973206e6f7420746865206f776e6572604082015260600190565b600181811c9082168061068d57607f821691505b602082108114156106ae57634e487b7160e01b600052602260045260246000fd5b5091905056fea2646970667358221220e923353fcea13493685a99f0c9742cca7e72b786a6c5ae50f43a01fb736b1fe964736f6c63430008060033",
  "devdoc": {
    "author": "0mllwntrmt3",
    "kind": "dev",
    "methods": {
      "owner()": {
        "details": "Returns the address of the current owner."
      },
      "renounceOwnership()": {
        "details": "Leaves the contract without owner. It will not be possible to call `onlyOwner` functions anymore. Can only be called by the current owner. NOTE: Renouncing ownership will leave the contract without an owner, thereby removing any functionality that is only available to the owner."
      },
      "transferOwnership(address)": {
        "details": "Transfers ownership of the contract to a new account (`newOwner`). Can only be called by the current owner."
      }
    },
    "title": "Hegic Protocol V8888 Exerciser Contract",
    "version": 1
  },
  "userdoc": {
    "kind": "user",
    "methods": {
      "isTrustedForwarder(address)": {
        "notice": "return if the forwarder is trusted to forward relayed transactions to us. the forwarder is required to verify the sender's signature, and verify the call is not a replay."
      }
    },
    "notice": "The contract that allows to automatically exercise options half an hour before expiration*",
    "version": 1
  },
  "storageLayout": {
    "storage": [
      {
        "astId": 53,
        "contract": "contracts/utils/HegicPlaygroundFaucet.sol:Faucet",
        "label": "_trustedForwarder",
        "offset": 0,
        "slot": "0",
        "type": "t_address"
      },
      {
        "astId": 741,
        "contract": "contracts/utils/HegicPlaygroundFaucet.sol:Faucet",
        "label": "_owner",
        "offset": 0,
        "slot": "1",
        "type": "t_address"
      },
      {
        "astId": 18674,
        "contract": "contracts/utils/HegicPlaygroundFaucet.sol:Faucet",
        "label": "ETHAmount",
        "offset": 0,
        "slot": "2",
        "type": "t_uint256"
      },
      {
        "astId": 18677,
        "contract": "contracts/utils/HegicPlaygroundFaucet.sol:Faucet",
        "label": "pgUSDAmount",
        "offset": 0,
        "slot": "3",
        "type": "t_uint256"
      },
      {
        "astId": 18684,
        "contract": "contracts/utils/HegicPlaygroundFaucet.sol:Faucet",
        "label": "versionRecipient",
        "offset": 0,
        "slot": "4",
        "type": "t_string_storage"
      }
    ],
    "types": {
      "t_address": {
        "encoding": "inplace",
        "label": "address",
        "numberOfBytes": "20"
      },
      "t_string_storage": {
        "encoding": "bytes",
        "label": "string",
        "numberOfBytes": "32"
      },
      "t_uint256": {
        "encoding": "inplace",
        "label": "uint256",
        "numberOfBytes": "32"
      }
    }
  }
}