{
  "address": "0xE079131e8ac9088399ceAC32638bf13aF9FBd447",
  "abi": [
    {
      "inputs": [
        {
          "internalType": "contract IERC20",
          "name": "_hegic",
          "type": "address"
        },
        {
          "internalType": "contract IERC20",
          "name": "_baseToken",
          "type": "address"
        }
      ],
      "stateMutability": "nonpayable",
      "type": "constructor"
    },
    {
      "anonymous": false,
      "inputs": [
        {
          "indexed": true,
          "internalType": "address",
          "name": "by",
          "type": "address"
        },
        {
          "indexed": false,
          "internalType": "uint256",
          "name": "hAmount",
          "type": "uint256"
        },
        {
          "indexed": false,
          "internalType": "uint256",
          "name": "tokenAmount",
          "type": "uint256"
        }
      ],
      "name": "Provided",
      "type": "event"
    },
    {
      "anonymous": false,
      "inputs": [
        {
          "indexed": true,
          "internalType": "bytes32",
          "name": "role",
          "type": "bytes32"
        },
        {
          "indexed": true,
          "internalType": "bytes32",
          "name": "previousAdminRole",
          "type": "bytes32"
        },
        {
          "indexed": true,
          "internalType": "bytes32",
          "name": "newAdminRole",
          "type": "bytes32"
        }
      ],
      "name": "RoleAdminChanged",
      "type": "event"
    },
    {
      "anonymous": false,
      "inputs": [
        {
          "indexed": true,
          "internalType": "bytes32",
          "name": "role",
          "type": "bytes32"
        },
        {
          "indexed": true,
          "internalType": "address",
          "name": "account",
          "type": "address"
        },
        {
          "indexed": true,
          "internalType": "address",
          "name": "sender",
          "type": "address"
        }
      ],
      "name": "RoleGranted",
      "type": "event"
    },
    {
      "anonymous": false,
      "inputs": [
        {
          "indexed": true,
          "internalType": "bytes32",
          "name": "role",
          "type": "bytes32"
        },
        {
          "indexed": true,
          "internalType": "address",
          "name": "account",
          "type": "address"
        },
        {
          "indexed": true,
          "internalType": "address",
          "name": "sender",
          "type": "address"
        }
      ],
      "name": "RoleRevoked",
      "type": "event"
    },
    {
      "anonymous": false,
      "inputs": [
        {
          "indexed": true,
          "internalType": "address",
          "name": "by",
          "type": "address"
        },
        {
          "indexed": true,
          "internalType": "address",
          "name": "hegicDestination",
          "type": "address"
        },
        {
          "indexed": false,
          "internalType": "uint256",
          "name": "hAmount",
          "type": "uint256"
        },
        {
          "indexed": false,
          "internalType": "uint256",
          "name": "tokenAmount",
          "type": "uint256"
        }
      ],
      "name": "Withdrawn",
      "type": "event"
    },
    {
      "inputs": [],
      "name": "DEFAULT_ADMIN_ROLE",
      "outputs": [
        {
          "internalType": "bytes32",
          "name": "",
          "type": "bytes32"
        }
      ],
      "stateMutability": "view",
      "type": "function"
    },
    {
      "inputs": [],
      "name": "HEGIC_POOL_ROLE",
      "outputs": [
        {
          "internalType": "bytes32",
          "name": "",
          "type": "bytes32"
        }
      ],
      "stateMutability": "view",
      "type": "function"
    },
    {
      "inputs": [],
      "name": "availableBalance",
      "outputs": [
        {
          "internalType": "uint256",
          "name": "",
          "type": "uint256"
        }
      ],
      "stateMutability": "view",
      "type": "function"
    },
    {
      "inputs": [
        {
          "internalType": "address",
          "name": "",
          "type": "address"
        }
      ],
      "name": "balanceOf",
      "outputs": [
        {
          "internalType": "uint256",
          "name": "",
          "type": "uint256"
        }
      ],
      "stateMutability": "view",
      "type": "function"
    },
    {
      "inputs": [],
      "name": "baseToken",
      "outputs": [
        {
          "internalType": "contract IERC20",
          "name": "",
          "type": "address"
        }
      ],
      "stateMutability": "view",
      "type": "function"
    },
    {
      "inputs": [],
      "name": "claimProfit",
      "outputs": [
        {
          "internalType": "uint256",
          "name": "profit",
          "type": "uint256"
        }
      ],
      "stateMutability": "nonpayable",
      "type": "function"
    },
    {
      "inputs": [
        {
          "internalType": "bytes32",
          "name": "role",
          "type": "bytes32"
        }
      ],
      "name": "getRoleAdmin",
      "outputs": [
        {
          "internalType": "bytes32",
          "name": "",
          "type": "bytes32"
        }
      ],
      "stateMutability": "view",
      "type": "function"
    },
    {
      "inputs": [
        {
          "internalType": "bytes32",
          "name": "role",
          "type": "bytes32"
        },
        {
          "internalType": "address",
          "name": "account",
          "type": "address"
        }
      ],
      "name": "grantRole",
      "outputs": [],
      "stateMutability": "nonpayable",
      "type": "function"
    },
    {
      "inputs": [
        {
          "internalType": "bytes32",
          "name": "role",
          "type": "bytes32"
        },
        {
          "internalType": "address",
          "name": "account",
          "type": "address"
        }
      ],
      "name": "hasRole",
      "outputs": [
        {
          "internalType": "bool",
          "name": "",
          "type": "bool"
        }
      ],
      "stateMutability": "view",
      "type": "function"
    },
    {
      "inputs": [],
      "name": "hegicToken",
      "outputs": [
        {
          "internalType": "contract IERC20",
          "name": "",
          "type": "address"
        }
      ],
      "stateMutability": "view",
      "type": "function"
    },
    {
      "inputs": [
        {
          "internalType": "uint256",
          "name": "amount",
          "type": "uint256"
        }
      ],
      "name": "payOut",
      "outputs": [],
      "stateMutability": "nonpayable",
      "type": "function"
    },
    {
      "inputs": [
        {
          "internalType": "address",
          "name": "account",
          "type": "address"
        }
      ],
      "name": "profitOf",
      "outputs": [
        {
          "internalType": "uint256",
          "name": "profitAmount",
          "type": "uint256"
        }
      ],
      "stateMutability": "view",
      "type": "function"
    },
    {
      "inputs": [
        {
          "internalType": "uint256",
          "name": "amount",
          "type": "uint256"
        }
      ],
      "name": "provide",
      "outputs": [],
      "stateMutability": "nonpayable",
      "type": "function"
    },
    {
      "inputs": [
        {
          "internalType": "bytes32",
          "name": "role",
          "type": "bytes32"
        },
        {
          "internalType": "address",
          "name": "account",
          "type": "address"
        }
      ],
      "name": "renounceRole",
      "outputs": [],
      "stateMutability": "nonpayable",
      "type": "function"
    },
    {
      "inputs": [
        {
          "internalType": "bytes32",
          "name": "role",
          "type": "bytes32"
        },
        {
          "internalType": "address",
          "name": "account",
          "type": "address"
        }
      ],
      "name": "revokeRole",
      "outputs": [],
      "stateMutability": "nonpayable",
      "type": "function"
    },
    {
      "inputs": [],
      "name": "saveFreeTokens",
      "outputs": [],
      "stateMutability": "nonpayable",
      "type": "function"
    },
    {
      "inputs": [
        {
          "internalType": "bool",
          "name": "value",
          "type": "bool"
        }
      ],
      "name": "setWithdrawalsEnabled",
      "outputs": [],
      "stateMutability": "nonpayable",
      "type": "function"
    },
    {
      "inputs": [
        {
          "internalType": "address",
          "name": "holder",
          "type": "address"
        }
      ],
      "name": "shareOf",
      "outputs": [
        {
          "internalType": "uint256",
          "name": "",
          "type": "uint256"
        }
      ],
      "stateMutability": "view",
      "type": "function"
    },
    {
      "inputs": [
        {
          "internalType": "address",
          "name": "",
          "type": "address"
        }
      ],
      "name": "startBalance",
      "outputs": [
        {
          "internalType": "uint256",
          "name": "",
          "type": "uint256"
        }
      ],
      "stateMutability": "view",
      "type": "function"
    },
    {
      "inputs": [
        {
          "internalType": "bytes4",
          "name": "interfaceId",
          "type": "bytes4"
        }
      ],
      "name": "supportsInterface",
      "outputs": [
        {
          "internalType": "bool",
          "name": "",
          "type": "bool"
        }
      ],
      "stateMutability": "view",
      "type": "function"
    },
    {
      "inputs": [],
      "name": "totalBalance",
      "outputs": [
        {
          "internalType": "uint256",
          "name": "",
          "type": "uint256"
        }
      ],
      "stateMutability": "view",
      "type": "function"
    },
    {
      "inputs": [
        {
          "internalType": "address",
          "name": "to",
          "type": "address"
        },
        {
          "internalType": "uint256",
          "name": "amount",
          "type": "uint256"
        }
      ],
      "name": "transfer",
      "outputs": [],
      "stateMutability": "nonpayable",
      "type": "function"
    },
    {
      "inputs": [
        {
          "internalType": "address",
          "name": "account",
          "type": "address"
        },
        {
          "internalType": "uint256",
          "name": "amount",
          "type": "uint256"
        }
      ],
      "name": "transferShare",
      "outputs": [],
      "stateMutability": "nonpayable",
      "type": "function"
    },
    {
      "inputs": [
        {
          "internalType": "uint256",
          "name": "amount",
          "type": "uint256"
        }
      ],
      "name": "withdraw",
      "outputs": [],
      "stateMutability": "nonpayable",
      "type": "function"
    },
    {
      "inputs": [],
      "name": "withdrawalsEnabled",
      "outputs": [
        {
          "internalType": "bool",
          "name": "",
          "type": "bool"
        }
      ],
      "stateMutability": "view",
      "type": "function"
    }
  ],
  "transactionHash": "0x8100cd1b03b8f43d422d2e2a34c9b726cbbb10600692506c663989fde9a41cd8",
  "args": [
    "0x8602c58A47b380863FF7393721B437CEc599c0a6",
    "0xd3F41e2239c848Ed576eB4dc04074Ad6049A00f1"
  ],
  "solcInputHash": "0a548ebdda8d7001933b70b1421b32db",
  "bytecode": "0x60c06040523480156200001157600080fd5b5060405162001ba638038062001ba6833981016040819052620000349162000143565b600180556200004560003362000076565b6001600160601b0319606092831b8116608052911b1660a052600480546001600160a01b031916331790556200017b565b62000082828262000086565b5050565b6000828152602081815260408083206001600160a01b038516845290915290205460ff1662000082576000828152602081815260408083206001600160a01b03851684529091529020805460ff19166001179055620000e23390565b6001600160a01b0316816001600160a01b0316837f2f8788117e7eff1d82e926ec794901d17c78024a50270940304540a733656f0d60405160405180910390a45050565b80516001600160a01b03811681146200013e57600080fd5b919050565b600080604083850312156200015757600080fd5b620001628362000126565b9150620001726020840162000126565b90509250929050565b60805160601c60a05160601c6119a462000202600039600081816102fe01528181610644015281816108190152818161092b01528181610a5901528181610bdc01528181610c1b01528181610d0001528181610ddd01528181610f2101526110600152600081816103640152818161050d01528181610a24015261102c01526119a46000f3fe608060405234801561001057600080fd5b50600436106101735760003560e01c806391d14854116100de578063c55dae6311610097578063d7f4763b11610071578063d7f4763b1461035f578063da333ca614610386578063e28beb4d14610399578063f011a7af146103b957600080fd5b8063c55dae63146102f9578063d0dbcd2414610338578063d547741f1461034c57600080fd5b806391d148541461029357806397eef5b7146102a6578063a217fddf146102cd578063a9059cbb146102d5578063ab2f0e51146102e8578063ad7a672f146102f057600080fd5b80632e1a7d4d116101305780632e1a7d4d146102145780632e2ebe06146102275780632f2ff15d1461023a57806336568abe1461024d57806354198ce91461026057806370a082311461027357600080fd5b806301ffc9a7146101785780630a179327146101a057806312e868be146101b55780631ff040c6146101c857806321e5e2c4146101d0578063248a9ca3146101f1575b600080fd5b61018b61018636600461172a565b6103c1565b60405190151581526020015b60405180910390f35b6101b36101ae3660046116ab565b6103f8565b005b6101b36101c3366004611681565b610423565b6101b36104dd565b6101e36101de366004611666565b61060d565b604051908152602001610197565b6101e36101ff3660046116e5565b60009081526020819052604090206001015490565b6101b36102223660046116e5565b6106d4565b6101b36102353660046116e5565b61078f565b6101b36102483660046116fe565b610ac5565b6101b361025b3660046116fe565b610af0565b6101e361026e366004611666565b610b6e565b6101e3610281366004611666565b60026020526000908152604090205481565b61018b6102a13660046116fe565b610b9a565b6101e37f985cb37a5a8b8be3316b4239830f14f158762f12abaae14c979a055dd9bbee6f81565b6101e3600081565b6101b36102e3366004611681565b610bc3565b6101e3610c03565b6101e360055481565b6103207f000000000000000000000000000000000000000000000000000000000000000081565b6040516001600160a01b039091168152602001610197565b60045461018b90600160a01b900460ff1681565b6101b361035a3660046116fe565b610ca2565b6103207f000000000000000000000000000000000000000000000000000000000000000081565b6101b36103943660046116e5565b610cc8565b6101e36103a7366004611666565b60036020526000908152604090205481565b6101e3610d27565b60006001600160e01b03198216637965db0b60e01b14806103f257506301ffc9a760e01b6001600160e01b03198316145b92915050565b60006104048133610e99565b5060048054911515600160a01b0260ff60a01b19909216919091179055565b61042c33610b6e565b1561043657600080fd5b61043f82610b6e565b1561044957600080fd5b33600090815260026020526040812080548392906104689084906118c1565b90915550506001600160a01b03821660009081526002602052604081208054839290610495908490611868565b909155506104a490503361060d565b336000908152600360205260409020556104bd8261060d565b6001600160a01b0390921660009081526003602052604090209190915550565b60006104e98133610e99565b6005546040516370a0823160e01b8152306004820152600091906001600160a01b037f000000000000000000000000000000000000000000000000000000000000000016906370a082319060240160206040518083038186803b15801561054f57600080fd5b505afa158015610563573d6000803e3d6000fd5b505050506040513d601f19601f820116820180604052508101906105879190611754565b61059191906118c1565b905080600560008282546105a59190611868565b90915550506004546001600160a01b0316600090815260026020526040812080548392906105d4908490611868565b90915550506004546105ee906001600160a01b031661060d565b6004546001600160a01b03166000908152600360205260409020555050565b6005546001600160a01b038083166000908152600260205260408082205490516370a0823160e01b815230600482015291939290917f0000000000000000000000000000000000000000000000000000000000000000909116906370a082319060240160206040518083038186803b15801561068857600080fd5b505afa15801561069c573d6000803e3d6000fd5b505050506040513d601f19601f820116820180604052508101906106c09190611754565b6106ca91906118a2565b6103f29190611880565b600260015414156107005760405162461bcd60e51b81526004016106f790611831565b60405180910390fd5b6002600155600454600160a01b900460ff1661077d5760405162461bcd60e51b815260206004820152603660248201527f48656769635374616b65416e64436f7665723a205769746864726177616c7320604482015275185c994818dd5c9c995b9d1b1e48191a5cd8589b195960521b60648201526084016106f7565b610788333383610efd565b5060018055565b600260015414156107b25760405162461bcd60e51b81526004016106f790611831565b60026001556107c033610b6e565b156108015760405162461bcd60e51b815260206004820152601160248201527010db185a5b481e5bdd5c881c1c9bd99a5d607a1b60448201526064016106f7565b6040516370a0823160e01b81523060048201526000907f00000000000000000000000000000000000000000000000000000000000000006001600160a01b0316906370a082319060240160206040518083038186803b15801561086357600080fd5b505afa158015610877573d6000803e3d6000fd5b505050506040513d601f19601f8201168201806040525081019061089b9190611754565b90506000811180156108af57506000600554115b6109075760405162461bcd60e51b8152602060048201526024808201527f54686520706f6f6c2073686f756c6420666972737420626520696e697469616c6044820152631a5e995960e21b60648201526084016106f7565b6005546040516370a0823160e01b8152306004820152600091906001600160a01b037f000000000000000000000000000000000000000000000000000000000000000016906370a082319060240160206040518083038186803b15801561096d57600080fd5b505afa158015610981573d6000803e3d6000fd5b505050506040513d601f19601f820116820180604052508101906109a59190611754565b6109af90856118a2565b6109b99190611880565b336000908152600260205260408120805492935085929091906109dd908490611868565b909155506109ec90503361060d565b3360009081526003602052604081209190915560058054859290610a11908490611868565b90915550610a4c90506001600160a01b037f0000000000000000000000000000000000000000000000000000000000000000163330866110d3565b610a816001600160a01b037f0000000000000000000000000000000000000000000000000000000000000000163330846110d3565b604080518481526020810183905233917f9344f1a0460e7d82a14a16b325b7b5f30a0e9aec0f2de30b9ca95066bdc0c27e910160405180910390a250506001805550565b600082815260208190526040902060010154610ae18133610e99565b610aeb8383611144565b505050565b6001600160a01b0381163314610b605760405162461bcd60e51b815260206004820152602f60248201527f416363657373436f6e74726f6c3a2063616e206f6e6c792072656e6f756e636560448201526e103937b632b9903337b91039b2b63360891b60648201526084016106f7565b610b6a82826111c8565b5050565b6001600160a01b038116600090815260036020526040812054610b908361060d565b6103f291906118c1565b6000918252602082815260408084206001600160a01b0393909316845291905290205460ff1690565b6000610bcf8133610e99565b610aeb6001600160a01b037f000000000000000000000000000000000000000000000000000000000000000016848461122d565b6040516370a0823160e01b81523060048201526000907f00000000000000000000000000000000000000000000000000000000000000006001600160a01b0316906370a082319060240160206040518083038186803b158015610c6557600080fd5b505afa158015610c79573d6000803e3d6000fd5b505050506040513d601f19601f82011682018060405250810190610c9d9190611754565b905090565b600082815260208190526040902060010154610cbe8133610e99565b610aeb83836111c8565b7f985cb37a5a8b8be3316b4239830f14f158762f12abaae14c979a055dd9bbee6f610cf38133610e99565b610b6a6001600160a01b037f000000000000000000000000000000000000000000000000000000000000000016338461122d565b600060026001541415610d4c5760405162461bcd60e51b81526004016106f790611831565b6002600155610d5a33610b6e565b905060008111610dc55760405162461bcd60e51b815260206004820152603060248201527f48656769635374616b65416e64436f7665723a2054686520636c61696d61626c60448201526f652070726f666974206973207a65726f60801b60648201526084016106f7565b6040516370a0823160e01b81523060048201526000907f00000000000000000000000000000000000000000000000000000000000000006001600160a01b0316906370a082319060240160206040518083038186803b158015610e2757600080fd5b505afa158015610e3b573d6000803e3d6000fd5b505050506040513d601f19601f82011682018060405250810190610e5f9190611754565b600554610e6c90846118a2565b610e769190611880565b600454909150610e919033906001600160a01b031683610efd565b506001805590565b610ea38282610b9a565b610b6a57610ebb816001600160a01b0316601461125d565b610ec683602061125d565b604051602001610ed7929190611789565b60408051601f198184030181529082905262461bcd60e51b82526106f7916004016117fe565b6005546040516370a0823160e01b8152306004820152600091906001600160a01b037f000000000000000000000000000000000000000000000000000000000000000016906370a082319060240160206040518083038186803b158015610f6357600080fd5b505afa158015610f77573d6000803e3d6000fd5b505050506040513d601f19601f82011682018060405250810190610f9b9190611754565b610fa590846118a2565b610faf9190611880565b6001600160a01b038516600090815260026020526040812080549293508492909190610fdc9084906118c1565b90915550610feb90508461060d565b6001600160a01b038516600090815260036020526040812091909155600580548492906110199084906118c1565b9091555061105390506001600160a01b037f000000000000000000000000000000000000000000000000000000000000000016848461122d565b6110876001600160a01b037f000000000000000000000000000000000000000000000000000000000000000016858361122d565b60408051838152602081018390526001600160a01b0385169133917f91fb9d98b786c57d74c099ccd2beca1739e9f6a81fb49001ca465c4b7591bbe2910160405180910390a350505050565b6040516001600160a01b038085166024830152831660448201526064810182905261113e9085906323b872dd60e01b906084015b60408051601f198184030181529190526020810180516001600160e01b03166001600160e01b031990931692909217909152611400565b50505050565b61114e8282610b9a565b610b6a576000828152602081815260408083206001600160a01b03851684529091529020805460ff191660011790556111843390565b6001600160a01b0316816001600160a01b0316837f2f8788117e7eff1d82e926ec794901d17c78024a50270940304540a733656f0d60405160405180910390a45050565b6111d28282610b9a565b15610b6a576000828152602081815260408083206001600160a01b0385168085529252808320805460ff1916905551339285917ff6391f5c32d9c69d2a47ea670b442974b53935d1edc7fd64eb21e047a839171b9190a45050565b6040516001600160a01b038316602482015260448101829052610aeb90849063a9059cbb60e01b90606401611107565b6060600061126c8360026118a2565b611277906002611868565b67ffffffffffffffff81111561128f5761128f611947565b6040519080825280601f01601f1916602001820160405280156112b9576020820181803683370190505b509050600360fc1b816000815181106112d4576112d4611931565b60200101906001600160f81b031916908160001a905350600f60fb1b8160018151811061130357611303611931565b60200101906001600160f81b031916908160001a90535060006113278460026118a2565b611332906001611868565b90505b60018111156113aa576f181899199a1a9b1b9c1cb0b131b232b360811b85600f166010811061136657611366611931565b1a60f81b82828151811061137c5761137c611931565b60200101906001600160f81b031916908160001a90535060049490941c936113a381611904565b9050611335565b5083156113f95760405162461bcd60e51b815260206004820181905260248201527f537472696e67733a20686578206c656e67746820696e73756666696369656e7460448201526064016106f7565b9392505050565b6000611455826040518060400160405280602081526020017f5361666545524332303a206c6f772d6c6576656c2063616c6c206661696c6564815250856001600160a01b03166114d29092919063ffffffff16565b805190915015610aeb578080602001905181019061147391906116c8565b610aeb5760405162461bcd60e51b815260206004820152602a60248201527f5361666545524332303a204552433230206f7065726174696f6e20646964206e6044820152691bdd081cdd58d8d9595960b21b60648201526084016106f7565b60606114e184846000856114e9565b949350505050565b60608247101561154a5760405162461bcd60e51b815260206004820152602660248201527f416464726573733a20696e73756666696369656e742062616c616e636520666f6044820152651c8818d85b1b60d21b60648201526084016106f7565b843b6115985760405162461bcd60e51b815260206004820152601d60248201527f416464726573733a2063616c6c20746f206e6f6e2d636f6e747261637400000060448201526064016106f7565b600080866001600160a01b031685876040516115b4919061176d565b60006040518083038185875af1925050503d80600081146115f1576040519150601f19603f3d011682016040523d82523d6000602084013e6115f6565b606091505b5091509150611606828286611611565b979650505050505050565b606083156116205750816113f9565b8251156116305782518084602001fd5b8160405162461bcd60e51b81526004016106f791906117fe565b80356001600160a01b038116811461166157600080fd5b919050565b60006020828403121561167857600080fd5b6113f98261164a565b6000806040838503121561169457600080fd5b61169d8361164a565b946020939093013593505050565b6000602082840312156116bd57600080fd5b81356113f98161195d565b6000602082840312156116da57600080fd5b81516113f98161195d565b6000602082840312156116f757600080fd5b5035919050565b6000806040838503121561171157600080fd5b823591506117216020840161164a565b90509250929050565b60006020828403121561173c57600080fd5b81356001600160e01b0319811681146113f957600080fd5b60006020828403121561176657600080fd5b5051919050565b6000825161177f8184602087016118d8565b9190910192915050565b7f416363657373436f6e74726f6c3a206163636f756e74200000000000000000008152600083516117c18160178501602088016118d8565b7001034b99036b4b9b9b4b733903937b6329607d1b60179184019182015283516117f28160288401602088016118d8565b01602801949350505050565b602081526000825180602084015261181d8160408501602087016118d8565b601f01601f19169190910160400192915050565b6020808252601f908201527f5265656e7472616e637947756172643a207265656e7472616e742063616c6c00604082015260600190565b6000821982111561187b5761187b61191b565b500190565b60008261189d57634e487b7160e01b600052601260045260246000fd5b500490565b60008160001904831182151516156118bc576118bc61191b565b500290565b6000828210156118d3576118d361191b565b500390565b60005b838110156118f35781810151838201526020016118db565b8381111561113e5750506000910152565b6000816119135761191361191b565b506000190190565b634e487b7160e01b600052601160045260246000fd5b634e487b7160e01b600052603260045260246000fd5b634e487b7160e01b600052604160045260246000fd5b801515811461196b57600080fd5b5056fea26469706673582212200d7c9615edc3fa17b42d6fe0c8f71a53a4d1d72643b276176ecbb334c136826a64736f6c63430008060033",
  "devdoc": {
    "kind": "dev",
    "methods": {
      "getRoleAdmin(bytes32)": {
        "details": "Returns the admin role that controls `role`. See {grantRole} and {revokeRole}. To change a role's admin, use {_setRoleAdmin}."
      },
      "grantRole(bytes32,address)": {
        "details": "Grants `role` to `account`. If `account` had not been already granted `role`, emits a {RoleGranted} event. Requirements: - the caller must have ``role``'s admin role."
      },
      "hasRole(bytes32,address)": {
        "details": "Returns `true` if `account` has been granted `role`."
      },
      "payOut(uint256)": {
        "params": {
          "amount": "The amount to transfer*"
        }
      },
      "profitOf(address)": {
        "params": {
          "account": "The user address*"
        }
      },
      "provide(uint256)": {
        "params": {
          "amount": "The amount of tokens*"
        }
      },
      "renounceRole(bytes32,address)": {
        "details": "Revokes `role` from the calling account. Roles are often managed via {grantRole} and {revokeRole}: this function's purpose is to provide a mechanism for accounts to lose their privileges if they are compromised (such as when a trusted device is misplaced). If the calling account had been granted `role`, emits a {RoleRevoked} event. Requirements: - the caller must be `account`."
      },
      "revokeRole(bytes32,address)": {
        "details": "Revokes `role` from `account`. If `account` had been granted `role`, emits a {RoleRevoked} event. Requirements: - the caller must have ``role``'s admin role."
      },
      "setWithdrawalsEnabled(bool)": {
        "params": {
          "value": "True or false*"
        }
      },
      "shareOf(address)": {
        "params": {
          "holder": "The user address*"
        }
      },
      "supportsInterface(bytes4)": {
        "details": "See {IERC165-supportsInterface}."
      },
      "transfer(address,uint256)": {
        "params": {
          "amount": "The amount to withdraw*",
          "to": "The recipient address"
        }
      },
      "transferShare(address,uint256)": {
        "params": {
          "account": "The user address",
          "amount": "The share size*"
        }
      },
      "withdraw(uint256)": {
        "params": {
          "amount": "The amount of tokens*"
        }
      }
    },
    "version": 1
  },
  "userdoc": {
    "kind": "user",
    "methods": {
      "claimProfit()": {
        "notice": "Used for claiming profits accumulated on the contract*"
      },
      "payOut(uint256)": {
        "notice": "Used for transferring tokens for replenishing of the Hegic Operational Treasury contract"
      },
      "profitOf(address)": {
        "notice": "Used for calculating the claimable profit"
      },
      "provide(uint256)": {
        "notice": "Used for depositing tokens into the contract         HegicStakeAndCover should first be initialized with 'saveFreeTokens()'         before making any deposits into the contract"
      },
      "saveFreeTokens()": {
        "notice": "Used for adding tokens to the unlockedTokenRecipient balance*"
      },
      "setWithdrawalsEnabled(bool)": {
        "notice": "Used for enabling the token transfers from the contract"
      },
      "shareOf(address)": {
        "notice": "Used for calculating the user's balance in the base token"
      },
      "transfer(address,uint256)": {
        "notice": "Used for withdrawing of deposited tokens from the contract"
      },
      "transferShare(address,uint256)": {
        "notice": "Used for setting the shares among the eligible users"
      },
      "withdraw(uint256)": {
        "notice": "Used for withdrawing tokens from the contract"
      }
    },
    "version": 1
  },
  "storageLayout": {
    "storage": [
      {
        "astId": 108,
        "contract": "contracts/Pool/HegicStakeAndCover.sol:HegicStakeAndCover",
        "label": "_roles",
        "offset": 0,
        "slot": "0",
        "type": "t_mapping(t_bytes32,t_struct(RoleData)103_storage)"
      },
      {
        "astId": 810,
        "contract": "contracts/Pool/HegicStakeAndCover.sol:HegicStakeAndCover",
        "label": "_status",
        "offset": 0,
        "slot": "1",
        "type": "t_uint256"
      },
      {
        "astId": 11124,
        "contract": "contracts/Pool/HegicStakeAndCover.sol:HegicStakeAndCover",
        "label": "balanceOf",
        "offset": 0,
        "slot": "2",
        "type": "t_mapping(t_address,t_uint256)"
      },
      {
        "astId": 11128,
        "contract": "contracts/Pool/HegicStakeAndCover.sol:HegicStakeAndCover",
        "label": "startBalance",
        "offset": 0,
        "slot": "3",
        "type": "t_mapping(t_address,t_uint256)"
      },
      {
        "astId": 11130,
        "contract": "contracts/Pool/HegicStakeAndCover.sol:HegicStakeAndCover",
        "label": "unlockedTokenRecipient",
        "offset": 0,
        "slot": "4",
        "type": "t_address"
      },
      {
        "astId": 11132,
        "contract": "contracts/Pool/HegicStakeAndCover.sol:HegicStakeAndCover",
        "label": "withdrawalsEnabled",
        "offset": 20,
        "slot": "4",
        "type": "t_bool"
      },
      {
        "astId": 11134,
        "contract": "contracts/Pool/HegicStakeAndCover.sol:HegicStakeAndCover",
        "label": "totalBalance",
        "offset": 0,
        "slot": "5",
        "type": "t_uint256"
      }
    ],
    "types": {
      "t_address": {
        "encoding": "inplace",
        "label": "address",
        "numberOfBytes": "20"
      },
      "t_bool": {
        "encoding": "inplace",
        "label": "bool",
        "numberOfBytes": "1"
      },
      "t_bytes32": {
        "encoding": "inplace",
        "label": "bytes32",
        "numberOfBytes": "32"
      },
      "t_mapping(t_address,t_bool)": {
        "encoding": "mapping",
        "key": "t_address",
        "label": "mapping(address => bool)",
        "numberOfBytes": "32",
        "value": "t_bool"
      },
      "t_mapping(t_address,t_uint256)": {
        "encoding": "mapping",
        "key": "t_address",
        "label": "mapping(address => uint256)",
        "numberOfBytes": "32",
        "value": "t_uint256"
      },
      "t_mapping(t_bytes32,t_struct(RoleData)103_storage)": {
        "encoding": "mapping",
        "key": "t_bytes32",
        "label": "mapping(bytes32 => struct AccessControl.RoleData)",
        "numberOfBytes": "32",
        "value": "t_struct(RoleData)103_storage"
      },
      "t_struct(RoleData)103_storage": {
        "encoding": "inplace",
        "label": "struct AccessControl.RoleData",
        "members": [
          {
            "astId": 100,
            "contract": "contracts/Pool/HegicStakeAndCover.sol:HegicStakeAndCover",
            "label": "members",
            "offset": 0,
            "slot": "0",
            "type": "t_mapping(t_address,t_bool)"
          },
          {
            "astId": 102,
            "contract": "contracts/Pool/HegicStakeAndCover.sol:HegicStakeAndCover",
            "label": "adminRole",
            "offset": 0,
            "slot": "1",
            "type": "t_bytes32"
          }
        ],
        "numberOfBytes": "64"
      },
      "t_uint256": {
        "encoding": "inplace",
        "label": "uint256",
        "numberOfBytes": "32"
      }
    }
  }
}