{
  "address": "0x7F2D10f16654EF31Fb513Eb1A4336A4896F49624",
  "abi": [
    {
      "inputs": [
        {
          "internalType": "contract IERC20",
          "name": "_token",
          "type": "address"
        },
        {
          "internalType": "contract IOptionsManager",
          "name": "_manager",
          "type": "address"
        },
        {
          "internalType": "uint256",
          "name": "_maxLockupPeriod",
          "type": "uint256"
        },
        {
          "internalType": "contract IHegicStakeAndCover",
          "name": "_stakeandcoverPool",
          "type": "address"
        },
        {
          "internalType": "uint256",
          "name": "_benchmark",
          "type": "uint256"
        }
      ],
      "stateMutability": "nonpayable",
      "type": "constructor"
    },
    {
      "anonymous": false,
      "inputs": [
        {
          "indexed": true,
          "internalType": "uint256",
          "name": "id",
          "type": "uint256"
        }
      ],
      "name": "Expired",
      "type": "event"
    },
    {
      "anonymous": false,
      "inputs": [
        {
          "indexed": true,
          "internalType": "uint256",
          "name": "id",
          "type": "uint256"
        },
        {
          "indexed": true,
          "internalType": "address",
          "name": "account",
          "type": "address"
        },
        {
          "indexed": false,
          "internalType": "uint256",
          "name": "amount",
          "type": "uint256"
        }
      ],
      "name": "Paid",
      "type": "event"
    },
    {
      "anonymous": false,
      "inputs": [
        {
          "indexed": false,
          "internalType": "uint256",
          "name": "amount",
          "type": "uint256"
        }
      ],
      "name": "Replenished",
      "type": "event"
    },
    {
      "anonymous": false,
      "inputs": [
        {
          "indexed": true,
          "internalType": "bytes32",
          "name": "role",
          "type": "bytes32"
        },
        {
          "indexed": true,
          "internalType": "bytes32",
          "name": "previousAdminRole",
          "type": "bytes32"
        },
        {
          "indexed": true,
          "internalType": "bytes32",
          "name": "newAdminRole",
          "type": "bytes32"
        }
      ],
      "name": "RoleAdminChanged",
      "type": "event"
    },
    {
      "anonymous": false,
      "inputs": [
        {
          "indexed": true,
          "internalType": "bytes32",
          "name": "role",
          "type": "bytes32"
        },
        {
          "indexed": true,
          "internalType": "address",
          "name": "account",
          "type": "address"
        },
        {
          "indexed": true,
          "internalType": "address",
          "name": "sender",
          "type": "address"
        }
      ],
      "name": "RoleGranted",
      "type": "event"
    },
    {
      "anonymous": false,
      "inputs": [
        {
          "indexed": true,
          "internalType": "bytes32",
          "name": "role",
          "type": "bytes32"
        },
        {
          "indexed": true,
          "internalType": "address",
          "name": "account",
          "type": "address"
        },
        {
          "indexed": true,
          "internalType": "address",
          "name": "sender",
          "type": "address"
        }
      ],
      "name": "RoleRevoked",
      "type": "event"
    },
    {
      "inputs": [],
      "name": "DEFAULT_ADMIN_ROLE",
      "outputs": [
        {
          "internalType": "bytes32",
          "name": "",
          "type": "bytes32"
        }
      ],
      "stateMutability": "view",
      "type": "function"
    },
    {
      "inputs": [],
      "name": "STRATEGY_ROLE",
      "outputs": [
        {
          "internalType": "bytes32",
          "name": "",
          "type": "bytes32"
        }
      ],
      "stateMutability": "view",
      "type": "function"
    },
    {
      "inputs": [],
      "name": "addTokens",
      "outputs": [
        {
          "internalType": "uint256",
          "name": "amount",
          "type": "uint256"
        }
      ],
      "stateMutability": "nonpayable",
      "type": "function"
    },
    {
      "inputs": [],
      "name": "benchmark",
      "outputs": [
        {
          "internalType": "uint256",
          "name": "",
          "type": "uint256"
        }
      ],
      "stateMutability": "view",
      "type": "function"
    },
    {
      "inputs": [
        {
          "internalType": "bytes32",
          "name": "role",
          "type": "bytes32"
        }
      ],
      "name": "getRoleAdmin",
      "outputs": [
        {
          "internalType": "bytes32",
          "name": "",
          "type": "bytes32"
        }
      ],
      "stateMutability": "view",
      "type": "function"
    },
    {
      "inputs": [],
      "name": "getStakeAndCoverBalance",
      "outputs": [
        {
          "internalType": "uint256",
          "name": "balance",
          "type": "uint256"
        }
      ],
      "stateMutability": "view",
      "type": "function"
    },
    {
      "inputs": [
        {
          "internalType": "bytes32",
          "name": "role",
          "type": "bytes32"
        },
        {
          "internalType": "address",
          "name": "account",
          "type": "address"
        }
      ],
      "name": "grantRole",
      "outputs": [],
      "stateMutability": "nonpayable",
      "type": "function"
    },
    {
      "inputs": [
        {
          "internalType": "bytes32",
          "name": "role",
          "type": "bytes32"
        },
        {
          "internalType": "address",
          "name": "account",
          "type": "address"
        }
      ],
      "name": "hasRole",
      "outputs": [
        {
          "internalType": "bool",
          "name": "",
          "type": "bool"
        }
      ],
      "stateMutability": "view",
      "type": "function"
    },
    {
      "inputs": [
        {
          "internalType": "address",
          "name": "holder",
          "type": "address"
        },
        {
          "internalType": "uint128",
          "name": "amount",
          "type": "uint128"
        },
        {
          "internalType": "uint32",
          "name": "expiration",
          "type": "uint32"
        }
      ],
      "name": "lockLiquidityFor",
      "outputs": [
        {
          "internalType": "uint256",
          "name": "optionID",
          "type": "uint256"
        }
      ],
      "stateMutability": "nonpayable",
      "type": "function"
    },
    {
      "inputs": [
        {
          "internalType": "address",
          "name": "",
          "type": "address"
        }
      ],
      "name": "lockedByStrategy",
      "outputs": [
        {
          "internalType": "uint256",
          "name": "",
          "type": "uint256"
        }
      ],
      "stateMutability": "view",
      "type": "function"
    },
    {
      "inputs": [
        {
          "internalType": "uint256",
          "name": "",
          "type": "uint256"
        }
      ],
      "name": "lockedLiquidity",
      "outputs": [
        {
          "internalType": "enum IHegicOperationalTreasury.LockedLiquidityState",
          "name": "state",
          "type": "uint8"
        },
        {
          "internalType": "address",
          "name": "strategy",
          "type": "address"
        },
        {
          "internalType": "uint128",
          "name": "amount",
          "type": "uint128"
        },
        {
          "internalType": "uint128",
          "name": "premium",
          "type": "uint128"
        },
        {
          "internalType": "uint32",
          "name": "expiration",
          "type": "uint32"
        }
      ],
      "stateMutability": "view",
      "type": "function"
    },
    {
      "inputs": [],
      "name": "lockedPremium",
      "outputs": [
        {
          "internalType": "uint256",
          "name": "",
          "type": "uint256"
        }
      ],
      "stateMutability": "view",
      "type": "function"
    },
    {
      "inputs": [],
      "name": "manager",
      "outputs": [
        {
          "internalType": "contract IOptionsManager",
          "name": "",
          "type": "address"
        }
      ],
      "stateMutability": "view",
      "type": "function"
    },
    {
      "inputs": [],
      "name": "maxLockupPeriod",
      "outputs": [
        {
          "internalType": "uint256",
          "name": "",
          "type": "uint256"
        }
      ],
      "stateMutability": "view",
      "type": "function"
    },
    {
      "inputs": [
        {
          "internalType": "uint256",
          "name": "lockedLiquidityID",
          "type": "uint256"
        },
        {
          "internalType": "uint256",
          "name": "amount",
          "type": "uint256"
        },
        {
          "internalType": "address",
          "name": "account",
          "type": "address"
        }
      ],
      "name": "payOff",
      "outputs": [],
      "stateMutability": "nonpayable",
      "type": "function"
    },
    {
      "inputs": [
        {
          "internalType": "bytes32",
          "name": "role",
          "type": "bytes32"
        },
        {
          "internalType": "address",
          "name": "account",
          "type": "address"
        }
      ],
      "name": "renounceRole",
      "outputs": [],
      "stateMutability": "nonpayable",
      "type": "function"
    },
    {
      "inputs": [],
      "name": "replenish",
      "outputs": [],
      "stateMutability": "nonpayable",
      "type": "function"
    },
    {
      "inputs": [
        {
          "internalType": "bytes32",
          "name": "role",
          "type": "bytes32"
        },
        {
          "internalType": "address",
          "name": "account",
          "type": "address"
        }
      ],
      "name": "revokeRole",
      "outputs": [],
      "stateMutability": "nonpayable",
      "type": "function"
    },
    {
      "inputs": [
        {
          "internalType": "uint256",
          "name": "value",
          "type": "uint256"
        }
      ],
      "name": "setBenchmark",
      "outputs": [],
      "stateMutability": "nonpayable",
      "type": "function"
    },
    {
      "inputs": [],
      "name": "stakeandcoverPool",
      "outputs": [
        {
          "internalType": "contract IHegicStakeAndCover",
          "name": "",
          "type": "address"
        }
      ],
      "stateMutability": "view",
      "type": "function"
    },
    {
      "inputs": [
        {
          "internalType": "bytes4",
          "name": "interfaceId",
          "type": "bytes4"
        }
      ],
      "name": "supportsInterface",
      "outputs": [
        {
          "internalType": "bool",
          "name": "",
          "type": "bool"
        }
      ],
      "stateMutability": "view",
      "type": "function"
    },
    {
      "inputs": [],
      "name": "token",
      "outputs": [
        {
          "internalType": "contract IERC20",
          "name": "",
          "type": "address"
        }
      ],
      "stateMutability": "view",
      "type": "function"
    },
    {
      "inputs": [],
      "name": "totalBalance",
      "outputs": [
        {
          "internalType": "uint256",
          "name": "",
          "type": "uint256"
        }
      ],
      "stateMutability": "view",
      "type": "function"
    },
    {
      "inputs": [],
      "name": "totalLocked",
      "outputs": [
        {
          "internalType": "uint256",
          "name": "",
          "type": "uint256"
        }
      ],
      "stateMutability": "view",
      "type": "function"
    },
    {
      "inputs": [
        {
          "internalType": "uint256",
          "name": "lockedLiquidityID",
          "type": "uint256"
        }
      ],
      "name": "unlock",
      "outputs": [],
      "stateMutability": "nonpayable",
      "type": "function"
    },
    {
      "inputs": [
        {
          "internalType": "address",
          "name": "to",
          "type": "address"
        },
        {
          "internalType": "uint256",
          "name": "amount",
          "type": "uint256"
        }
      ],
      "name": "withdraw",
      "outputs": [],
      "stateMutability": "nonpayable",
      "type": "function"
    }
  ],
  "transactionHash": "0x235b88c30ea1a8562bdb3eee3d73425c893bf7e4a724637bdce571cf8d609c3f",
  "args": [
    "0xd3F41e2239c848Ed576eB4dc04074Ad6049A00f1",
    "0x09811E2011669DfBDd138A19B92790fc6B790ED3",
    3888000,
    "0xE079131e8ac9088399ceAC32638bf13aF9FBd447",
    "100000000000"
  ],
  "solcInputHash": "0a548ebdda8d7001933b70b1421b32db",
  "bytecode": "0x60c06040523480156200001157600080fd5b5060405162001b0d38038062001b0d83398101604081905262000034916200013e565b60018055620000456000336200008e565b606094851b6001600160601b03199081166080529390941b90921660a052600955600280546001600160a01b0319166001600160a01b03909216919091179055600555620001bf565b6200009a82826200009e565b5050565b6000828152602081815260408083206001600160a01b038516845290915290205460ff166200009a576000828152602081815260408083206001600160a01b03851684529091529020805460ff19166001179055620000fa3390565b6001600160a01b0316816001600160a01b0316837f2f8788117e7eff1d82e926ec794901d17c78024a50270940304540a733656f0d60405160405180910390a45050565b600080600080600060a086880312156200015757600080fd5b85516200016481620001a6565b60208701519095506200017781620001a6565b6040870151606088015191955093506200019181620001a6565b80925050608086015190509295509295909350565b6001600160a01b0381168114620001bc57600080fd5b50565b60805160601c60a05160601c61190d62000200600039600081816102af0152610a330152600081816103f2015281816110170152611062015261190d6000f3fe608060405234801561001057600080fd5b506004361061018e5760003560e01c80638127f0a1116100de578063ad7a672f11610097578063d5f4f0b311610071578063d5f4f0b3146103bf578063d6a63677146103c7578063f3fef3a3146103da578063fc0c546a146103ed57600080fd5b8063ad7a672f1461039b578063d163af7b146103a4578063d547741f146103ac57600080fd5b80638127f0a1146103485780638903c5a21461035b57806391d14854146103645780639ec956d514610377578063a065ea5314610380578063a217fddf1461039357600080fd5b806346067d691161014b578063580b7c2e11610125578063580b7c2e146102f25780636198e3391461031957806368a2da511461032c578063797be55e1461033f57600080fd5b806346067d69146102a2578063481c6a75146102aa57806356891412146102e957600080fd5b806301ffc9a714610193578063248a9ca3146101bb5780632f2ff15d146101ec57806336568abe146102015780633755269b146102145780634485558314610282575b600080fd5b6101a66101a1366004611652565b610414565b60405190151581526020015b60405180910390f35b6101de6101c936600461160d565b60009081526020819052604090206001015490565b6040519081526020016101b2565b6101ff6101fa366004611626565b61044b565b005b6101ff61020f366004611626565b610476565b61027161022236600461160d565b60036020526000908152604090208054600182015460029092015460ff8216926101009092046001600160a01b0316916001600160801b0380821692600160801b909204169063ffffffff1685565b6040516101b295949392919061175b565b6101de610290366004611548565b60046020526000908152604090205481565b6101de6104f9565b6102d17f000000000000000000000000000000000000000000000000000000000000000081565b6040516001600160a01b0390911681526020016101b2565b6101de60075481565b6101de7f928286c473ded01ff8bf61a1986f14a0579066072fa8261442d9fea514d93a4c81565b6101ff61032736600461160d565b61057b565b6101ff61033a36600461160d565b610626565b6101de60065481565b6101ff610356366004611695565b610638565b6101de60055481565b6101a6610372366004611626565b6107a6565b6101de60095481565b6002546102d1906001600160a01b031681565b6101de600081565b6101de60085481565b6101ff6107cf565b6101ff6103ba366004611626565b6107e8565b6101de61080e565b6101de6103d5366004611563565b610829565b6101ff6103e83660046115c1565b610b97565b6102d17f000000000000000000000000000000000000000000000000000000000000000081565b60006001600160e01b03198216637965db0b60e01b148061044557506301ffc9a760e01b6001600160e01b03198316145b92915050565b6000828152602081905260409020600101546104678133610bad565b6104718383610c11565b505050565b6001600160a01b03811633146104eb5760405162461bcd60e51b815260206004820152602f60248201527f416363657373436f6e74726f6c3a2063616e206f6e6c792072656e6f756e636560448201526e103937b632b9903337b91039b2b63360891b60648201526084015b60405180910390fd5b6104f58282610c95565b5050565b6002546040805163ab2f0e5160e01b815290516000926001600160a01b03169163ab2f0e51916004808301926020929190829003018186803b15801561053e57600080fd5b505afa158015610552573d6000803e3d6000fd5b505050506040513d601f19601f82011682018060405250810190610576919061167c565b905090565b6000818152600360205260409020600281015463ffffffff1642116105ee5760405162461bcd60e51b8152602060048201526024808201527f5468652065787069726174696f6e2074696d6520686173206e6f742079657420604482015263636f6d6560e01b60648201526084016104e2565b6105f781610cfa565b60405182907ff80dbaea4785589e52984ca36a31de106adc77759539a5c7d92883bf49692fe990600090a25050565b60006106328133610bad565b50600555565b6002600154141561068b5760405162461bcd60e51b815260206004820152601f60248201527f5265656e7472616e637947756172643a207265656e7472616e742063616c6c0060448201526064016104e2565b600260018190556000848152600360205260409020908101544263ffffffff909116116106fa5760405162461bcd60e51b815260206004820152601e60248201527f546865206f7074696f6e2068617320616c72656164792065787069726564000060448201526064016104e2565b805461010090046001600160a01b0316331461071557600080fd5b6001600160a01b03821661072857600080fd5b8261073257600080fd5b61073b81610cfa565b82600854101561074e5761074e83610e14565b6107588284610eeb565b816001600160a01b0316847f4f2d18324ee95128de091ed2adc501295479000ce4c2cec607aeb1b67e189e2f8560405161079491815260200190565b60405180910390a35050600180555050565b6000918252602082815260408084206001600160a01b0393909316845291905290205460ff1690565b60006107db8133610bad565b6107e56000610e14565b50565b6000828152602081905260409020600101546108048133610bad565b6104718383610c95565b60008061081b8133610bad565b61082361103e565b91505090565b60007f928286c473ded01ff8bf61a1986f14a0579066072fa8261442d9fea514d93a4c6108568133610bad565b836001600160801b03166007600082825461087191906117ea565b909155506000905061088161103e565b9050806001600160801b03166006600082825461089e91906117ea565b90915550506002546040805163ab2f0e5160e01b815290516001600160a01b039092169163ab2f0e5191600480820192602092909190829003018186803b1580156108e857600080fd5b505afa1580156108fc573d6000803e3d6000fd5b505050506040513d601f19601f82011682018060405250810190610920919061167c565b60085461092d91906117ea565b60065460075461093d91906117ea565b111561098b5760405162461bcd60e51b815260206004820152601760248201527f54686520616d6f756e7420697320746f6f206c6172676500000000000000000060448201526064016104e2565b8363ffffffff16600954426109a091906117ea565b10156109e75760405162461bcd60e51b815260206004820152601660248201527554686520706572696f6420697320746f6f206c6f6e6760501b60448201526064016104e2565b33600090815260046020526040812080546001600160801b0388169290610a0f9084906117ea565b909155505060405163012c0d8160e71b81526001600160a01b0387811660048301527f00000000000000000000000000000000000000000000000000000000000000001690639606c08090602401602060405180830381600087803b158015610a7757600080fd5b505af1158015610a8b573d6000803e3d6000fd5b505050506040513d601f19601f82011682018060405250810190610aaf919061167c565b6040805160a0810182526001808252336020808401919091526001600160801b038a8116848601528616606084015263ffffffff8916608084015260008581526003909152929092208151815494975091939092839160ff1916908381811115610b1b57610b1b611895565b0217905550602082015181546001600160a01b0390911661010002610100600160a81b0319909116178155604082015160608301516001600160801b03908116600160801b0291161760018201556080909101516002909101805463ffffffff90921663ffffffff199092169190911790555090949350505050565b6000610ba38133610bad565b6104718383610eeb565b610bb782826107a6565b6104f557610bcf816001600160a01b03166014611104565b610bda836020611104565b604051602001610beb9291906116e6565b60408051601f198184030181529082905262461bcd60e51b82526104e2916004016117b7565b610c1b82826107a6565b6104f5576000828152602081815260408083206001600160a01b03851684529091529020805460ff19166001179055610c513390565b6001600160a01b0316816001600160a01b0316837f2f8788117e7eff1d82e926ec794901d17c78024a50270940304540a733656f0d60405160405180910390a45050565b610c9f82826107a6565b156104f5576000828152602081815260408083206001600160a01b0385168085529252808320805460ff1916905551339285917ff6391f5c32d9c69d2a47ea670b442974b53935d1edc7fd64eb21e047a839171b9190a45050565b6001815460ff166001811115610d1257610d12611895565b14610d6f5760405162461bcd60e51b815260206004820152602760248201527f546865206c69717569646974792068617320616c7265616479206265656e20756044820152661b9b1bd8dad95960ca1b60648201526084016104e2565b805460ff191681556001810154600780546001600160801b0390921691600090610d9a908490611821565b9091555050600181015460068054600160801b9092046001600160801b031691600090610dc8908490611821565b90915550506001810154815461010090046001600160a01b0316600090815260046020526040812080546001600160801b0390931692909190610e0c908490611821565b909155505050565b600060085460065483600554610e2a91906117ea565b610e3491906117ea565b610e3e9190611821565b600254604051636d199e5360e11b8152600481018390529192506001600160a01b03169063da333ca690602401600060405180830381600087803b158015610e8557600080fd5b505af1158015610e99573d6000803e3d6000fd5b505050508060086000828254610eaf91906117ea565b90915550506040518181527fc38f9a7f7e6a60286c03e404e4a1890a1434a5633900261bf999356064b031da9060200160405180910390a15050565b600260009054906101000a90046001600160a01b03166001600160a01b031663ab2f0e516040518163ffffffff1660e01b815260040160206040518083038186803b158015610f3957600080fd5b505afa158015610f4d573d6000803e3d6000fd5b505050506040513d601f19601f82011682018060405250810190610f71919061167c565b600854610f7e91906117ea565b600654600754610f8e90846117ea565b610f9891906117ea565b1115610ff25760405162461bcd60e51b815260206004820152602360248201527f54686520616d6f756e7420746f20776974686472617720697320746f6f206c6160448201526272676560e81b60648201526084016104e2565b80600860008282546110049190611821565b909155506104f590506001600160a01b037f00000000000000000000000000000000000000000000000000000000000000001683836112a7565b6008546040516370a0823160e01b8152306004820152600091906001600160a01b037f000000000000000000000000000000000000000000000000000000000000000016906370a082319060240160206040518083038186803b1580156110a457600080fd5b505afa1580156110b8573d6000803e3d6000fd5b505050506040513d601f19601f820116820180604052508101906110dc919061167c565b6110e69190611821565b905080600860008282546110fa91906117ea565b9250508190555090565b60606000611113836002611802565b61111e9060026117ea565b67ffffffffffffffff811115611136576111366118c1565b6040519080825280601f01601f191660200182016040528015611160576020820181803683370190505b509050600360fc1b8160008151811061117b5761117b6118ab565b60200101906001600160f81b031916908160001a905350600f60fb1b816001815181106111aa576111aa6118ab565b60200101906001600160f81b031916908160001a90535060006111ce846002611802565b6111d99060016117ea565b90505b6001811115611251576f181899199a1a9b1b9c1cb0b131b232b360811b85600f166010811061120d5761120d6118ab565b1a60f81b828281518110611223576112236118ab565b60200101906001600160f81b031916908160001a90535060049490941c9361124a81611868565b90506111dc565b5083156112a05760405162461bcd60e51b815260206004820181905260248201527f537472696e67733a20686578206c656e67746820696e73756666696369656e7460448201526064016104e2565b9392505050565b604080516001600160a01b03848116602483015260448083018590528351808403909101815260649092018352602080830180516001600160e01b031663a9059cbb60e01b17905283518085019094528084527f5361666545524332303a206c6f772d6c6576656c2063616c6c206661696c656490840152610471928692916000916113379185169084906113b4565b805190915015610471578080602001905181019061135591906115eb565b6104715760405162461bcd60e51b815260206004820152602a60248201527f5361666545524332303a204552433230206f7065726174696f6e20646964206e6044820152691bdd081cdd58d8d9595960b21b60648201526084016104e2565b60606113c384846000856113cb565b949350505050565b60608247101561142c5760405162461bcd60e51b815260206004820152602660248201527f416464726573733a20696e73756666696369656e742062616c616e636520666f6044820152651c8818d85b1b60d21b60648201526084016104e2565b843b61147a5760405162461bcd60e51b815260206004820152601d60248201527f416464726573733a2063616c6c20746f206e6f6e2d636f6e747261637400000060448201526064016104e2565b600080866001600160a01b0316858760405161149691906116ca565b60006040518083038185875af1925050503d80600081146114d3576040519150601f19603f3d011682016040523d82523d6000602084013e6114d8565b606091505b50915091506114e88282866114f3565b979650505050505050565b606083156115025750816112a0565b8251156115125782518084602001fd5b8160405162461bcd60e51b81526004016104e291906117b7565b80356001600160a01b038116811461154357600080fd5b919050565b60006020828403121561155a57600080fd5b6112a08261152c565b60008060006060848603121561157857600080fd5b6115818461152c565b925060208401356001600160801b038116811461159d57600080fd5b9150604084013563ffffffff811681146115b657600080fd5b809150509250925092565b600080604083850312156115d457600080fd5b6115dd8361152c565b946020939093013593505050565b6000602082840312156115fd57600080fd5b815180151581146112a057600080fd5b60006020828403121561161f57600080fd5b5035919050565b6000806040838503121561163957600080fd5b823591506116496020840161152c565b90509250929050565b60006020828403121561166457600080fd5b81356001600160e01b0319811681146112a057600080fd5b60006020828403121561168e57600080fd5b5051919050565b6000806000606084860312156116aa57600080fd5b83359250602084013591506116c16040850161152c565b90509250925092565b600082516116dc818460208701611838565b9190910192915050565b7f416363657373436f6e74726f6c3a206163636f756e742000000000000000000081526000835161171e816017850160208801611838565b7001034b99036b4b9b9b4b733903937b6329607d1b601791840191820152835161174f816028840160208801611838565b01602801949350505050565b60a081016002871061177d57634e487b7160e01b600052602160045260246000fd5b9581526001600160a01b039490941660208501526001600160801b0392831660408501529116606083015263ffffffff1660809091015290565b60208152600082518060208401526117d6816040850160208701611838565b601f01601f19169190910160400192915050565b600082198211156117fd576117fd61187f565b500190565b600081600019048311821515161561181c5761181c61187f565b500290565b6000828210156118335761183361187f565b500390565b60005b8381101561185357818101518382015260200161183b565b83811115611862576000848401525b50505050565b6000816118775761187761187f565b506000190190565b634e487b7160e01b600052601160045260246000fd5b634e487b7160e01b600052602160045260246000fd5b634e487b7160e01b600052603260045260246000fd5b634e487b7160e01b600052604160045260246000fdfea264697066735822122031bfdbba2500eea22f290cc4e9a48afef863b66cb11f0d9fa7053da9518f4f9564736f6c63430008060033",
  "devdoc": {
    "kind": "dev",
    "methods": {
      "addTokens()": {
        "params": {
          "amount": "The amount of tokens to add*"
        }
      },
      "getRoleAdmin(bytes32)": {
        "details": "Returns the admin role that controls `role`. See {grantRole} and {revokeRole}. To change a role's admin, use {_setRoleAdmin}."
      },
      "grantRole(bytes32,address)": {
        "details": "Grants `role` to `account`. If `account` had not been already granted `role`, emits a {RoleGranted} event. Requirements: - the caller must have ``role``'s admin role."
      },
      "hasRole(bytes32,address)": {
        "details": "Returns `true` if `account` has been granted `role`."
      },
      "lockLiquidityFor(address,uint128,uint32)": {
        "params": {
          "amount": "The amount of options strategy contract",
          "expiration": "The options strategy expiration time*",
          "holder": "The option strategy holder address"
        }
      },
      "payOff(uint256,uint256,address)": {
        "params": {
          "account": "The holder address*",
          "amount": "The amount to pay off",
          "lockedLiquidityID": "The option contract ID"
        }
      },
      "renounceRole(bytes32,address)": {
        "details": "Revokes `role` from the calling account. Roles are often managed via {grantRole} and {revokeRole}: this function's purpose is to provide a mechanism for accounts to lose their privileges if they are compromised (such as when a trusted device is misplaced). If the calling account had been granted `role`, emits a {RoleRevoked} event. Requirements: - the caller must be `account`."
      },
      "revokeRole(bytes32,address)": {
        "details": "Revokes `role` from `account`. If `account` had been granted `role`, emits a {RoleRevoked} event. Requirements: - the caller must have ``role``'s admin role."
      },
      "setBenchmark(uint256)": {
        "params": {
          "value": "The benchmark value*"
        }
      },
      "supportsInterface(bytes4)": {
        "details": "See {IERC165-supportsInterface}."
      },
      "unlock(uint256)": {
        "params": {
          "lockedLiquidityID": "The option contract ID*"
        }
      },
      "withdraw(address,uint256)": {
        "params": {
          "amount": "The amount to withdraw*",
          "to": "The recipient address"
        }
      }
    },
    "version": 1
  },
  "userdoc": {
    "kind": "user",
    "methods": {
      "addTokens()": {
        "notice": "Used for adding deposited tokens (e.g. premiums) to the contract's totalBalance"
      },
      "lockLiquidityFor(address,uint128,uint32)": {
        "notice": "Used for locking liquidity in an active options strategy"
      },
      "payOff(uint256,uint256,address)": {
        "notice": "Used for paying off the profits if an option is exercised in-the-money"
      },
      "replenish()": {
        "notice": "replenishUsed for replenishing of the Hegic Operational Treasury contract*"
      },
      "setBenchmark(uint256)": {
        "notice": "Used for setting the initial contract benchmark for calculating future profits or losses"
      },
      "unlock(uint256)": {
        "notice": "Used for unlocking liquidity after an expiration"
      },
      "withdraw(address,uint256)": {
        "notice": "Used for withdrawing deposited tokens from the contract"
      }
    },
    "version": 1
  },
  "storageLayout": {
    "storage": [
      {
        "astId": 108,
        "contract": "contracts/Pool/HegicOperationalTreasury.sol:HegicOperationalTreasury",
        "label": "_roles",
        "offset": 0,
        "slot": "0",
        "type": "t_mapping(t_bytes32,t_struct(RoleData)103_storage)"
      },
      {
        "astId": 810,
        "contract": "contracts/Pool/HegicOperationalTreasury.sol:HegicOperationalTreasury",
        "label": "_status",
        "offset": 0,
        "slot": "1",
        "type": "t_uint256"
      },
      {
        "astId": 8903,
        "contract": "contracts/Pool/HegicOperationalTreasury.sol:HegicOperationalTreasury",
        "label": "stakeandcoverPool",
        "offset": 0,
        "slot": "2",
        "type": "t_contract(IHegicStakeAndCover)12479"
      },
      {
        "astId": 8913,
        "contract": "contracts/Pool/HegicOperationalTreasury.sol:HegicOperationalTreasury",
        "label": "lockedLiquidity",
        "offset": 0,
        "slot": "3",
        "type": "t_mapping(t_uint256,t_struct(LockedLiquidity)12376_storage)"
      },
      {
        "astId": 8918,
        "contract": "contracts/Pool/HegicOperationalTreasury.sol:HegicOperationalTreasury",
        "label": "lockedByStrategy",
        "offset": 0,
        "slot": "4",
        "type": "t_mapping(t_address,t_uint256)"
      },
      {
        "astId": 8921,
        "contract": "contracts/Pool/HegicOperationalTreasury.sol:HegicOperationalTreasury",
        "label": "benchmark",
        "offset": 0,
        "slot": "5",
        "type": "t_uint256"
      },
      {
        "astId": 8924,
        "contract": "contracts/Pool/HegicOperationalTreasury.sol:HegicOperationalTreasury",
        "label": "lockedPremium",
        "offset": 0,
        "slot": "6",
        "type": "t_uint256"
      },
      {
        "astId": 8927,
        "contract": "contracts/Pool/HegicOperationalTreasury.sol:HegicOperationalTreasury",
        "label": "totalLocked",
        "offset": 0,
        "slot": "7",
        "type": "t_uint256"
      },
      {
        "astId": 8930,
        "contract": "contracts/Pool/HegicOperationalTreasury.sol:HegicOperationalTreasury",
        "label": "totalBalance",
        "offset": 0,
        "slot": "8",
        "type": "t_uint256"
      },
      {
        "astId": 8932,
        "contract": "contracts/Pool/HegicOperationalTreasury.sol:HegicOperationalTreasury",
        "label": "maxLockupPeriod",
        "offset": 0,
        "slot": "9",
        "type": "t_uint256"
      }
    ],
    "types": {
      "t_address": {
        "encoding": "inplace",
        "label": "address",
        "numberOfBytes": "20"
      },
      "t_bool": {
        "encoding": "inplace",
        "label": "bool",
        "numberOfBytes": "1"
      },
      "t_bytes32": {
        "encoding": "inplace",
        "label": "bytes32",
        "numberOfBytes": "32"
      },
      "t_contract(IHegicStakeAndCover)12479": {
        "encoding": "inplace",
        "label": "contract IHegicStakeAndCover",
        "numberOfBytes": "20"
      },
      "t_enum(LockedLiquidityState)12348": {
        "encoding": "inplace",
        "label": "enum IHegicOperationalTreasury.LockedLiquidityState",
        "numberOfBytes": "1"
      },
      "t_mapping(t_address,t_bool)": {
        "encoding": "mapping",
        "key": "t_address",
        "label": "mapping(address => bool)",
        "numberOfBytes": "32",
        "value": "t_bool"
      },
      "t_mapping(t_address,t_uint256)": {
        "encoding": "mapping",
        "key": "t_address",
        "label": "mapping(address => uint256)",
        "numberOfBytes": "32",
        "value": "t_uint256"
      },
      "t_mapping(t_bytes32,t_struct(RoleData)103_storage)": {
        "encoding": "mapping",
        "key": "t_bytes32",
        "label": "mapping(bytes32 => struct AccessControl.RoleData)",
        "numberOfBytes": "32",
        "value": "t_struct(RoleData)103_storage"
      },
      "t_mapping(t_uint256,t_struct(LockedLiquidity)12376_storage)": {
        "encoding": "mapping",
        "key": "t_uint256",
        "label": "mapping(uint256 => struct IHegicOperationalTreasury.LockedLiquidity)",
        "numberOfBytes": "32",
        "value": "t_struct(LockedLiquidity)12376_storage"
      },
      "t_struct(LockedLiquidity)12376_storage": {
        "encoding": "inplace",
        "label": "struct IHegicOperationalTreasury.LockedLiquidity",
        "members": [
          {
            "astId": 12367,
            "contract": "contracts/Pool/HegicOperationalTreasury.sol:HegicOperationalTreasury",
            "label": "state",
            "offset": 0,
            "slot": "0",
            "type": "t_enum(LockedLiquidityState)12348"
          },
          {
            "astId": 12369,
            "contract": "contracts/Pool/HegicOperationalTreasury.sol:HegicOperationalTreasury",
            "label": "strategy",
            "offset": 1,
            "slot": "0",
            "type": "t_address"
          },
          {
            "astId": 12371,
            "contract": "contracts/Pool/HegicOperationalTreasury.sol:HegicOperationalTreasury",
            "label": "amount",
            "offset": 0,
            "slot": "1",
            "type": "t_uint128"
          },
          {
            "astId": 12373,
            "contract": "contracts/Pool/HegicOperationalTreasury.sol:HegicOperationalTreasury",
            "label": "premium",
            "offset": 16,
            "slot": "1",
            "type": "t_uint128"
          },
          {
            "astId": 12375,
            "contract": "contracts/Pool/HegicOperationalTreasury.sol:HegicOperationalTreasury",
            "label": "expiration",
            "offset": 0,
            "slot": "2",
            "type": "t_uint32"
          }
        ],
        "numberOfBytes": "96"
      },
      "t_struct(RoleData)103_storage": {
        "encoding": "inplace",
        "label": "struct AccessControl.RoleData",
        "members": [
          {
            "astId": 100,
            "contract": "contracts/Pool/HegicOperationalTreasury.sol:HegicOperationalTreasury",
            "label": "members",
            "offset": 0,
            "slot": "0",
            "type": "t_mapping(t_address,t_bool)"
          },
          {
            "astId": 102,
            "contract": "contracts/Pool/HegicOperationalTreasury.sol:HegicOperationalTreasury",
            "label": "adminRole",
            "offset": 0,
            "slot": "1",
            "type": "t_bytes32"
          }
        ],
        "numberOfBytes": "64"
      },
      "t_uint128": {
        "encoding": "inplace",
        "label": "uint128",
        "numberOfBytes": "16"
      },
      "t_uint256": {
        "encoding": "inplace",
        "label": "uint256",
        "numberOfBytes": "32"
      },
      "t_uint32": {
        "encoding": "inplace",
        "label": "uint32",
        "numberOfBytes": "4"
      }
    }
  }
}