{
  "address": "0x60898dfA3C6e8Ba4998B5f3be25Fb0b0b69d5D5d",
  "abi": [
    {
      "inputs": [
        {
          "internalType": "contract IERC20",
          "name": "_hegic",
          "type": "address"
        },
        {
          "internalType": "contract IERC20",
          "name": "_baseToken",
          "type": "address"
        }
      ],
      "stateMutability": "nonpayable",
      "type": "constructor"
    },
    {
      "anonymous": false,
      "inputs": [
        {
          "indexed": true,
          "internalType": "address",
          "name": "by",
          "type": "address"
        },
        {
          "indexed": false,
          "internalType": "uint256",
          "name": "hAmount",
          "type": "uint256"
        },
        {
          "indexed": false,
          "internalType": "uint256",
          "name": "tokenAmount",
          "type": "uint256"
        }
      ],
      "name": "Provided",
      "type": "event"
    },
    {
      "anonymous": false,
      "inputs": [
        {
          "indexed": true,
          "internalType": "bytes32",
          "name": "role",
          "type": "bytes32"
        },
        {
          "indexed": true,
          "internalType": "bytes32",
          "name": "previousAdminRole",
          "type": "bytes32"
        },
        {
          "indexed": true,
          "internalType": "bytes32",
          "name": "newAdminRole",
          "type": "bytes32"
        }
      ],
      "name": "RoleAdminChanged",
      "type": "event"
    },
    {
      "anonymous": false,
      "inputs": [
        {
          "indexed": true,
          "internalType": "bytes32",
          "name": "role",
          "type": "bytes32"
        },
        {
          "indexed": true,
          "internalType": "address",
          "name": "account",
          "type": "address"
        },
        {
          "indexed": true,
          "internalType": "address",
          "name": "sender",
          "type": "address"
        }
      ],
      "name": "RoleGranted",
      "type": "event"
    },
    {
      "anonymous": false,
      "inputs": [
        {
          "indexed": true,
          "internalType": "bytes32",
          "name": "role",
          "type": "bytes32"
        },
        {
          "indexed": true,
          "internalType": "address",
          "name": "account",
          "type": "address"
        },
        {
          "indexed": true,
          "internalType": "address",
          "name": "sender",
          "type": "address"
        }
      ],
      "name": "RoleRevoked",
      "type": "event"
    },
    {
      "anonymous": false,
      "inputs": [
        {
          "indexed": true,
          "internalType": "address",
          "name": "by",
          "type": "address"
        },
        {
          "indexed": true,
          "internalType": "address",
          "name": "hegicDestination",
          "type": "address"
        },
        {
          "indexed": false,
          "internalType": "uint256",
          "name": "hAmount",
          "type": "uint256"
        },
        {
          "indexed": false,
          "internalType": "uint256",
          "name": "tokenAmount",
          "type": "uint256"
        }
      ],
      "name": "Withdrawn",
      "type": "event"
    },
    {
      "inputs": [],
      "name": "DEFAULT_ADMIN_ROLE",
      "outputs": [
        {
          "internalType": "bytes32",
          "name": "",
          "type": "bytes32"
        }
      ],
      "stateMutability": "view",
      "type": "function"
    },
    {
      "inputs": [],
      "name": "HEGIC_POOL_ROLE",
      "outputs": [
        {
          "internalType": "bytes32",
          "name": "",
          "type": "bytes32"
        }
      ],
      "stateMutability": "view",
      "type": "function"
    },
    {
      "inputs": [],
      "name": "availableBalance",
      "outputs": [
        {
          "internalType": "uint256",
          "name": "",
          "type": "uint256"
        }
      ],
      "stateMutability": "view",
      "type": "function"
    },
    {
      "inputs": [
        {
          "internalType": "address",
          "name": "",
          "type": "address"
        }
      ],
      "name": "balanceOf",
      "outputs": [
        {
          "internalType": "uint256",
          "name": "",
          "type": "uint256"
        }
      ],
      "stateMutability": "view",
      "type": "function"
    },
    {
      "inputs": [],
      "name": "baseToken",
      "outputs": [
        {
          "internalType": "contract IERC20",
          "name": "",
          "type": "address"
        }
      ],
      "stateMutability": "view",
      "type": "function"
    },
    {
      "inputs": [],
      "name": "claimProfit",
      "outputs": [
        {
          "internalType": "uint256",
          "name": "profit",
          "type": "uint256"
        }
      ],
      "stateMutability": "nonpayable",
      "type": "function"
    },
    {
      "inputs": [
        {
          "internalType": "bytes32",
          "name": "role",
          "type": "bytes32"
        }
      ],
      "name": "getRoleAdmin",
      "outputs": [
        {
          "internalType": "bytes32",
          "name": "",
          "type": "bytes32"
        }
      ],
      "stateMutability": "view",
      "type": "function"
    },
    {
      "inputs": [
        {
          "internalType": "bytes32",
          "name": "role",
          "type": "bytes32"
        },
        {
          "internalType": "address",
          "name": "account",
          "type": "address"
        }
      ],
      "name": "grantRole",
      "outputs": [],
      "stateMutability": "nonpayable",
      "type": "function"
    },
    {
      "inputs": [
        {
          "internalType": "bytes32",
          "name": "role",
          "type": "bytes32"
        },
        {
          "internalType": "address",
          "name": "account",
          "type": "address"
        }
      ],
      "name": "hasRole",
      "outputs": [
        {
          "internalType": "bool",
          "name": "",
          "type": "bool"
        }
      ],
      "stateMutability": "view",
      "type": "function"
    },
    {
      "inputs": [],
      "name": "hegicToken",
      "outputs": [
        {
          "internalType": "contract IERC20",
          "name": "",
          "type": "address"
        }
      ],
      "stateMutability": "view",
      "type": "function"
    },
    {
      "inputs": [
        {
          "internalType": "uint256",
          "name": "amount",
          "type": "uint256"
        }
      ],
      "name": "payOut",
      "outputs": [],
      "stateMutability": "nonpayable",
      "type": "function"
    },
    {
      "inputs": [
        {
          "internalType": "address",
          "name": "account",
          "type": "address"
        }
      ],
      "name": "profitOf",
      "outputs": [
        {
          "internalType": "uint256",
          "name": "profitAmount",
          "type": "uint256"
        }
      ],
      "stateMutability": "view",
      "type": "function"
    },
    {
      "inputs": [
        {
          "internalType": "uint256",
          "name": "amount",
          "type": "uint256"
        }
      ],
      "name": "provide",
      "outputs": [],
      "stateMutability": "nonpayable",
      "type": "function"
    },
    {
      "inputs": [
        {
          "internalType": "bytes32",
          "name": "role",
          "type": "bytes32"
        },
        {
          "internalType": "address",
          "name": "account",
          "type": "address"
        }
      ],
      "name": "renounceRole",
      "outputs": [],
      "stateMutability": "nonpayable",
      "type": "function"
    },
    {
      "inputs": [
        {
          "internalType": "bytes32",
          "name": "role",
          "type": "bytes32"
        },
        {
          "internalType": "address",
          "name": "account",
          "type": "address"
        }
      ],
      "name": "revokeRole",
      "outputs": [],
      "stateMutability": "nonpayable",
      "type": "function"
    },
    {
      "inputs": [],
      "name": "saveFreeTokens",
      "outputs": [],
      "stateMutability": "nonpayable",
      "type": "function"
    },
    {
      "inputs": [
        {
          "internalType": "bool",
          "name": "value",
          "type": "bool"
        }
      ],
      "name": "setWithdrawalsEnabled",
      "outputs": [],
      "stateMutability": "nonpayable",
      "type": "function"
    },
    {
      "inputs": [
        {
          "internalType": "address",
          "name": "holder",
          "type": "address"
        }
      ],
      "name": "shareOf",
      "outputs": [
        {
          "internalType": "uint256",
          "name": "",
          "type": "uint256"
        }
      ],
      "stateMutability": "view",
      "type": "function"
    },
    {
      "inputs": [
        {
          "internalType": "address",
          "name": "",
          "type": "address"
        }
      ],
      "name": "startBalance",
      "outputs": [
        {
          "internalType": "uint256",
          "name": "",
          "type": "uint256"
        }
      ],
      "stateMutability": "view",
      "type": "function"
    },
    {
      "inputs": [
        {
          "internalType": "bytes4",
          "name": "interfaceId",
          "type": "bytes4"
        }
      ],
      "name": "supportsInterface",
      "outputs": [
        {
          "internalType": "bool",
          "name": "",
          "type": "bool"
        }
      ],
      "stateMutability": "view",
      "type": "function"
    },
    {
      "inputs": [],
      "name": "totalBalance",
      "outputs": [
        {
          "internalType": "uint256",
          "name": "",
          "type": "uint256"
        }
      ],
      "stateMutability": "view",
      "type": "function"
    },
    {
      "inputs": [
        {
          "internalType": "address",
          "name": "to",
          "type": "address"
        },
        {
          "internalType": "uint256",
          "name": "amount",
          "type": "uint256"
        }
      ],
      "name": "transfer",
      "outputs": [],
      "stateMutability": "nonpayable",
      "type": "function"
    },
    {
      "inputs": [
        {
          "internalType": "address",
          "name": "account",
          "type": "address"
        },
        {
          "internalType": "uint256",
          "name": "amount",
          "type": "uint256"
        }
      ],
      "name": "transferShare",
      "outputs": [],
      "stateMutability": "nonpayable",
      "type": "function"
    },
    {
      "inputs": [
        {
          "internalType": "uint256",
          "name": "amount",
          "type": "uint256"
        }
      ],
      "name": "withdraw",
      "outputs": [],
      "stateMutability": "nonpayable",
      "type": "function"
    },
    {
      "inputs": [],
      "name": "withdrawalsEnabled",
      "outputs": [
        {
          "internalType": "bool",
          "name": "",
          "type": "bool"
        }
      ],
      "stateMutability": "view",
      "type": "function"
    }
  ],
  "transactionHash": "0x4126c8eb70dde79c6c5afd3a09b14ab9c95d9ae995c79a2839999dff6d807b88",
  "args": [
    "0xDFD0DEFcda5A5e0bE436F2d12DC01A045a81fa0c",
    "0xff970a61a04b1ca14834a43f5de4533ebddb5cc8"
  ],
  "solcInputHash": "cf4e4c7998a92093cd32c504d552dff0",
  "bytecode": "0x60c06040523480156200001157600080fd5b5060405162001ab738038062001ab783398101604081905262000034916200013f565b6200004160003362000072565b6001600160601b0319606092831b8116608052911b1660a052600380546001600160a01b0319163317905562000177565b6200007e828262000082565b5050565b6000828152602081815260408083206001600160a01b038516845290915290205460ff166200007e576000828152602081815260408083206001600160a01b03851684529091529020805460ff19166001179055620000de3390565b6001600160a01b0316816001600160a01b0316837f2f8788117e7eff1d82e926ec794901d17c78024a50270940304540a733656f0d60405160405180910390a45050565b80516001600160a01b03811681146200013a57600080fd5b919050565b600080604083850312156200015357600080fd5b6200015e8362000122565b91506200016e6020840162000122565b90509250929050565b60805160601c60a05160601c6118b9620001fe600039600081816102fe0152818161064801528181610794015281816108a0015281816109d601528181610b5501528181610b9401528181610c7901528181610d2e01528181610e680152610faf01526000818161036401528181610507015281816109a10152610f7b01526118b96000f3fe608060405234801561001057600080fd5b50600436106101735760003560e01c806391d14854116100de578063c55dae6311610097578063d7f4763b11610071578063d7f4763b1461035f578063da333ca614610386578063e28beb4d14610399578063f011a7af146103b957600080fd5b8063c55dae63146102f9578063d0dbcd2414610338578063d547741f1461034c57600080fd5b806391d148541461029357806397eef5b7146102a6578063a217fddf146102cd578063a9059cbb146102d5578063ab2f0e51146102e8578063ad7a672f146102f057600080fd5b80632e1a7d4d116101305780632e1a7d4d146102145780632e2ebe06146102275780632f2ff15d1461023a57806336568abe1461024d57806354198ce91461026057806370a082311461027357600080fd5b806301ffc9a7146101785780630a179327146101a057806312e868be146101b55780631ff040c6146101c857806321e5e2c4146101d0578063248a9ca3146101f1575b600080fd5b61018b610186366004611679565b6103c1565b60405190151581526020015b60405180910390f35b6101b36101ae3660046115fa565b6103f8565b005b6101b36101c33660046115d0565b610423565b6101b36104dd565b6101e36101de3660046115b5565b61060f565b604051908152602001610197565b6101e36101ff366004611634565b60009081526020819052604090206001015490565b6101b3610222366004611634565b6106d6565b6101b3610235366004611634565b610761565b6101b361024836600461164d565b610a3e565b6101b361025b36600461164d565b610a69565b6101e361026e3660046115b5565b610ae7565b6101e36102813660046115b5565b60016020526000908152604090205481565b61018b6102a136600461164d565b610b13565b6101e37f985cb37a5a8b8be3316b4239830f14f158762f12abaae14c979a055dd9bbee6f81565b6101e3600081565b6101b36102e33660046115d0565b610b3c565b6101e3610b7c565b6101e360045481565b6103207f000000000000000000000000000000000000000000000000000000000000000081565b6040516001600160a01b039091168152602001610197565b60035461018b90600160a01b900460ff1681565b6101b361035a36600461164d565b610c1b565b6103207f000000000000000000000000000000000000000000000000000000000000000081565b6101b3610394366004611634565b610c41565b6101e36103a73660046115b5565b60026020526000908152604090205481565b6101e3610ca0565b60006001600160e01b03198216637965db0b60e01b14806103f257506301ffc9a760e01b6001600160e01b03198316145b92915050565b60006104048133610de6565b5060038054911515600160a01b0260ff60a01b19909216919091179055565b61042c33610ae7565b1561043657600080fd5b61043f82610ae7565b1561044957600080fd5b33600090815260016020526040812080548392906104689084906117d9565b90915550506001600160a01b03821660009081526001602052604081208054839290610495908490611780565b909155506104a490503361060f565b336000908152600260205260409020556104bd8261060f565b6001600160a01b0390921660009081526002602052604090209190915550565b60006104e98133610de6565b600480546040516370a0823160e01b815230928101929092526000917f00000000000000000000000000000000000000000000000000000000000000006001600160a01b0316906370a082319060240160206040518083038186803b15801561055157600080fd5b505afa158015610565573d6000803e3d6000fd5b505050506040513d601f19601f8201168201806040525081019061058991906116a3565b61059391906117d9565b905080600460008282546105a79190611780565b90915550506003546001600160a01b0316600090815260016020526040812080548392906105d6908490611780565b90915550506003546105f0906001600160a01b031661060f565b6003546001600160a01b03166000908152600260205260409020555050565b600480546001600160a01b038381166000908152600160205260408082205490516370a0823160e01b81523095810195909552909390917f000000000000000000000000000000000000000000000000000000000000000016906370a082319060240160206040518083038186803b15801561068a57600080fd5b505afa15801561069e573d6000803e3d6000fd5b505050506040513d601f19601f820116820180604052508101906106c291906116a3565b6106cc91906117ba565b6103f29190611798565b600354600160a01b900460ff166107535760405162461bcd60e51b815260206004820152603660248201527f48656769635374616b65416e64436f7665723a205769746864726177616c7320604482015275185c994818dd5c9c995b9d1b1e48191a5cd8589b195960521b60648201526084015b60405180910390fd5b61075e333383610e4a565b50565b600061076c33610ae7565b111561077c5761077a610ca0565b505b6040516370a0823160e01b81523060048201526000907f00000000000000000000000000000000000000000000000000000000000000006001600160a01b0316906370a082319060240160206040518083038186803b1580156107de57600080fd5b505afa1580156107f2573d6000803e3d6000fd5b505050506040513d601f19601f8201168201806040525081019061081691906116a3565b905060008111801561082a57506000600454115b6108825760405162461bcd60e51b8152602060048201526024808201527f54686520706f6f6c2073686f756c6420666972737420626520696e697469616c6044820152631a5e995960e21b606482015260840161074a565b600480546040516370a0823160e01b815230928101929092526000917f00000000000000000000000000000000000000000000000000000000000000006001600160a01b0316906370a082319060240160206040518083038186803b1580156108ea57600080fd5b505afa1580156108fe573d6000803e3d6000fd5b505050506040513d601f19601f8201168201806040525081019061092291906116a3565b61092c90856117ba565b6109369190611798565b3360009081526001602052604081208054929350859290919061095a908490611780565b9091555061096990503361060f565b336000908152600260205260408120919091556004805485929061098e908490611780565b909155506109c990506001600160a01b037f000000000000000000000000000000000000000000000000000000000000000016333086611022565b6109fe6001600160a01b037f000000000000000000000000000000000000000000000000000000000000000016333084611022565b604080518481526020810183905233917f9344f1a0460e7d82a14a16b325b7b5f30a0e9aec0f2de30b9ca95066bdc0c27e910160405180910390a2505050565b600082815260208190526040902060010154610a5a8133610de6565b610a648383611093565b505050565b6001600160a01b0381163314610ad95760405162461bcd60e51b815260206004820152602f60248201527f416363657373436f6e74726f6c3a2063616e206f6e6c792072656e6f756e636560448201526e103937b632b9903337b91039b2b63360891b606482015260840161074a565b610ae38282611117565b5050565b6001600160a01b038116600090815260026020526040812054610b098361060f565b6103f291906117d9565b6000918252602082815260408084206001600160a01b0393909316845291905290205460ff1690565b6000610b488133610de6565b610a646001600160a01b037f000000000000000000000000000000000000000000000000000000000000000016848461117c565b6040516370a0823160e01b81523060048201526000907f00000000000000000000000000000000000000000000000000000000000000006001600160a01b0316906370a082319060240160206040518083038186803b158015610bde57600080fd5b505afa158015610bf2573d6000803e3d6000fd5b505050506040513d601f19601f82011682018060405250810190610c1691906116a3565b905090565b600082815260208190526040902060010154610c378133610de6565b610a648383611117565b7f985cb37a5a8b8be3316b4239830f14f158762f12abaae14c979a055dd9bbee6f610c6c8133610de6565b610ae36001600160a01b037f000000000000000000000000000000000000000000000000000000000000000016338461117c565b6000610cab33610ae7565b905060008111610d165760405162461bcd60e51b815260206004820152603060248201527f48656769635374616b65416e64436f7665723a2054686520636c61696d61626c60448201526f652070726f666974206973207a65726f60801b606482015260840161074a565b6040516370a0823160e01b81523060048201526000907f00000000000000000000000000000000000000000000000000000000000000006001600160a01b0316906370a082319060240160206040518083038186803b158015610d7857600080fd5b505afa158015610d8c573d6000803e3d6000fd5b505050506040513d601f19601f82011682018060405250810190610db091906116a3565b600454610dbd90846117ba565b610dc79190611798565b600354909150610de29033906001600160a01b031683610e4a565b5090565b610df08282610b13565b610ae357610e08816001600160a01b031660146111ac565b610e138360206111ac565b604051602001610e249291906116d8565b60408051601f198184030181529082905262461bcd60e51b825261074a9160040161174d565b600480546040516370a0823160e01b815230928101929092526000917f00000000000000000000000000000000000000000000000000000000000000006001600160a01b0316906370a082319060240160206040518083038186803b158015610eb257600080fd5b505afa158015610ec6573d6000803e3d6000fd5b505050506040513d601f19601f82011682018060405250810190610eea91906116a3565b610ef490846117ba565b610efe9190611798565b6001600160a01b038516600090815260016020526040812080549293508492909190610f2b9084906117d9565b90915550610f3a90508461060f565b6001600160a01b03851660009081526002602052604081209190915560048054849290610f689084906117d9565b90915550610fa290506001600160a01b037f000000000000000000000000000000000000000000000000000000000000000016848461117c565b610fd66001600160a01b037f000000000000000000000000000000000000000000000000000000000000000016858361117c565b60408051838152602081018390526001600160a01b0385169133917f91fb9d98b786c57d74c099ccd2beca1739e9f6a81fb49001ca465c4b7591bbe2910160405180910390a350505050565b6040516001600160a01b038085166024830152831660448201526064810182905261108d9085906323b872dd60e01b906084015b60408051601f198184030181529190526020810180516001600160e01b03166001600160e01b03199093169290921790915261134f565b50505050565b61109d8282610b13565b610ae3576000828152602081815260408083206001600160a01b03851684529091529020805460ff191660011790556110d33390565b6001600160a01b0316816001600160a01b0316837f2f8788117e7eff1d82e926ec794901d17c78024a50270940304540a733656f0d60405160405180910390a45050565b6111218282610b13565b15610ae3576000828152602081815260408083206001600160a01b0385168085529252808320805460ff1916905551339285917ff6391f5c32d9c69d2a47ea670b442974b53935d1edc7fd64eb21e047a839171b9190a45050565b6040516001600160a01b038316602482015260448101829052610a6490849063a9059cbb60e01b90606401611056565b606060006111bb8360026117ba565b6111c6906002611780565b67ffffffffffffffff8111156111de576111de61185f565b6040519080825280601f01601f191660200182016040528015611208576020820181803683370190505b509050600360fc1b8160008151811061122357611223611849565b60200101906001600160f81b031916908160001a905350600f60fb1b8160018151811061125257611252611849565b60200101906001600160f81b031916908160001a90535060006112768460026117ba565b611281906001611780565b90505b60018111156112f9576f181899199a1a9b1b9c1cb0b131b232b360811b85600f16601081106112b5576112b5611849565b1a60f81b8282815181106112cb576112cb611849565b60200101906001600160f81b031916908160001a90535060049490941c936112f28161181c565b9050611284565b5083156113485760405162461bcd60e51b815260206004820181905260248201527f537472696e67733a20686578206c656e67746820696e73756666696369656e74604482015260640161074a565b9392505050565b60006113a4826040518060400160405280602081526020017f5361666545524332303a206c6f772d6c6576656c2063616c6c206661696c6564815250856001600160a01b03166114219092919063ffffffff16565b805190915015610a6457808060200190518101906113c29190611617565b610a645760405162461bcd60e51b815260206004820152602a60248201527f5361666545524332303a204552433230206f7065726174696f6e20646964206e6044820152691bdd081cdd58d8d9595960b21b606482015260840161074a565b60606114308484600085611438565b949350505050565b6060824710156114995760405162461bcd60e51b815260206004820152602660248201527f416464726573733a20696e73756666696369656e742062616c616e636520666f6044820152651c8818d85b1b60d21b606482015260840161074a565b843b6114e75760405162461bcd60e51b815260206004820152601d60248201527f416464726573733a2063616c6c20746f206e6f6e2d636f6e7472616374000000604482015260640161074a565b600080866001600160a01b0316858760405161150391906116bc565b60006040518083038185875af1925050503d8060008114611540576040519150601f19603f3d011682016040523d82523d6000602084013e611545565b606091505b5091509150611555828286611560565b979650505050505050565b6060831561156f575081611348565b82511561157f5782518084602001fd5b8160405162461bcd60e51b815260040161074a919061174d565b80356001600160a01b03811681146115b057600080fd5b919050565b6000602082840312156115c757600080fd5b61134882611599565b600080604083850312156115e357600080fd5b6115ec83611599565b946020939093013593505050565b60006020828403121561160c57600080fd5b813561134881611875565b60006020828403121561162957600080fd5b815161134881611875565b60006020828403121561164657600080fd5b5035919050565b6000806040838503121561166057600080fd5b8235915061167060208401611599565b90509250929050565b60006020828403121561168b57600080fd5b81356001600160e01b03198116811461134857600080fd5b6000602082840312156116b557600080fd5b5051919050565b600082516116ce8184602087016117f0565b9190910192915050565b7f416363657373436f6e74726f6c3a206163636f756e74200000000000000000008152600083516117108160178501602088016117f0565b7001034b99036b4b9b9b4b733903937b6329607d1b60179184019182015283516117418160288401602088016117f0565b01602801949350505050565b602081526000825180602084015261176c8160408501602087016117f0565b601f01601f19169190910160400192915050565b6000821982111561179357611793611833565b500190565b6000826117b557634e487b7160e01b600052601260045260246000fd5b500490565b60008160001904831182151516156117d4576117d4611833565b500290565b6000828210156117eb576117eb611833565b500390565b60005b8381101561180b5781810151838201526020016117f3565b8381111561108d5750506000910152565b60008161182b5761182b611833565b506000190190565b634e487b7160e01b600052601160045260246000fd5b634e487b7160e01b600052603260045260246000fd5b634e487b7160e01b600052604160045260246000fd5b801515811461075e57600080fdfea26469706673582212201991d8ca76e0ecb1e5a49ee19ea3e125142315363cd01815bbb5371269308dc864736f6c63430008060033",
  "devdoc": {
    "kind": "dev",
    "methods": {
      "getRoleAdmin(bytes32)": {
        "details": "Returns the admin role that controls `role`. See {grantRole} and {revokeRole}. To change a role's admin, use {_setRoleAdmin}."
      },
      "grantRole(bytes32,address)": {
        "details": "Grants `role` to `account`. If `account` had not been already granted `role`, emits a {RoleGranted} event. Requirements: - the caller must have ``role``'s admin role."
      },
      "hasRole(bytes32,address)": {
        "details": "Returns `true` if `account` has been granted `role`."
      },
      "payOut(uint256)": {
        "params": {
          "amount": "The amount to transfer*"
        }
      },
      "profitOf(address)": {
        "params": {
          "account": "The user address*"
        }
      },
      "provide(uint256)": {
        "params": {
          "amount": "The amount of tokens*"
        }
      },
      "renounceRole(bytes32,address)": {
        "details": "Revokes `role` from the calling account. Roles are often managed via {grantRole} and {revokeRole}: this function's purpose is to provide a mechanism for accounts to lose their privileges if they are compromised (such as when a trusted device is misplaced). If the calling account had been granted `role`, emits a {RoleRevoked} event. Requirements: - the caller must be `account`."
      },
      "revokeRole(bytes32,address)": {
        "details": "Revokes `role` from `account`. If `account` had been granted `role`, emits a {RoleRevoked} event. Requirements: - the caller must have ``role``'s admin role."
      },
      "setWithdrawalsEnabled(bool)": {
        "params": {
          "value": "True or false*"
        }
      },
      "shareOf(address)": {
        "params": {
          "holder": "The user address*"
        }
      },
      "supportsInterface(bytes4)": {
        "details": "See {IERC165-supportsInterface}."
      },
      "transfer(address,uint256)": {
        "params": {
          "amount": "The amount to withdraw*",
          "to": "The recipient address"
        }
      },
      "transferShare(address,uint256)": {
        "params": {
          "account": "The user address",
          "amount": "The share size*"
        }
      },
      "withdraw(uint256)": {
        "params": {
          "amount": "The amount of tokens*"
        }
      }
    },
    "version": 1
  },
  "userdoc": {
    "kind": "user",
    "methods": {
      "claimProfit()": {
        "notice": "Used for claiming profits accumulated on the contract*"
      },
      "payOut(uint256)": {
        "notice": "Used for transferring tokens for replenishing of the Hegic Operational Treasury contract"
      },
      "profitOf(address)": {
        "notice": "Used for calculating the claimable profit"
      },
      "provide(uint256)": {
        "notice": "Used for depositing tokens into the contract         HegicStakeAndCover should first be initialized with 'saveFreeTokens()'         before making any deposits into the contract"
      },
      "saveFreeTokens()": {
        "notice": "Used for adding tokens to the unlockedTokenRecipient balance*"
      },
      "setWithdrawalsEnabled(bool)": {
        "notice": "Used for enabling the token transfers from the contract"
      },
      "shareOf(address)": {
        "notice": "Used for calculating the user's balance in the base token"
      },
      "transfer(address,uint256)": {
        "notice": "Used for withdrawing of deposited tokens from the contract"
      },
      "transferShare(address,uint256)": {
        "notice": "Used for setting the shares among the eligible users"
      },
      "withdraw(uint256)": {
        "notice": "Used for withdrawing tokens from the contract"
      }
    },
    "version": 1
  },
  "storageLayout": {
    "storage": [
      {
        "astId": 108,
        "contract": "contracts/Pool/HegicStakeAndCover.sol:HegicStakeAndCover",
        "label": "_roles",
        "offset": 0,
        "slot": "0",
        "type": "t_mapping(t_bytes32,t_struct(RoleData)103_storage)"
      },
      {
        "astId": 10407,
        "contract": "contracts/Pool/HegicStakeAndCover.sol:HegicStakeAndCover",
        "label": "balanceOf",
        "offset": 0,
        "slot": "1",
        "type": "t_mapping(t_address,t_uint256)"
      },
      {
        "astId": 10411,
        "contract": "contracts/Pool/HegicStakeAndCover.sol:HegicStakeAndCover",
        "label": "startBalance",
        "offset": 0,
        "slot": "2",
        "type": "t_mapping(t_address,t_uint256)"
      },
      {
        "astId": 10413,
        "contract": "contracts/Pool/HegicStakeAndCover.sol:HegicStakeAndCover",
        "label": "unlockedTokenRecipient",
        "offset": 0,
        "slot": "3",
        "type": "t_address"
      },
      {
        "astId": 10415,
        "contract": "contracts/Pool/HegicStakeAndCover.sol:HegicStakeAndCover",
        "label": "withdrawalsEnabled",
        "offset": 20,
        "slot": "3",
        "type": "t_bool"
      },
      {
        "astId": 10417,
        "contract": "contracts/Pool/HegicStakeAndCover.sol:HegicStakeAndCover",
        "label": "totalBalance",
        "offset": 0,
        "slot": "4",
        "type": "t_uint256"
      }
    ],
    "types": {
      "t_address": {
        "encoding": "inplace",
        "label": "address",
        "numberOfBytes": "20"
      },
      "t_bool": {
        "encoding": "inplace",
        "label": "bool",
        "numberOfBytes": "1"
      },
      "t_bytes32": {
        "encoding": "inplace",
        "label": "bytes32",
        "numberOfBytes": "32"
      },
      "t_mapping(t_address,t_bool)": {
        "encoding": "mapping",
        "key": "t_address",
        "label": "mapping(address => bool)",
        "numberOfBytes": "32",
        "value": "t_bool"
      },
      "t_mapping(t_address,t_uint256)": {
        "encoding": "mapping",
        "key": "t_address",
        "label": "mapping(address => uint256)",
        "numberOfBytes": "32",
        "value": "t_uint256"
      },
      "t_mapping(t_bytes32,t_struct(RoleData)103_storage)": {
        "encoding": "mapping",
        "key": "t_bytes32",
        "label": "mapping(bytes32 => struct AccessControl.RoleData)",
        "numberOfBytes": "32",
        "value": "t_struct(RoleData)103_storage"
      },
      "t_struct(RoleData)103_storage": {
        "encoding": "inplace",
        "label": "struct AccessControl.RoleData",
        "members": [
          {
            "astId": 100,
            "contract": "contracts/Pool/HegicStakeAndCover.sol:HegicStakeAndCover",
            "label": "members",
            "offset": 0,
            "slot": "0",
            "type": "t_mapping(t_address,t_bool)"
          },
          {
            "astId": 102,
            "contract": "contracts/Pool/HegicStakeAndCover.sol:HegicStakeAndCover",
            "label": "adminRole",
            "offset": 0,
            "slot": "1",
            "type": "t_bytes32"
          }
        ],
        "numberOfBytes": "64"
      },
      "t_uint256": {
        "encoding": "inplace",
        "label": "uint256",
        "numberOfBytes": "32"
      }
    }
  }
}