{
  "address": "0x35a74A8E61c3AF4c91386e0dde10d443a6741076",
  "abi": [
    {
      "inputs": [
        {
          "internalType": "contract IHegicOperationalTreasury",
          "name": "_pool",
          "type": "address"
        },
        {
          "internalType": "contract AggregatorV3Interface",
          "name": "_priceProvider",
          "type": "address"
        },
        {
          "internalType": "contract IPremiumCalculator",
          "name": "_pricer",
          "type": "address"
        },
        {
          "internalType": "uint8",
          "name": "_spotDecimals",
          "type": "uint8"
        },
        {
          "internalType": "uint256",
          "name": "limit",
          "type": "uint256"
        },
        {
          "internalType": "uint256",
          "name": "percentage",
          "type": "uint256"
        },
        {
          "internalType": "uint8",
          "name": "_roundedDecimals",
          "type": "uint8"
        }
      ],
      "stateMutability": "nonpayable",
      "type": "constructor"
    },
    {
      "anonymous": false,
      "inputs": [
        {
          "indexed": true,
          "internalType": "uint256",
          "name": "id",
          "type": "uint256"
        },
        {
          "indexed": false,
          "internalType": "uint256",
          "name": "amount",
          "type": "uint256"
        },
        {
          "indexed": false,
          "internalType": "uint256",
          "name": "premium",
          "type": "uint256"
        },
        {
          "indexed": false,
          "internalType": "uint256",
          "name": "strike",
          "type": "uint256"
        },
        {
          "indexed": false,
          "internalType": "uint32",
          "name": "expiration",
          "type": "uint32"
        }
      ],
      "name": "Acquired",
      "type": "event"
    },
    {
      "anonymous": false,
      "inputs": [
        {
          "indexed": true,
          "internalType": "uint256",
          "name": "id",
          "type": "uint256"
        },
        {
          "indexed": false,
          "internalType": "uint256",
          "name": "amount",
          "type": "uint256"
        },
        {
          "indexed": false,
          "internalType": "uint256",
          "name": "premium",
          "type": "uint256"
        },
        {
          "indexed": false,
          "internalType": "uint256",
          "name": "atmStrike",
          "type": "uint256"
        },
        {
          "indexed": false,
          "internalType": "uint256",
          "name": "otmStrike",
          "type": "uint256"
        },
        {
          "indexed": false,
          "internalType": "uint32",
          "name": "expiration",
          "type": "uint32"
        }
      ],
      "name": "AcquiredSpread",
      "type": "event"
    },
    {
      "anonymous": false,
      "inputs": [
        {
          "indexed": true,
          "internalType": "uint256",
          "name": "id",
          "type": "uint256"
        },
        {
          "indexed": false,
          "internalType": "uint256",
          "name": "amount",
          "type": "uint256"
        },
        {
          "indexed": false,
          "internalType": "uint256",
          "name": "premium",
          "type": "uint256"
        },
        {
          "indexed": false,
          "internalType": "uint256",
          "name": "callStrike",
          "type": "uint256"
        },
        {
          "indexed": false,
          "internalType": "uint256",
          "name": "putStrike",
          "type": "uint256"
        },
        {
          "indexed": false,
          "internalType": "uint32",
          "name": "expiration",
          "type": "uint32"
        }
      ],
      "name": "AcquiredStrangle",
      "type": "event"
    },
    {
      "anonymous": false,
      "inputs": [
        {
          "indexed": true,
          "internalType": "bytes32",
          "name": "role",
          "type": "bytes32"
        },
        {
          "indexed": true,
          "internalType": "bytes32",
          "name": "previousAdminRole",
          "type": "bytes32"
        },
        {
          "indexed": true,
          "internalType": "bytes32",
          "name": "newAdminRole",
          "type": "bytes32"
        }
      ],
      "name": "RoleAdminChanged",
      "type": "event"
    },
    {
      "anonymous": false,
      "inputs": [
        {
          "indexed": true,
          "internalType": "bytes32",
          "name": "role",
          "type": "bytes32"
        },
        {
          "indexed": true,
          "internalType": "address",
          "name": "account",
          "type": "address"
        },
        {
          "indexed": true,
          "internalType": "address",
          "name": "sender",
          "type": "address"
        }
      ],
      "name": "RoleGranted",
      "type": "event"
    },
    {
      "anonymous": false,
      "inputs": [
        {
          "indexed": true,
          "internalType": "bytes32",
          "name": "role",
          "type": "bytes32"
        },
        {
          "indexed": true,
          "internalType": "address",
          "name": "account",
          "type": "address"
        },
        {
          "indexed": true,
          "internalType": "address",
          "name": "sender",
          "type": "address"
        }
      ],
      "name": "RoleRevoked",
      "type": "event"
    },
    {
      "anonymous": false,
      "inputs": [
        {
          "indexed": false,
          "internalType": "uint256",
          "name": "limit",
          "type": "uint256"
        }
      ],
      "name": "SetLimit",
      "type": "event"
    },
    {
      "inputs": [],
      "name": "DEFAULT_ADMIN_ROLE",
      "outputs": [
        {
          "internalType": "bytes32",
          "name": "",
          "type": "bytes32"
        }
      ],
      "stateMutability": "view",
      "type": "function"
    },
    {
      "inputs": [],
      "name": "EXERCISER_ROLE",
      "outputs": [
        {
          "internalType": "bytes32",
          "name": "",
          "type": "bytes32"
        }
      ],
      "stateMutability": "view",
      "type": "function"
    },
    {
      "inputs": [
        {
          "internalType": "address",
          "name": "holder",
          "type": "address"
        },
        {
          "internalType": "uint32",
          "name": "period",
          "type": "uint32"
        },
        {
          "internalType": "uint128",
          "name": "amount",
          "type": "uint128"
        },
        {
          "internalType": "uint256",
          "name": "strike",
          "type": "uint256"
        }
      ],
      "name": "buy",
      "outputs": [
        {
          "internalType": "uint256",
          "name": "id",
          "type": "uint256"
        }
      ],
      "stateMutability": "nonpayable",
      "type": "function"
    },
    {
      "inputs": [
        {
          "internalType": "uint32",
          "name": "period",
          "type": "uint32"
        },
        {
          "internalType": "uint128",
          "name": "amount",
          "type": "uint128"
        },
        {
          "internalType": "uint256",
          "name": "strike",
          "type": "uint256"
        }
      ],
      "name": "calculatePremium",
      "outputs": [
        {
          "internalType": "uint256",
          "name": "premium",
          "type": "uint256"
        },
        {
          "internalType": "uint256",
          "name": "available",
          "type": "uint256"
        }
      ],
      "stateMutability": "view",
      "type": "function"
    },
    {
      "inputs": [],
      "name": "collateralizationRatio",
      "outputs": [
        {
          "internalType": "uint8",
          "name": "",
          "type": "uint8"
        }
      ],
      "stateMutability": "view",
      "type": "function"
    },
    {
      "inputs": [
        {
          "internalType": "uint256",
          "name": "optionID",
          "type": "uint256"
        }
      ],
      "name": "exercise",
      "outputs": [],
      "stateMutability": "nonpayable",
      "type": "function"
    },
    {
      "inputs": [],
      "name": "getLockedByStrategy",
      "outputs": [
        {
          "internalType": "uint256",
          "name": "amount",
          "type": "uint256"
        }
      ],
      "stateMutability": "view",
      "type": "function"
    },
    {
      "inputs": [
        {
          "internalType": "bytes32",
          "name": "role",
          "type": "bytes32"
        }
      ],
      "name": "getRoleAdmin",
      "outputs": [
        {
          "internalType": "bytes32",
          "name": "",
          "type": "bytes32"
        }
      ],
      "stateMutability": "view",
      "type": "function"
    },
    {
      "inputs": [
        {
          "internalType": "bytes32",
          "name": "role",
          "type": "bytes32"
        },
        {
          "internalType": "address",
          "name": "account",
          "type": "address"
        }
      ],
      "name": "grantRole",
      "outputs": [],
      "stateMutability": "nonpayable",
      "type": "function"
    },
    {
      "inputs": [
        {
          "internalType": "bytes32",
          "name": "role",
          "type": "bytes32"
        },
        {
          "internalType": "address",
          "name": "account",
          "type": "address"
        }
      ],
      "name": "hasRole",
      "outputs": [
        {
          "internalType": "bool",
          "name": "",
          "type": "bool"
        }
      ],
      "stateMutability": "view",
      "type": "function"
    },
    {
      "inputs": [],
      "name": "k",
      "outputs": [
        {
          "internalType": "uint256",
          "name": "",
          "type": "uint256"
        }
      ],
      "stateMutability": "view",
      "type": "function"
    },
    {
      "inputs": [],
      "name": "lockedLimit",
      "outputs": [
        {
          "internalType": "uint256",
          "name": "",
          "type": "uint256"
        }
      ],
      "stateMutability": "view",
      "type": "function"
    },
    {
      "inputs": [],
      "name": "pool",
      "outputs": [
        {
          "internalType": "contract IHegicOperationalTreasury",
          "name": "",
          "type": "address"
        }
      ],
      "stateMutability": "view",
      "type": "function"
    },
    {
      "inputs": [],
      "name": "priceProvider",
      "outputs": [
        {
          "internalType": "contract AggregatorV3Interface",
          "name": "",
          "type": "address"
        }
      ],
      "stateMutability": "view",
      "type": "function"
    },
    {
      "inputs": [],
      "name": "pricer",
      "outputs": [
        {
          "internalType": "contract IPremiumCalculator",
          "name": "",
          "type": "address"
        }
      ],
      "stateMutability": "view",
      "type": "function"
    },
    {
      "inputs": [
        {
          "internalType": "uint256",
          "name": "optionID",
          "type": "uint256"
        }
      ],
      "name": "profitOf",
      "outputs": [
        {
          "internalType": "uint256",
          "name": "amount",
          "type": "uint256"
        }
      ],
      "stateMutability": "view",
      "type": "function"
    },
    {
      "inputs": [
        {
          "internalType": "bytes32",
          "name": "role",
          "type": "bytes32"
        },
        {
          "internalType": "address",
          "name": "account",
          "type": "address"
        }
      ],
      "name": "renounceRole",
      "outputs": [],
      "stateMutability": "nonpayable",
      "type": "function"
    },
    {
      "inputs": [
        {
          "internalType": "bytes32",
          "name": "role",
          "type": "bytes32"
        },
        {
          "internalType": "address",
          "name": "account",
          "type": "address"
        }
      ],
      "name": "revokeRole",
      "outputs": [],
      "stateMutability": "nonpayable",
      "type": "function"
    },
    {
      "inputs": [
        {
          "internalType": "uint256",
          "name": "value",
          "type": "uint256"
        }
      ],
      "name": "setK",
      "outputs": [],
      "stateMutability": "nonpayable",
      "type": "function"
    },
    {
      "inputs": [
        {
          "internalType": "uint256",
          "name": "value",
          "type": "uint256"
        }
      ],
      "name": "setLimit",
      "outputs": [],
      "stateMutability": "nonpayable",
      "type": "function"
    },
    {
      "inputs": [
        {
          "internalType": "contract IPremiumCalculator",
          "name": "value",
          "type": "address"
        }
      ],
      "name": "setPricer",
      "outputs": [],
      "stateMutability": "nonpayable",
      "type": "function"
    },
    {
      "inputs": [
        {
          "internalType": "uint256",
          "name": "",
          "type": "uint256"
        }
      ],
      "name": "strategyData",
      "outputs": [
        {
          "internalType": "uint128",
          "name": "amount",
          "type": "uint128"
        },
        {
          "internalType": "uint128",
          "name": "strike",
          "type": "uint128"
        }
      ],
      "stateMutability": "view",
      "type": "function"
    },
    {
      "inputs": [],
      "name": "strikePercentage",
      "outputs": [
        {
          "internalType": "uint256",
          "name": "",
          "type": "uint256"
        }
      ],
      "stateMutability": "view",
      "type": "function"
    },
    {
      "inputs": [
        {
          "internalType": "bytes4",
          "name": "interfaceId",
          "type": "bytes4"
        }
      ],
      "name": "supportsInterface",
      "outputs": [
        {
          "internalType": "bool",
          "name": "",
          "type": "bool"
        }
      ],
      "stateMutability": "view",
      "type": "function"
    }
  ],
  "transactionHash": "0x1f3848c171d9c495a32a107175243352532d0ba7eef0640b7858a0bd4ddb2eda",
  "args": [
    "0xC0f70b898D017bF7089087E54Fd55D9B8091344D",
    "0x6ce185860a4963106506C203335A2910413708e9",
    "0xb714f5194aB18a5E7B8205a5c8D1530075B188a4",
    8,
    2083000000,
    30,
    0
  ],
  "numDeployments": 1,
  "solcInputHash": "757bafa4a73a0c219bd892c3e1c0b361",
  "bytecode": "0x60e060405260646005553480156200001657600080fd5b506040516200285f3803806200285f8339810160408190526200003991620001f0565b60018055868686600a8688868686868686866200005860003362000116565b600480546001600160a01b0319166001600160a01b038616179055606086811b6001600160601b03199081166080529086901b1660a0526002805460ff191660ff85161790556003829055620000b081600a620002c4565b60c05250620000e994507f03728ba2723a7443a02dd9596321b2e4a79deab016566cd4824a8a479d4a5a37935033925050620001169050565b6007805460ff191660ff9290921691909117905550505060089490945550620003bf975050505050505050565b62000122828262000126565b5050565b620001328282620001ae565b62000122576000828152602081815260408083206001600160a01b03851684529091529020805460ff191660011790556200016a3390565b6001600160a01b0316816001600160a01b0316837f2f8788117e7eff1d82e926ec794901d17c78024a50270940304540a733656f0d60405160405180910390a45050565b6000828152602081815260408083206001600160a01b038516845290915290205460ff165b92915050565b805160ff81168114620001eb57600080fd5b919050565b600080600080600080600060e0888a0312156200020c57600080fd5b87516200021981620003a6565b60208901519097506200022c81620003a6565b60408901519096506200023f81620003a6565b94506200024f60608901620001d9565b93506080880151925060a088015191506200026d60c08901620001d9565b905092959891949750929550565b600181815b80851115620002bc578160001904821115620002a057620002a062000390565b80851615620002ae57918102915b93841c939080029062000280565b509250929050565b6000620002d560ff841683620002dc565b9392505050565b600082620002ed57506001620001d3565b81620002fc57506000620001d3565b8160018114620003155760028114620003205762000340565b6001915050620001d3565b60ff84111562000334576200033462000390565b50506001821b620001d3565b5060208310610133831016604e8410600b841016171562000365575081810a620001d3565b6200037183836200027b565b806000190482111562000388576200038862000390565b029392505050565b634e487b7160e01b600052601160045260246000fd5b6001600160a01b0381168114620003bc57600080fd5b50565b60805160601c60a05160601c60c0516123c26200049d60003960008181610ffe0152818161103d0152818161107c0152818161159d01528181611603015281816119c201528181611a3c01528181611a8f0152611ad401526000818161031001528181610c0701528181611492015261186f0152600081816101c9015281816105d60152818161060701528181610796015281816108f0015281816109d4015281816109f601528181610ae501528181610cda01528181610d6b01528181610dfc01528181610e8d01528181610f5d015261120901526123c26000f3fe608060405234801561001057600080fd5b50600436106101585760003560e01c806391d14854116100c3578063d03d4aee1161007c578063d03d4aee14610332578063d3d5c1211461033a578063d547741f14610343578063d6c8d1b414610356578063da3c1a76146103aa578063dcaf9c44146103bd57600080fd5b806391d14854146102c1578063a217fddf146102d4578063a6138ed9146102dc578063b07f0a41146102ef578063b4f40c6114610302578063b888879e1461030b57600080fd5b80632939037011610115578063293903701461023b5780632f2ff15d1461024e57806336568abe1461026157806367de8be9146102745780637632bffb146102875780638f0c11401461029a57600080fd5b806301ffc9a71461015d57806302d7b5361461018557806310ca5c0f146101ad57806316f0115b146101c4578063248a9ca31461020357806327ea6f2b14610226575b600080fd5b61017061016b366004611e87565b6103dc565b60405190151581526020015b60405180910390f35b610198610193366004611f60565b610413565b6040805192835260208301919091520161017c565b6101b660085481565b60405190815260200161017c565b6101eb7f000000000000000000000000000000000000000000000000000000000000000081565b6040516001600160a01b03909116815260200161017c565b6101b6610211366004611e3e565b60009081526020819052604090206001015490565b610239610234366004611e3e565b610452565b005b610239610249366004611eb1565b61049a565b61023961025c366004611e57565b6104c9565b61023961026f366004611e57565b6104f4565b610239610282366004611e3e565b610577565b6101b6610295366004611e3e565b610589565b6101b67f03728ba2723a7443a02dd9596321b2e4a79deab016566cd4824a8a479d4a5a3781565b6101706102cf366004611e57565b610594565b6101b6600081565b6004546101eb906001600160a01b031681565b6102396102fd366004611e3e565b6105bd565b6101b660055481565b6101eb7f000000000000000000000000000000000000000000000000000000000000000081565b6101b661077e565b6101b660035481565b610239610351366004611e57565b61081d565b61038a610364366004611e3e565b6006602052600090815260409020546001600160801b0380821691600160801b90041682565b604080516001600160801b0393841681529290911660208301520161017c565b6101b66103b8366004611dcb565b610843565b6002546103ca9060ff1681565b60405160ff909116815260200161017c565b60006001600160e01b03198216637965db0b60e01b148061040d57506301ffc9a760e01b6001600160e01b03198316145b92915050565b6000808261042657610423610c02565b92505b610431858585610ca1565b6001600160801b0316925061044890508584610cd5565b9050935093915050565b600061045e81336110b5565b60038290556040518281527f479881bf41e329f328c21c2cbb11514b05a021cd33ea4e5a576ea6bc03874fd69060200160405180910390a15050565b60006104a681336110b5565b50600480546001600160a01b0319166001600160a01b0392909216919091179055565b6000828152602081905260409020600101546104e581336110b5565b6104ef8383611119565b505050565b6001600160a01b03811633146105695760405162461bcd60e51b815260206004820152602f60248201527f416363657373436f6e74726f6c3a2063616e206f6e6c792072656e6f756e636560448201526e103937b632b9903337b91039b2b63360891b60648201526084015b60405180910390fd5b610573828261119d565b5050565b600061058381336110b5565b50600555565b600061040d82611202565b6000918252602082815260408084206001600160a01b0393909316845291905290205460ff1690565b6105c6816112e0565b5060006105d282611202565b90507f00000000000000000000000000000000000000000000000000000000000000006001600160a01b0316638127f0a183837f00000000000000000000000000000000000000000000000000000000000000006001600160a01b031663481c6a756040518163ffffffff1660e01b815260040160206040518083038186803b15801561065e57600080fd5b505afa158015610672573d6000803e3d6000fd5b505050506040513d601f19601f820116820180604052508101906106969190611dae565b6001600160a01b0316636352211e876040518263ffffffff1660e01b81526004016106c391815260200190565b60206040518083038186803b1580156106db57600080fd5b505afa1580156106ef573d6000803e3d6000fd5b505050506040513d601f19601f820116820180604052508101906107139190611dae565b6040516001600160e01b031960e086901b168152600481019390935260248301919091526001600160a01b03166044820152606401600060405180830381600087803b15801561076257600080fd5b505af1158015610776573d6000803e3d6000fd5b505050505050565b604051634485558360e01b81523060048201526000907f00000000000000000000000000000000000000000000000000000000000000006001600160a01b03169063448555839060240160206040518083038186803b1580156107e057600080fd5b505afa1580156107f4573d6000803e3d6000fd5b505050506040513d601f19601f820116820180604052508101906108189190611f47565b905090565b60008281526020819052604090206001015461083981336110b5565b6104ef838361119d565b6000600260015414156108985760405162461bcd60e51b815260206004820152601f60248201527f5265656e7472616e637947756172643a207265656e7472616e742063616c6c006044820152606401610560565b6002600155816108ad576108aa610c02565b91505b6000806108bb868686610ca1565b600354604051634485558360e01b81523060048201529294506001600160801b03918216935091908416906001600160a01b037f0000000000000000000000000000000000000000000000000000000000000000169063448555839060240160206040518083038186803b15801561093257600080fd5b505afa158015610946573d6000803e3d6000fd5b505050506040513d601f19601f8201168201806040525081019061096a9190611f47565b6109749190612103565b11156109ce5760405162461bcd60e51b8152602060048201526024808201527f486567696353747261746567793a20546865206c696d697420697320657863656044820152631959195960e21b6064820152608401610560565b610a96337f0000000000000000000000000000000000000000000000000000000000000000837f00000000000000000000000000000000000000000000000000000000000000006001600160a01b031663fc0c546a6040518163ffffffff1660e01b815260040160206040518083038186803b158015610a4d57600080fd5b505afa158015610a61573d6000803e3d6000fd5b505050506040513d601f19601f82011682018060405250810190610a859190611dae565b6001600160a01b031692919061137b565b6000610aa863ffffffff881642612103565b60405163d6a6367760e01b81526001600160a01b038a811660048301526001600160801b038616602483015263ffffffff831660448301529192507f00000000000000000000000000000000000000000000000000000000000000009091169063d6a6367790606401602060405180830381600087803b158015610b2b57600080fd5b505af1158015610b3f573d6000803e3d6000fd5b505050506040513d601f19601f82011682018060405250810190610b639190611f47565b6040805180820182526001600160801b038981168083528982166020808501918252600087815260068252869020945191518416600160801b0291909316179092558251918252810185905290810187905263ffffffff8316606082015290945084907f1cc09915b693fed5c1f699371120d74d3bf06b9f2392d13cd6b001437f3725069060800160405180910390a250506001805550949350505050565b6000807f00000000000000000000000000000000000000000000000000000000000000006001600160a01b031663feaf968c6040518163ffffffff1660e01b815260040160a06040518083038186803b158015610c5e57600080fd5b505afa158015610c72573d6000803e3d6000fd5b505050506040513d601f19601f82011682018060405250810190610c969190611fa1565b509195945050505050565b600080610caf8585856113db565b91506000610cbe86868661148d565b9050610cca838261223c565b915050935093915050565b6000807f00000000000000000000000000000000000000000000000000000000000000006001600160a01b031663797be55e6040518163ffffffff1660e01b815260040160206040518083038186803b158015610d3157600080fd5b505afa158015610d45573d6000803e3d6000fd5b505050506040513d601f19601f82011682018060405250810190610d699190611f47565b7f00000000000000000000000000000000000000000000000000000000000000006001600160a01b031663568914126040518163ffffffff1660e01b815260040160206040518083038186803b158015610dc257600080fd5b505afa158015610dd6573d6000803e3d6000fd5b505050506040513d601f19601f82011682018060405250810190610dfa9190611f47565b7f00000000000000000000000000000000000000000000000000000000000000006001600160a01b031663ad7a672f6040518163ffffffff1660e01b815260040160206040518083038186803b158015610e5357600080fd5b505afa158015610e67573d6000803e3d6000fd5b505050506040513d601f19601f82011682018060405250810190610e8b9190611f47565b7f00000000000000000000000000000000000000000000000000000000000000006001600160a01b03166346067d696040518163ffffffff1660e01b815260040160206040518083038186803b158015610ee457600080fd5b505afa158015610ef8573d6000803e3d6000fd5b505050506040513d601f19601f82011682018060405250810190610f1c9190611f47565b610f269190612103565b610f309190612264565b610f3a9190612264565b604051634485558360e01b81523060048201529091506000906001600160a01b037f0000000000000000000000000000000000000000000000000000000000000000169063448555839060240160206040518083038186803b158015610f9f57600080fd5b505afa158015610fb3573d6000803e3d6000fd5b505050506040513d601f19601f82011682018060405250810190610fd79190611f47565b600354610fe49190612264565b905083610ff657610ff3610c02565b93505b6000611023867f000000000000000000000000000000000000000000000000000000000000000087610ca1565b506001600160801b031690508282111561107657806110627f00000000000000000000000000000000000000000000000000000000000000008561221d565b61106c919061211b565b935050505061040d565b806110a17f00000000000000000000000000000000000000000000000000000000000000008461221d565b6110ab919061211b565b9695505050505050565b6110bf8282610594565b610573576110d7816001600160a01b0316601461168d565b6110e283602061168d565b6040516020016110f3929190612030565b60408051601f198184030181529082905262461bcd60e51b8252610560916004016120a5565b6111238282610594565b610573576000828152602081815260408083206001600160a01b03851684529091529020805460ff191660011790556111593390565b6001600160a01b0316816001600160a01b0316837f2f8788117e7eff1d82e926ec794901d17c78024a50270940304540a733656f0d60405160405180910390a45050565b6111a78282610594565b15610573576000828152602081815260408083206001600160a01b0385168085529252808320805460ff1916905551339285917ff6391f5c32d9c69d2a47ea670b442974b53935d1edc7fd64eb21e047a839171b9190a45050565b60008060007f00000000000000000000000000000000000000000000000000000000000000006001600160a01b0316633755269b856040518263ffffffff1660e01b815260040161125591815260200190565b60a06040518083038186803b15801561126d57600080fd5b505afa158015611281573d6000803e3d6000fd5b505050506040513d601f19601f820116820180604052508101906112a59190611ece565b5093509350505060006112b785611829565b9050806112c484846120d8565b6001600160801b03166112d79190612264565b95945050505050565b60007f03728ba2723a7443a02dd9596321b2e4a79deab016566cd4824a8a479d4a5a3761130d81336110b5565b600061131884611829565b9050600081116113745760405162461bcd60e51b815260206004820152602160248201527f486567696353747261746567793a205468652070726f666974206973207a65726044820152606f60f81b6064820152608401610560565b5050919050565b604080516001600160a01b0385811660248301528416604482015260648082018490528251808303909101815260849091019091526020810180516001600160e01b03166323b872dd60e01b1790526113d5908590611b17565b50505050565b6000816113ed576113ea610c02565b91505b6004805460405163055bc75d60e21b815263ffffffff8716928101929092526001600160801b0385166024830152604482018490526001600160a01b03169063156f1d749060640160206040518083038186803b15801561144d57600080fd5b505afa158015611461573d6000803e3d6000fd5b505050506040513d601f19601f820116820180604052508101906114859190611f47565b949350505050565b6000807f00000000000000000000000000000000000000000000000000000000000000006001600160a01b031663313ce5676040518163ffffffff1660e01b815260040160206040518083038186803b1580156114e957600080fd5b505afa1580156114fd573d6000803e3d6000fd5b505050506040513d601f19601f820116820180604052508101906115219190611ff1565b61152c90600a612172565b600754600854919250849160009161156b9160ff909116906064906115519082612103565b61155b908661221d565b611565919061211b565b90611be9565b6007546008549192506000916115969160ff169060649061158c9082612264565b61155b908761221d565b90506000847f0000000000000000000000000000000000000000000000000000000000000000620f42406001600160801b038b166115d48888612264565b6115de919061221d565b6115e8919061221d565b6115f2919061211b565b6115fc919061211b565b90506000857f0000000000000000000000000000000000000000000000000000000000000000620f42406001600160801b038c1661163a878a612264565b611644919061221d565b61164e919061221d565b611658919061211b565b611662919061211b565b905080821115611679575094506116869350505050565b9550611686945050505050565b9392505050565b6060600061169c83600261221d565b6116a7906002612103565b67ffffffffffffffff8111156116bf576116bf612337565b6040519080825280601f01601f1916602001820160405280156116e9576020820181803683370190505b509050600360fc1b8160008151811061170457611704612321565b60200101906001600160f81b031916908160001a905350600f60fb1b8160018151811061173357611733612321565b60200101906001600160f81b031916908160001a905350600061175784600261221d565b611762906001612103565b90505b60018111156117da576f181899199a1a9b1b9c1cb0b131b232b360811b85600f166010811061179657611796612321565b1a60f81b8282815181106117ac576117ac612321565b60200101906001600160f81b031916908160001a90535060049490941c936117d3816122ca565b9050611765565b5083156116865760405162461bcd60e51b815260206004820181905260248201527f537472696e67733a20686578206c656e67746820696e73756666696369656e746044820152606401610560565b60008181526006602090815260408083208151808301909252546001600160801b038082168352600160801b909104169181019190915281611869610c02565b905060007f00000000000000000000000000000000000000000000000000000000000000006001600160a01b031663313ce5676040518163ffffffff1660e01b815260040160206040518083038186803b1580156118c657600080fd5b505afa1580156118da573d6000803e3d6000fd5b505050506040513d601f19601f820116820180604052508101906118fe9190611ff1565b61190990600a612172565b60208401519091506001600160801b03168281141561196a5760405162461bcd60e51b815260206004820152601e60248201527f496e76616c696420737472696b65203d2043757272656e7420707269636500006044820152606401610560565b60075460085460009161198a9160ff909116906064906115519082612103565b6007546008549192506000916119ab9160ff169060649061158c9082612264565b905082851115611a7957818511611a2e57855184907f000000000000000000000000000000000000000000000000000000000000000090620f4240906001600160801b03166119fa878a612264565b611a04919061221d565b611a0e919061221d565b611a18919061211b565b611a22919061211b565b98975050505050505050565b81851115611a7457855184907f000000000000000000000000000000000000000000000000000000000000000090620f4240906001600160801b03166119fa8787612264565b611b0c565b82851015611b0c5780851115611ac757855184907f000000000000000000000000000000000000000000000000000000000000000090620f4240906001600160801b03166119fa8988612264565b808511611b0c57855184907f000000000000000000000000000000000000000000000000000000000000000090620f4240906001600160801b03166119fa8588612264565b505050505050919050565b6000611b6c826040518060400160405280602081526020017f5361666545524332303a206c6f772d6c6576656c2063616c6c206661696c6564815250856001600160a01b0316611c849092919063ffffffff16565b8051909150156104ef5780806020019051810190611b8a9190611e1c565b6104ef5760405162461bcd60e51b815260206004820152602a60248201527f5361666545524332303a204552433230206f7065726174696f6e20646964206e6044820152691bdd081cdd58d8d9595960b21b6064820152608401610560565b600060ff8216611bfa57508161040d565b6000611c0760018461227b565b611c1290600a612172565b611c1c908561211b565b90506005611c2b600a836122e1565b1015611c5957611c3c83600a612172565b611c47600a8361211b565b611c51919061221d565b91505061040d565b611c6483600a612172565b611c6f600a8361211b565b611c7a906001612103565b611485919061221d565b6060611485848460008585843b611cdd5760405162461bcd60e51b815260206004820152601d60248201527f416464726573733a2063616c6c20746f206e6f6e2d636f6e74726163740000006044820152606401610560565b600080866001600160a01b03168587604051611cf99190612014565b60006040518083038185875af1925050503d8060008114611d36576040519150601f19603f3d011682016040523d82523d6000602084013e611d3b565b606091505b5091509150611d4b828286611d56565b979650505050505050565b60608315611d65575081611686565b825115611d755782518084602001fd5b8160405162461bcd60e51b815260040161056091906120a5565b805169ffffffffffffffffffff81168114611da957600080fd5b919050565b600060208284031215611dc057600080fd5b81516116868161234d565b60008060008060808587031215611de157600080fd5b8435611dec8161234d565b93506020850135611dfc8161237a565b92506040850135611e0c81612365565b9396929550929360600135925050565b600060208284031215611e2e57600080fd5b8151801515811461168657600080fd5b600060208284031215611e5057600080fd5b5035919050565b60008060408385031215611e6a57600080fd5b823591506020830135611e7c8161234d565b809150509250929050565b600060208284031215611e9957600080fd5b81356001600160e01b03198116811461168657600080fd5b600060208284031215611ec357600080fd5b81356116868161234d565b600080600080600060a08688031215611ee657600080fd5b855160028110611ef557600080fd5b6020870151909550611f068161234d565b6040870151909450611f1781612365565b6060870151909350611f2881612365565b6080870151909250611f398161237a565b809150509295509295909350565b600060208284031215611f5957600080fd5b5051919050565b600080600060608486031215611f7557600080fd5b8335611f808161237a565b92506020840135611f9081612365565b929592945050506040919091013590565b600080600080600060a08688031215611fb957600080fd5b611fc286611d8f565b9450602086015193506040860151925060608601519150611fe560808701611d8f565b90509295509295909350565b60006020828403121561200357600080fd5b815160ff8116811461168657600080fd5b6000825161202681846020870161229e565b9190910192915050565b7f416363657373436f6e74726f6c3a206163636f756e742000000000000000000081526000835161206881601785016020880161229e565b7001034b99036b4b9b9b4b733903937b6329607d1b601791840191820152835161209981602884016020880161229e565b01602801949350505050565b60208152600082518060208401526120c481604085016020870161229e565b601f01601f19169190910160400192915050565b60006001600160801b038083168185168083038211156120fa576120fa6122f5565b01949350505050565b60008219821115612116576121166122f5565b500190565b60008261212a5761212a61230b565b500490565b600181815b8085111561216a578160001904821115612150576121506122f5565b8085161561215d57918102915b93841c9390800290612134565b509250929050565b600061168660ff84168360008261218b5750600161040d565b816121985750600061040d565b81600181146121ae57600281146121b8576121d4565b600191505061040d565b60ff8411156121c9576121c96122f5565b50506001821b61040d565b5060208310610133831016604e8410600b84101617156121f7575081810a61040d565b612201838361212f565b8060001904821115612215576122156122f5565b029392505050565b6000816000190483118215151615612237576122376122f5565b500290565b60006001600160801b038381169083168181101561225c5761225c6122f5565b039392505050565b600082821015612276576122766122f5565b500390565b600060ff821660ff841680821015612295576122956122f5565b90039392505050565b60005b838110156122b95781810151838201526020016122a1565b838111156113d55750506000910152565b6000816122d9576122d96122f5565b506000190190565b6000826122f0576122f061230b565b500690565b634e487b7160e01b600052601160045260246000fd5b634e487b7160e01b600052601260045260246000fd5b634e487b7160e01b600052603260045260246000fd5b634e487b7160e01b600052604160045260246000fd5b6001600160a01b038116811461236257600080fd5b50565b6001600160801b038116811461236257600080fd5b63ffffffff8116811461236257600080fdfea2646970667358221220f6c73cbd940a109114730f959906f5971fb93ce4be5ed1350c41f6a18f7a268d64736f6c63430008060033",
  "devdoc": {
    "kind": "dev",
    "methods": {
      "buy(address,uint32,uint128,uint256)": {
        "params": {
          "amount": "The option/strategy amount",
          "holder": "The holder address",
          "period": "The option/strategy period",
          "strike": "The option/strategy strike*"
        }
      },
      "exercise(uint256)": {
        "params": {
          "optionID": "The option/strategy ID*"
        }
      },
      "getRoleAdmin(bytes32)": {
        "details": "Returns the admin role that controls `role`. See {grantRole} and {revokeRole}. To change a role's admin, use {_setRoleAdmin}."
      },
      "grantRole(bytes32,address)": {
        "details": "Grants `role` to `account`. If `account` had not been already granted `role`, emits a {RoleGranted} event. Requirements: - the caller must have ``role``'s admin role."
      },
      "hasRole(bytes32,address)": {
        "details": "Returns `true` if `account` has been granted `role`."
      },
      "profitOf(uint256)": {
        "params": {
          "amount": "The unrealized profits amount*",
          "optionID": "The option/strategy ID"
        }
      },
      "renounceRole(bytes32,address)": {
        "details": "Revokes `role` from the calling account. Roles are often managed via {grantRole} and {revokeRole}: this function's purpose is to provide a mechanism for accounts to lose their privileges if they are compromised (such as when a trusted device is misplaced). If the calling account had been granted `role`, emits a {RoleRevoked} event. Requirements: - the caller must be `account`."
      },
      "revokeRole(bytes32,address)": {
        "details": "Revokes `role` from `account`. If `account` had been granted `role`, emits a {RoleRevoked} event. Requirements: - the caller must have ``role``'s admin role."
      },
      "setK(uint256)": {
        "params": {
          "value": "The collateralization coefficient*"
        }
      },
      "setLimit(uint256)": {
        "params": {
          "value": "The maximum locked liquidity*"
        }
      },
      "supportsInterface(bytes4)": {
        "details": "See {IERC165-supportsInterface}."
      }
    },
    "version": 1
  },
  "userdoc": {
    "kind": "user",
    "methods": {
      "buy(address,uint32,uint128,uint256)": {
        "notice": "Used for buying options/strategies"
      },
      "exercise(uint256)": {
        "notice": "Used for exercising an in-the-money option/strategy and taking profits"
      },
      "getLockedByStrategy()": {
        "notice": "Used for viewing the total liquidity locked up for a specific options strategy*"
      },
      "profitOf(uint256)": {
        "notice": "Used for calculating the holder's option/strategy unrealized profits"
      },
      "setK(uint256)": {
        "notice": "Used for setting the collateralization coefficient"
      },
      "setLimit(uint256)": {
        "notice": "Used for setting a limit on the total locked liquidity"
      }
    },
    "version": 1
  },
  "storageLayout": {
    "storage": [
      {
        "astId": 238,
        "contract": "contracts/Strategies/HegicStrategyInverseLongButterfly.sol:HegicStrategyInverseLongButterfly",
        "label": "_roles",
        "offset": 0,
        "slot": "0",
        "type": "t_mapping(t_bytes32,t_struct(RoleData)233_storage)"
      },
      {
        "astId": 940,
        "contract": "contracts/Strategies/HegicStrategyInverseLongButterfly.sol:HegicStrategyInverseLongButterfly",
        "label": "_status",
        "offset": 0,
        "slot": "1",
        "type": "t_uint256"
      },
      {
        "astId": 15266,
        "contract": "contracts/Strategies/HegicStrategyInverseLongButterfly.sol:HegicStrategyInverseLongButterfly",
        "label": "collateralizationRatio",
        "offset": 0,
        "slot": "2",
        "type": "t_uint8"
      },
      {
        "astId": 15269,
        "contract": "contracts/Strategies/HegicStrategyInverseLongButterfly.sol:HegicStrategyInverseLongButterfly",
        "label": "lockedLimit",
        "offset": 0,
        "slot": "3",
        "type": "t_uint256"
      },
      {
        "astId": 15272,
        "contract": "contracts/Strategies/HegicStrategyInverseLongButterfly.sol:HegicStrategyInverseLongButterfly",
        "label": "pricer",
        "offset": 0,
        "slot": "4",
        "type": "t_contract(IPremiumCalculator)6519"
      },
      {
        "astId": 15280,
        "contract": "contracts/Strategies/HegicStrategyInverseLongButterfly.sol:HegicStrategyInverseLongButterfly",
        "label": "k",
        "offset": 0,
        "slot": "5",
        "type": "t_uint256"
      },
      {
        "astId": 15290,
        "contract": "contracts/Strategies/HegicStrategyInverseLongButterfly.sol:HegicStrategyInverseLongButterfly",
        "label": "strategyData",
        "offset": 0,
        "slot": "6",
        "type": "t_mapping(t_uint256,t_struct(StrategyData)15285_storage)"
      },
      {
        "astId": 15094,
        "contract": "contracts/Strategies/HegicStrategyInverseLongButterfly.sol:HegicStrategyInverseLongButterfly",
        "label": "roundedDecimals",
        "offset": 0,
        "slot": "7",
        "type": "t_uint8"
      },
      {
        "astId": 16363,
        "contract": "contracts/Strategies/HegicStrategyInverseLongButterfly.sol:HegicStrategyInverseLongButterfly",
        "label": "strikePercentage",
        "offset": 0,
        "slot": "8",
        "type": "t_uint256"
      }
    ],
    "types": {
      "t_address": {
        "encoding": "inplace",
        "label": "address",
        "numberOfBytes": "20"
      },
      "t_bool": {
        "encoding": "inplace",
        "label": "bool",
        "numberOfBytes": "1"
      },
      "t_bytes32": {
        "encoding": "inplace",
        "label": "bytes32",
        "numberOfBytes": "32"
      },
      "t_contract(IPremiumCalculator)6519": {
        "encoding": "inplace",
        "label": "contract IPremiumCalculator",
        "numberOfBytes": "20"
      },
      "t_mapping(t_address,t_bool)": {
        "encoding": "mapping",
        "key": "t_address",
        "label": "mapping(address => bool)",
        "numberOfBytes": "32",
        "value": "t_bool"
      },
      "t_mapping(t_bytes32,t_struct(RoleData)233_storage)": {
        "encoding": "mapping",
        "key": "t_bytes32",
        "label": "mapping(bytes32 => struct AccessControl.RoleData)",
        "numberOfBytes": "32",
        "value": "t_struct(RoleData)233_storage"
      },
      "t_mapping(t_uint256,t_struct(StrategyData)15285_storage)": {
        "encoding": "mapping",
        "key": "t_uint256",
        "label": "mapping(uint256 => struct HegicStrategy.StrategyData)",
        "numberOfBytes": "32",
        "value": "t_struct(StrategyData)15285_storage"
      },
      "t_struct(RoleData)233_storage": {
        "encoding": "inplace",
        "label": "struct AccessControl.RoleData",
        "members": [
          {
            "astId": 230,
            "contract": "contracts/Strategies/HegicStrategyInverseLongButterfly.sol:HegicStrategyInverseLongButterfly",
            "label": "members",
            "offset": 0,
            "slot": "0",
            "type": "t_mapping(t_address,t_bool)"
          },
          {
            "astId": 232,
            "contract": "contracts/Strategies/HegicStrategyInverseLongButterfly.sol:HegicStrategyInverseLongButterfly",
            "label": "adminRole",
            "offset": 0,
            "slot": "1",
            "type": "t_bytes32"
          }
        ],
        "numberOfBytes": "64"
      },
      "t_struct(StrategyData)15285_storage": {
        "encoding": "inplace",
        "label": "struct HegicStrategy.StrategyData",
        "members": [
          {
            "astId": 15282,
            "contract": "contracts/Strategies/HegicStrategyInverseLongButterfly.sol:HegicStrategyInverseLongButterfly",
            "label": "amount",
            "offset": 0,
            "slot": "0",
            "type": "t_uint128"
          },
          {
            "astId": 15284,
            "contract": "contracts/Strategies/HegicStrategyInverseLongButterfly.sol:HegicStrategyInverseLongButterfly",
            "label": "strike",
            "offset": 16,
            "slot": "0",
            "type": "t_uint128"
          }
        ],
        "numberOfBytes": "32"
      },
      "t_uint128": {
        "encoding": "inplace",
        "label": "uint128",
        "numberOfBytes": "16"
      },
      "t_uint256": {
        "encoding": "inplace",
        "label": "uint256",
        "numberOfBytes": "32"
      },
      "t_uint8": {
        "encoding": "inplace",
        "label": "uint8",
        "numberOfBytes": "1"
      }
    }
  }
}