{
  "address": "0x7548D504f387456F775bBc9aF0eF4327CeD2A8d9",
  "abi": [
    {
      "inputs": [
        {
          "internalType": "contract IHegicOperationalTreasury",
          "name": "_pool",
          "type": "address"
        },
        {
          "internalType": "contract AggregatorV3Interface",
          "name": "_priceProvider",
          "type": "address"
        },
        {
          "internalType": "contract IPremiumCalculator",
          "name": "_pricer",
          "type": "address"
        },
        {
          "internalType": "uint8",
          "name": "_spotDecimals",
          "type": "uint8"
        },
        {
          "internalType": "uint256",
          "name": "limit",
          "type": "uint256"
        }
      ],
      "stateMutability": "nonpayable",
      "type": "constructor"
    },
    {
      "anonymous": false,
      "inputs": [
        {
          "indexed": true,
          "internalType": "uint256",
          "name": "id",
          "type": "uint256"
        },
        {
          "indexed": false,
          "internalType": "uint256",
          "name": "amount",
          "type": "uint256"
        },
        {
          "indexed": false,
          "internalType": "uint256",
          "name": "premium",
          "type": "uint256"
        },
        {
          "indexed": false,
          "internalType": "uint256",
          "name": "strike",
          "type": "uint256"
        },
        {
          "indexed": false,
          "internalType": "uint32",
          "name": "expiration",
          "type": "uint32"
        }
      ],
      "name": "Acquired",
      "type": "event"
    },
    {
      "anonymous": false,
      "inputs": [
        {
          "indexed": true,
          "internalType": "address",
          "name": "previousOwner",
          "type": "address"
        },
        {
          "indexed": true,
          "internalType": "address",
          "name": "newOwner",
          "type": "address"
        }
      ],
      "name": "OwnershipTransferred",
      "type": "event"
    },
    {
      "anonymous": false,
      "inputs": [
        {
          "indexed": false,
          "internalType": "uint256",
          "name": "limit",
          "type": "uint256"
        }
      ],
      "name": "SetLimit",
      "type": "event"
    },
    {
      "inputs": [
        {
          "internalType": "address",
          "name": "holder",
          "type": "address"
        },
        {
          "internalType": "uint32",
          "name": "period",
          "type": "uint32"
        },
        {
          "internalType": "uint128",
          "name": "amount",
          "type": "uint128"
        },
        {
          "internalType": "uint256",
          "name": "strike",
          "type": "uint256"
        }
      ],
      "name": "buy",
      "outputs": [
        {
          "internalType": "uint256",
          "name": "id",
          "type": "uint256"
        }
      ],
      "stateMutability": "nonpayable",
      "type": "function"
    },
    {
      "inputs": [
        {
          "internalType": "uint32",
          "name": "period",
          "type": "uint32"
        },
        {
          "internalType": "uint256",
          "name": "amount",
          "type": "uint256"
        },
        {
          "internalType": "uint256",
          "name": "strike",
          "type": "uint256"
        }
      ],
      "name": "calculatePremium",
      "outputs": [
        {
          "internalType": "uint256",
          "name": "premium",
          "type": "uint256"
        },
        {
          "internalType": "uint256",
          "name": "available",
          "type": "uint256"
        }
      ],
      "stateMutability": "view",
      "type": "function"
    },
    {
      "inputs": [],
      "name": "collateralizationRatio",
      "outputs": [
        {
          "internalType": "uint8",
          "name": "",
          "type": "uint8"
        }
      ],
      "stateMutability": "view",
      "type": "function"
    },
    {
      "inputs": [
        {
          "internalType": "uint256",
          "name": "optionID",
          "type": "uint256"
        }
      ],
      "name": "exercise",
      "outputs": [],
      "stateMutability": "nonpayable",
      "type": "function"
    },
    {
      "inputs": [],
      "name": "getLockedByStrategy",
      "outputs": [
        {
          "internalType": "uint256",
          "name": "amount",
          "type": "uint256"
        }
      ],
      "stateMutability": "view",
      "type": "function"
    },
    {
      "inputs": [],
      "name": "k",
      "outputs": [
        {
          "internalType": "uint256",
          "name": "",
          "type": "uint256"
        }
      ],
      "stateMutability": "view",
      "type": "function"
    },
    {
      "inputs": [],
      "name": "lockedLimit",
      "outputs": [
        {
          "internalType": "uint256",
          "name": "",
          "type": "uint256"
        }
      ],
      "stateMutability": "view",
      "type": "function"
    },
    {
      "inputs": [],
      "name": "owner",
      "outputs": [
        {
          "internalType": "address",
          "name": "",
          "type": "address"
        }
      ],
      "stateMutability": "view",
      "type": "function"
    },
    {
      "inputs": [],
      "name": "pool",
      "outputs": [
        {
          "internalType": "contract IHegicOperationalTreasury",
          "name": "",
          "type": "address"
        }
      ],
      "stateMutability": "view",
      "type": "function"
    },
    {
      "inputs": [],
      "name": "priceProvider",
      "outputs": [
        {
          "internalType": "contract AggregatorV3Interface",
          "name": "",
          "type": "address"
        }
      ],
      "stateMutability": "view",
      "type": "function"
    },
    {
      "inputs": [],
      "name": "pricer",
      "outputs": [
        {
          "internalType": "contract IPremiumCalculator",
          "name": "",
          "type": "address"
        }
      ],
      "stateMutability": "view",
      "type": "function"
    },
    {
      "inputs": [
        {
          "internalType": "uint256",
          "name": "optionID",
          "type": "uint256"
        }
      ],
      "name": "profitOf",
      "outputs": [
        {
          "internalType": "uint256",
          "name": "amount",
          "type": "uint256"
        }
      ],
      "stateMutability": "view",
      "type": "function"
    },
    {
      "inputs": [],
      "name": "renounceOwnership",
      "outputs": [],
      "stateMutability": "nonpayable",
      "type": "function"
    },
    {
      "inputs": [
        {
          "internalType": "uint256",
          "name": "value",
          "type": "uint256"
        }
      ],
      "name": "setK",
      "outputs": [],
      "stateMutability": "nonpayable",
      "type": "function"
    },
    {
      "inputs": [
        {
          "internalType": "uint256",
          "name": "value",
          "type": "uint256"
        }
      ],
      "name": "setLimit",
      "outputs": [],
      "stateMutability": "nonpayable",
      "type": "function"
    },
    {
      "inputs": [
        {
          "internalType": "uint256",
          "name": "",
          "type": "uint256"
        }
      ],
      "name": "strategyData",
      "outputs": [
        {
          "internalType": "uint128",
          "name": "amount",
          "type": "uint128"
        },
        {
          "internalType": "uint128",
          "name": "strike",
          "type": "uint128"
        }
      ],
      "stateMutability": "view",
      "type": "function"
    },
    {
      "inputs": [
        {
          "internalType": "address",
          "name": "newOwner",
          "type": "address"
        }
      ],
      "name": "transferOwnership",
      "outputs": [],
      "stateMutability": "nonpayable",
      "type": "function"
    }
  ],
  "transactionHash": "0x1ca869279bbad0f78194620133766534cab2f78f6b74c9ef4494c5edf546fb37",
  "args": [
    "0xB0F9F032158510cd4a926F9263Abc86bAF7b4Ab3",
    "0x639Fe6ab55C921f74e7fac1ee960C0B6293ba612",
    "0xa18EAcf73E19622540D8C9416209c24EC85dc0F2",
    18,
    33333000000
  ],
  "solcInputHash": "cf4e4c7998a92093cd32c504d552dff0",
  "bytecode": "0x60e060405260646003553480156200001657600080fd5b5060405162001b8d38038062001b8d833981016040819052620000399162000111565b848484600a84866200004b33620000c1565b600280546001600160a01b0319166001600160a01b038616179055606086811b6001600160601b03199081166080529086901b1660a0526000805460ff60a01b1916600160a01b60ff8616021790556001829055620000ac81600a620001d3565b60c05250620002d09950505050505050505050565b600080546001600160a01b038381166001600160a01b0319831681178455604051919092169283917f8be0079c531659141344cd1fd0a4f28419497f9722a3daafe3b4186f6b6457e09190a35050565b600080600080600060a086880312156200012a57600080fd5b85516200013781620002b7565b60208701519095506200014a81620002b7565b60408701519094506200015d81620002b7565b606087015190935060ff811681146200017557600080fd5b80925050608086015190509295509295909350565b600181815b80851115620001cb578160001904821115620001af57620001af620002a1565b80851615620001bd57918102915b93841c93908002906200018f565b509250929050565b6000620001e460ff841683620001eb565b9392505050565b600082620001fc575060016200029b565b816200020b575060006200029b565b81600181146200022457600281146200022f576200024f565b60019150506200029b565b60ff841115620002435762000243620002a1565b50506001821b6200029b565b5060208310610133831016604e8410600b841016171562000274575081810a6200029b565b6200028083836200018a565b8060001904821115620002975762000297620002a1565b0290505b92915050565b634e487b7160e01b600052601160045260246000fd5b6001600160a01b0381168114620002cd57600080fd5b50565b60805160601c60a05160601c60c0516118096200038460003960008181611072015281816110b1015281816110f0015261127d015260008181610212015281816111de01526112fd01526000818161011501528181610402015281816105d60152818161060701528181610796015281816108890152818161096901528181610a1501528181610af201528181610d4f01528181610de001528181610e7101528181610f020152610fd201526118096000f3fe608060405234801561001057600080fd5b506004361061010b5760003560e01c8063b07f0a41116100a2578063d3d5c12111610071578063d3d5c1211461023c578063d6c8d1b414610245578063da3c1a7614610299578063dcaf9c44146102ac578063f2fde38b146102d257600080fd5b8063b07f0a41146101f1578063b4f40c6114610204578063b888879e1461020d578063d03d4aee1461023457600080fd5b8063715018a6116100de578063715018a6146101a45780637632bffb146101ac5780638da5cb5b146101cd578063a6138ed9146101de57600080fd5b806316f0115b1461011057806327ea6f2b14610154578063370a6ae61461016957806367de8be914610191575b600080fd5b6101377f000000000000000000000000000000000000000000000000000000000000000081565b6040516001600160a01b0390911681526020015b60405180910390f35b61016761016236600461153d565b6102e5565b005b61017c61017736600461156f565b610353565b6040805192835260208301919091520161014b565b61016761019f36600461153d565b61037d565b6101676103ac565b6101bf6101ba36600461153d565b6103e2565b60405190815260200161014b565b6000546001600160a01b0316610137565b600254610137906001600160a01b031681565b6101676101ff36600461153d565b6103f3565b6101bf60035481565b6101377f000000000000000000000000000000000000000000000000000000000000000081565b6101bf61077e565b6101bf60015481565b61027961025336600461153d565b6004602052600090815260409020546001600160801b0380821691600160801b90041682565b604080516001600160801b0393841681529290911660208301520161014b565b6101bf6102a73660046114c0565b61081d565b6000546102c090600160a01b900460ff1681565b60405160ff909116815260200161014b565b6101676102e036600461147f565b610c0b565b6000546001600160a01b031633146103185760405162461bcd60e51b815260040161030f90611615565b60405180910390fd5b60018190556040518181527f479881bf41e329f328c21c2cbb11514b05a021cd33ea4e5a576ea6bc03874fd69060200160405180910390a150565b6000806103678563ffffffff168585610ca6565b91506103738584610d4a565b9050935093915050565b6000546001600160a01b031633146103a75760405162461bcd60e51b815260040161030f90611615565b600355565b6000546001600160a01b031633146103d65760405162461bcd60e51b815260040161030f90611615565b6103e06000611129565b565b60006103ed82611179565b92915050565b60006103fe82611179565b90507f00000000000000000000000000000000000000000000000000000000000000006001600160a01b031663481c6a756040518163ffffffff1660e01b815260040160206040518083038186803b15801561045957600080fd5b505afa15801561046d573d6000803e3d6000fd5b505050506040513d601f19601f8201168201806040525081019061049191906114a3565b60405163430c208160e01b8152336004820152602481018490526001600160a01b03919091169063430c20819060440160206040518083038186803b1580156104d957600080fd5b505afa1580156104ed573d6000803e3d6000fd5b505050506040513d601f19601f82011682018060405250810190610511919061151b565b61057a5760405162461bcd60e51b815260206004820152603460248201527f486567696353747261746567793a204d73672e73656e6465722063616e27742060448201527332bc32b931b4b9b2903a3434b99037b83a34b7b760611b606482015260840161030f565b600081116105d45760405162461bcd60e51b815260206004820152602160248201527f486567696353747261746567793a205468652070726f666974206973207a65726044820152606f60f81b606482015260840161030f565b7f00000000000000000000000000000000000000000000000000000000000000006001600160a01b0316638127f0a183837f00000000000000000000000000000000000000000000000000000000000000006001600160a01b031663481c6a756040518163ffffffff1660e01b815260040160206040518083038186803b15801561065e57600080fd5b505afa158015610672573d6000803e3d6000fd5b505050506040513d601f19601f8201168201806040525081019061069691906114a3565b6001600160a01b0316636352211e876040518263ffffffff1660e01b81526004016106c391815260200190565b60206040518083038186803b1580156106db57600080fd5b505afa1580156106ef573d6000803e3d6000fd5b505050506040513d601f19601f8201168201806040525081019061071391906114a3565b6040516001600160e01b031960e086901b168152600481019390935260248301919091526001600160a01b03166044820152606401600060405180830381600087803b15801561076257600080fd5b505af1158015610776573d6000803e3d6000fd5b505050505050565b604051634485558360e01b81523060048201526000907f00000000000000000000000000000000000000000000000000000000000000006001600160a01b03169063448555839060240160206040518083038186803b1580156107e057600080fd5b505afa1580156107f4573d6000803e3d6000fd5b505050506040513d601f19601f820116820180604052508101906108189190611556565b905090565b60008161082f5761082c6112f8565b91505b600061084b8563ffffffff16856001600160801b031685610ca6565b9050600061085a858786611397565b600154604051634485558360e01b8152306004820152919250906001600160801b038316906001600160a01b037f0000000000000000000000000000000000000000000000000000000000000000169063448555839060240160206040518083038186803b1580156108cb57600080fd5b505afa1580156108df573d6000803e3d6000fd5b505050506040513d601f19601f820116820180604052508101906109039190611556565b61090d919061164a565b11156109675760405162461bcd60e51b8152602060048201526024808201527f486567696353747261746567793a20546865206c696d697420697320657863656044820152631959195960e21b606482015260840161030f565b7f00000000000000000000000000000000000000000000000000000000000000006001600160a01b031663fc0c546a6040518163ffffffff1660e01b815260040160206040518083038186803b1580156109c057600080fd5b505afa1580156109d4573d6000803e3d6000fd5b505050506040513d601f19601f820116820180604052508101906109f891906114a3565b6040516323b872dd60e01b81523360048201526001600160a01b037f0000000000000000000000000000000000000000000000000000000000000000811660248301526044820185905291909116906323b872dd90606401602060405180830381600087803b158015610a6a57600080fd5b505af1158015610a7e573d6000803e3d6000fd5b505050506040513d601f19601f82011682018060405250810190610aa2919061151b565b506000610ab563ffffffff88164261164a565b60405163d6a6367760e01b81526001600160a01b038a811660048301526001600160801b038516602483015263ffffffff831660448301529192507f00000000000000000000000000000000000000000000000000000000000000009091169063d6a6367790606401602060405180830381600087803b158015610b3857600080fd5b505af1158015610b4c573d6000803e3d6000fd5b505050506040513d601f19601f82011682018060405250810190610b709190611556565b6040805180820182526001600160801b038981168083528982166020808501918252600087815260048252869020945191518416600160801b0291909316179092558251918252810186905290810187905263ffffffff8316606082015290945084907f1cc09915b693fed5c1f699371120d74d3bf06b9f2392d13cd6b001437f3725069060800160405180910390a2505050949350505050565b6000546001600160a01b03163314610c355760405162461bcd60e51b815260040161030f90611615565b6001600160a01b038116610c9a5760405162461bcd60e51b815260206004820152602660248201527f4f776e61626c653a206e6577206f776e657220697320746865207a65726f206160448201526564647265737360d01b606482015260840161030f565b610ca381611129565b50565b600081610cb857610cb56112f8565b91505b60025460405163055bc75d60e21b81526004810186905260248101859052604481018490526001600160a01b039091169063156f1d749060640160206040518083038186803b158015610d0a57600080fd5b505afa158015610d1e573d6000803e3d6000fd5b505050506040513d601f19601f82011682018060405250810190610d429190611556565b949350505050565b6000807f00000000000000000000000000000000000000000000000000000000000000006001600160a01b031663797be55e6040518163ffffffff1660e01b815260040160206040518083038186803b158015610da657600080fd5b505afa158015610dba573d6000803e3d6000fd5b505050506040513d601f19601f82011682018060405250810190610dde9190611556565b7f00000000000000000000000000000000000000000000000000000000000000006001600160a01b031663568914126040518163ffffffff1660e01b815260040160206040518083038186803b158015610e3757600080fd5b505afa158015610e4b573d6000803e3d6000fd5b505050506040513d601f19601f82011682018060405250810190610e6f9190611556565b7f00000000000000000000000000000000000000000000000000000000000000006001600160a01b031663ad7a672f6040518163ffffffff1660e01b815260040160206040518083038186803b158015610ec857600080fd5b505afa158015610edc573d6000803e3d6000fd5b505050506040513d601f19601f82011682018060405250810190610f009190611556565b7f00000000000000000000000000000000000000000000000000000000000000006001600160a01b03166346067d696040518163ffffffff1660e01b815260040160206040518083038186803b158015610f5957600080fd5b505afa158015610f6d573d6000803e3d6000fd5b505050506040513d601f19601f82011682018060405250810190610f919190611556565b610f9b919061164a565b610fa59190611791565b610faf9190611791565b604051634485558360e01b81523060048201529091506000906001600160a01b037f0000000000000000000000000000000000000000000000000000000000000000169063448555839060240160206040518083038186803b15801561101457600080fd5b505afa158015611028573d6000803e3d6000fd5b505050506040513d601f19601f8201168201806040525081019061104c9190611556565b6001546110599190611791565b90508361106b576110686112f8565b93505b60006110987f00000000000000000000000000000000000000000000000000000000000000008787611397565b6001600160801b03169050828211156110ea57806110d67f000000000000000000000000000000000000000000000000000000000000000085611772565b6110e09190611662565b93505050506103ed565b806111157f000000000000000000000000000000000000000000000000000000000000000084611772565b61111f9190611662565b9695505050505050565b600080546001600160a01b038381166001600160a01b0319831681178455604051919092169283917f8be0079c531659141344cd1fd0a4f28419497f9722a3daafe3b4186f6b6457e09190a35050565b60008181526004602090815260408083208151808301909252546001600160801b038082168352600160801b9091041691810191909152816111b96112f8565b905081602001516001600160801b03168110156111da575060009392505050565b60007f00000000000000000000000000000000000000000000000000000000000000006001600160a01b031663313ce5676040518163ffffffff1660e01b815260040160206040518083038186803b15801561123557600080fd5b505afa158015611249573d6000803e3d6000fd5b505050506040513d601f19601f8201168201806040525081019061126d91906115f2565b61127890600a6116c7565b9050807f0000000000000000000000000000000000000000000000000000000000000000620f424085600001516001600160801b031686602001516001600160801b0316866112c79190611791565b6112d19190611772565b6112db9190611772565b6112e59190611662565b6112ef9190611662565b95945050505050565b6000807f00000000000000000000000000000000000000000000000000000000000000006001600160a01b031663feaf968c6040518163ffffffff1660e01b815260040160a06040518083038186803b15801561135457600080fd5b505afa158015611368573d6000803e3d6000fd5b505050506040513d601f19601f8201168201806040525081019061138c91906115a2565b509195945050505050565b60035460025460405163055bc75d60e21b815263ffffffff851660048201526001600160801b03861660248201526044810184905260009260649290916001600160a01b039091169063156f1d7490840160206040518083038186803b15801561140057600080fd5b505afa158015611414573d6000803e3d6000fd5b505050506040513d601f19601f820116820180604052508101906114389190611556565b6114429190611772565b610d429190611662565b803563ffffffff8116811461146057600080fd5b919050565b805169ffffffffffffffffffff8116811461146057600080fd5b60006020828403121561149157600080fd5b813561149c816117be565b9392505050565b6000602082840312156114b557600080fd5b815161149c816117be565b600080600080608085870312156114d657600080fd5b84356114e1816117be565b93506114ef6020860161144c565b925060408501356001600160801b038116811461150b57600080fd5b9396929550929360600135925050565b60006020828403121561152d57600080fd5b8151801515811461149c57600080fd5b60006020828403121561154f57600080fd5b5035919050565b60006020828403121561156857600080fd5b5051919050565b60008060006060848603121561158457600080fd5b61158d8461144c565b95602085013595506040909401359392505050565b600080600080600060a086880312156115ba57600080fd5b6115c386611465565b94506020860151935060408601519250606086015191506115e660808701611465565b90509295509295909350565b60006020828403121561160457600080fd5b815160ff8116811461149c57600080fd5b6020808252818101527f4f776e61626c653a2063616c6c6572206973206e6f7420746865206f776e6572604082015260600190565b6000821982111561165d5761165d6117a8565b500190565b60008261167f57634e487b7160e01b600052601260045260246000fd5b500490565b600181815b808511156116bf5781600019048211156116a5576116a56117a8565b808516156116b257918102915b93841c9390800290611689565b509250929050565b600061149c60ff8416836000826116e0575060016103ed565b816116ed575060006103ed565b8160018114611703576002811461170d57611729565b60019150506103ed565b60ff84111561171e5761171e6117a8565b50506001821b6103ed565b5060208310610133831016604e8410600b841016171561174c575081810a6103ed565b6117568383611684565b806000190482111561176a5761176a6117a8565b029392505050565b600081600019048311821515161561178c5761178c6117a8565b500290565b6000828210156117a3576117a36117a8565b500390565b634e487b7160e01b600052601160045260246000fd5b6001600160a01b0381168114610ca357600080fdfea2646970667358221220e5f9f4a2cb4c1bdc5feea70bc85bf546d76553409c4d38c53c86e43539fb366664736f6c63430008060033",
  "devdoc": {
    "kind": "dev",
    "methods": {
      "buy(address,uint32,uint128,uint256)": {
        "params": {
          "amount": "The option/strategy amount",
          "holder": "The holder address",
          "period": "The option/strategy period",
          "strike": "The option/strategy strike*"
        }
      },
      "exercise(uint256)": {
        "params": {
          "optionID": "The option/strategy ID*"
        }
      },
      "owner()": {
        "details": "Returns the address of the current owner."
      },
      "profitOf(uint256)": {
        "params": {
          "amount": "The unrealized profits amount*",
          "optionID": "The option/strategy ID"
        }
      },
      "renounceOwnership()": {
        "details": "Leaves the contract without owner. It will not be possible to call `onlyOwner` functions anymore. Can only be called by the current owner. NOTE: Renouncing ownership will leave the contract without an owner, thereby removing any functionality that is only available to the owner."
      },
      "setK(uint256)": {
        "params": {
          "value": "The collateralization coefficient*"
        }
      },
      "setLimit(uint256)": {
        "params": {
          "value": "The maximum locked liquidity*"
        }
      },
      "transferOwnership(address)": {
        "details": "Transfers ownership of the contract to a new account (`newOwner`). Can only be called by the current owner."
      }
    },
    "version": 1
  },
  "userdoc": {
    "kind": "user",
    "methods": {
      "buy(address,uint32,uint128,uint256)": {
        "notice": "Used for buying options/strategies"
      },
      "exercise(uint256)": {
        "notice": "Used for exercising an in-the-money option/strategy and taking profits"
      },
      "getLockedByStrategy()": {
        "notice": "Used for viewing the total liquidity locked up for a specific options strategy*"
      },
      "profitOf(uint256)": {
        "notice": "Used for calculating the holder's option/strategy unrealized profits"
      },
      "setK(uint256)": {
        "notice": "Used for setting the collateralization coefficient"
      },
      "setLimit(uint256)": {
        "notice": "Used for setting a limit on the total locked liquidity"
      }
    },
    "version": 1
  },
  "storageLayout": {
    "storage": [
      {
        "astId": 611,
        "contract": "contracts/Pool/HegicStrategyCall.sol:HegicStrategyCall",
        "label": "_owner",
        "offset": 0,
        "slot": "0",
        "type": "t_address"
      },
      {
        "astId": 10906,
        "contract": "contracts/Pool/HegicStrategyCall.sol:HegicStrategyCall",
        "label": "collateralizationRatio",
        "offset": 20,
        "slot": "0",
        "type": "t_uint8"
      },
      {
        "astId": 10909,
        "contract": "contracts/Pool/HegicStrategyCall.sol:HegicStrategyCall",
        "label": "lockedLimit",
        "offset": 0,
        "slot": "1",
        "type": "t_uint256"
      },
      {
        "astId": 10912,
        "contract": "contracts/Pool/HegicStrategyCall.sol:HegicStrategyCall",
        "label": "pricer",
        "offset": 0,
        "slot": "2",
        "type": "t_contract(IPremiumCalculator)7017"
      },
      {
        "astId": 10920,
        "contract": "contracts/Pool/HegicStrategyCall.sol:HegicStrategyCall",
        "label": "k",
        "offset": 0,
        "slot": "3",
        "type": "t_uint256"
      },
      {
        "astId": 10930,
        "contract": "contracts/Pool/HegicStrategyCall.sol:HegicStrategyCall",
        "label": "strategyData",
        "offset": 0,
        "slot": "4",
        "type": "t_mapping(t_uint256,t_struct(StrategyData)10925_storage)"
      }
    ],
    "types": {
      "t_address": {
        "encoding": "inplace",
        "label": "address",
        "numberOfBytes": "20"
      },
      "t_contract(IPremiumCalculator)7017": {
        "encoding": "inplace",
        "label": "contract IPremiumCalculator",
        "numberOfBytes": "20"
      },
      "t_mapping(t_uint256,t_struct(StrategyData)10925_storage)": {
        "encoding": "mapping",
        "key": "t_uint256",
        "label": "mapping(uint256 => struct HegicStrategy.StrategyData)",
        "numberOfBytes": "32",
        "value": "t_struct(StrategyData)10925_storage"
      },
      "t_struct(StrategyData)10925_storage": {
        "encoding": "inplace",
        "label": "struct HegicStrategy.StrategyData",
        "members": [
          {
            "astId": 10922,
            "contract": "contracts/Pool/HegicStrategyCall.sol:HegicStrategyCall",
            "label": "amount",
            "offset": 0,
            "slot": "0",
            "type": "t_uint128"
          },
          {
            "astId": 10924,
            "contract": "contracts/Pool/HegicStrategyCall.sol:HegicStrategyCall",
            "label": "strike",
            "offset": 16,
            "slot": "0",
            "type": "t_uint128"
          }
        ],
        "numberOfBytes": "32"
      },
      "t_uint128": {
        "encoding": "inplace",
        "label": "uint128",
        "numberOfBytes": "16"
      },
      "t_uint256": {
        "encoding": "inplace",
        "label": "uint256",
        "numberOfBytes": "32"
      },
      "t_uint8": {
        "encoding": "inplace",
        "label": "uint8",
        "numberOfBytes": "1"
      }
    }
  }
}