{
  "address": "0xC0f70b898D017bF7089087E54Fd55D9B8091344D",
  "abi": [
    {
      "inputs": [
        {
          "internalType": "contract IERC20",
          "name": "_token",
          "type": "address"
        },
        {
          "internalType": "contract IOptionsManager",
          "name": "_manager",
          "type": "address"
        },
        {
          "internalType": "uint256",
          "name": "_maxLockupPeriod",
          "type": "uint256"
        },
        {
          "internalType": "contract IHegicStakeAndCover",
          "name": "_stakeandcoverPool",
          "type": "address"
        },
        {
          "internalType": "uint256",
          "name": "_benchmark",
          "type": "uint256"
        }
      ],
      "stateMutability": "nonpayable",
      "type": "constructor"
    },
    {
      "anonymous": false,
      "inputs": [
        {
          "indexed": true,
          "internalType": "uint256",
          "name": "id",
          "type": "uint256"
        }
      ],
      "name": "Expired",
      "type": "event"
    },
    {
      "anonymous": false,
      "inputs": [
        {
          "indexed": true,
          "internalType": "uint256",
          "name": "id",
          "type": "uint256"
        },
        {
          "indexed": true,
          "internalType": "address",
          "name": "account",
          "type": "address"
        },
        {
          "indexed": false,
          "internalType": "uint256",
          "name": "amount",
          "type": "uint256"
        }
      ],
      "name": "Paid",
      "type": "event"
    },
    {
      "anonymous": false,
      "inputs": [
        {
          "indexed": false,
          "internalType": "uint256",
          "name": "amount",
          "type": "uint256"
        }
      ],
      "name": "Replenished",
      "type": "event"
    },
    {
      "anonymous": false,
      "inputs": [
        {
          "indexed": true,
          "internalType": "bytes32",
          "name": "role",
          "type": "bytes32"
        },
        {
          "indexed": true,
          "internalType": "bytes32",
          "name": "previousAdminRole",
          "type": "bytes32"
        },
        {
          "indexed": true,
          "internalType": "bytes32",
          "name": "newAdminRole",
          "type": "bytes32"
        }
      ],
      "name": "RoleAdminChanged",
      "type": "event"
    },
    {
      "anonymous": false,
      "inputs": [
        {
          "indexed": true,
          "internalType": "bytes32",
          "name": "role",
          "type": "bytes32"
        },
        {
          "indexed": true,
          "internalType": "address",
          "name": "account",
          "type": "address"
        },
        {
          "indexed": true,
          "internalType": "address",
          "name": "sender",
          "type": "address"
        }
      ],
      "name": "RoleGranted",
      "type": "event"
    },
    {
      "anonymous": false,
      "inputs": [
        {
          "indexed": true,
          "internalType": "bytes32",
          "name": "role",
          "type": "bytes32"
        },
        {
          "indexed": true,
          "internalType": "address",
          "name": "account",
          "type": "address"
        },
        {
          "indexed": true,
          "internalType": "address",
          "name": "sender",
          "type": "address"
        }
      ],
      "name": "RoleRevoked",
      "type": "event"
    },
    {
      "inputs": [],
      "name": "DEFAULT_ADMIN_ROLE",
      "outputs": [
        {
          "internalType": "bytes32",
          "name": "",
          "type": "bytes32"
        }
      ],
      "stateMutability": "view",
      "type": "function"
    },
    {
      "inputs": [],
      "name": "STRATEGY_ROLE",
      "outputs": [
        {
          "internalType": "bytes32",
          "name": "",
          "type": "bytes32"
        }
      ],
      "stateMutability": "view",
      "type": "function"
    },
    {
      "inputs": [],
      "name": "addTokens",
      "outputs": [
        {
          "internalType": "uint256",
          "name": "amount",
          "type": "uint256"
        }
      ],
      "stateMutability": "nonpayable",
      "type": "function"
    },
    {
      "inputs": [],
      "name": "benchmark",
      "outputs": [
        {
          "internalType": "uint256",
          "name": "",
          "type": "uint256"
        }
      ],
      "stateMutability": "view",
      "type": "function"
    },
    {
      "inputs": [
        {
          "internalType": "bytes32",
          "name": "role",
          "type": "bytes32"
        }
      ],
      "name": "getRoleAdmin",
      "outputs": [
        {
          "internalType": "bytes32",
          "name": "",
          "type": "bytes32"
        }
      ],
      "stateMutability": "view",
      "type": "function"
    },
    {
      "inputs": [],
      "name": "getStakeAndCoverBalance",
      "outputs": [
        {
          "internalType": "uint256",
          "name": "balance",
          "type": "uint256"
        }
      ],
      "stateMutability": "view",
      "type": "function"
    },
    {
      "inputs": [
        {
          "internalType": "bytes32",
          "name": "role",
          "type": "bytes32"
        },
        {
          "internalType": "address",
          "name": "account",
          "type": "address"
        }
      ],
      "name": "grantRole",
      "outputs": [],
      "stateMutability": "nonpayable",
      "type": "function"
    },
    {
      "inputs": [
        {
          "internalType": "bytes32",
          "name": "role",
          "type": "bytes32"
        },
        {
          "internalType": "address",
          "name": "account",
          "type": "address"
        }
      ],
      "name": "hasRole",
      "outputs": [
        {
          "internalType": "bool",
          "name": "",
          "type": "bool"
        }
      ],
      "stateMutability": "view",
      "type": "function"
    },
    {
      "inputs": [
        {
          "internalType": "address",
          "name": "holder",
          "type": "address"
        },
        {
          "internalType": "uint128",
          "name": "negativepnl",
          "type": "uint128"
        },
        {
          "internalType": "uint32",
          "name": "expiration",
          "type": "uint32"
        }
      ],
      "name": "lockLiquidityFor",
      "outputs": [
        {
          "internalType": "uint256",
          "name": "optionID",
          "type": "uint256"
        }
      ],
      "stateMutability": "nonpayable",
      "type": "function"
    },
    {
      "inputs": [
        {
          "internalType": "address",
          "name": "",
          "type": "address"
        }
      ],
      "name": "lockedByStrategy",
      "outputs": [
        {
          "internalType": "uint256",
          "name": "",
          "type": "uint256"
        }
      ],
      "stateMutability": "view",
      "type": "function"
    },
    {
      "inputs": [
        {
          "internalType": "uint256",
          "name": "",
          "type": "uint256"
        }
      ],
      "name": "lockedLiquidity",
      "outputs": [
        {
          "internalType": "enum IHegicOperationalTreasury.LockedLiquidityState",
          "name": "state",
          "type": "uint8"
        },
        {
          "internalType": "address",
          "name": "strategy",
          "type": "address"
        },
        {
          "internalType": "uint128",
          "name": "negativepnl",
          "type": "uint128"
        },
        {
          "internalType": "uint128",
          "name": "positivepnl",
          "type": "uint128"
        },
        {
          "internalType": "uint32",
          "name": "expiration",
          "type": "uint32"
        }
      ],
      "stateMutability": "view",
      "type": "function"
    },
    {
      "inputs": [],
      "name": "lockedPremium",
      "outputs": [
        {
          "internalType": "uint256",
          "name": "",
          "type": "uint256"
        }
      ],
      "stateMutability": "view",
      "type": "function"
    },
    {
      "inputs": [],
      "name": "manager",
      "outputs": [
        {
          "internalType": "contract IOptionsManager",
          "name": "",
          "type": "address"
        }
      ],
      "stateMutability": "view",
      "type": "function"
    },
    {
      "inputs": [],
      "name": "maxLockupPeriod",
      "outputs": [
        {
          "internalType": "uint256",
          "name": "",
          "type": "uint256"
        }
      ],
      "stateMutability": "view",
      "type": "function"
    },
    {
      "inputs": [
        {
          "internalType": "uint256",
          "name": "lockedLiquidityID",
          "type": "uint256"
        },
        {
          "internalType": "uint256",
          "name": "amount",
          "type": "uint256"
        },
        {
          "internalType": "address",
          "name": "account",
          "type": "address"
        }
      ],
      "name": "payOff",
      "outputs": [],
      "stateMutability": "nonpayable",
      "type": "function"
    },
    {
      "inputs": [
        {
          "internalType": "bytes32",
          "name": "role",
          "type": "bytes32"
        },
        {
          "internalType": "address",
          "name": "account",
          "type": "address"
        }
      ],
      "name": "renounceRole",
      "outputs": [],
      "stateMutability": "nonpayable",
      "type": "function"
    },
    {
      "inputs": [],
      "name": "replenish",
      "outputs": [],
      "stateMutability": "nonpayable",
      "type": "function"
    },
    {
      "inputs": [
        {
          "internalType": "bytes32",
          "name": "role",
          "type": "bytes32"
        },
        {
          "internalType": "address",
          "name": "account",
          "type": "address"
        }
      ],
      "name": "revokeRole",
      "outputs": [],
      "stateMutability": "nonpayable",
      "type": "function"
    },
    {
      "inputs": [
        {
          "internalType": "uint256",
          "name": "value",
          "type": "uint256"
        }
      ],
      "name": "setBenchmark",
      "outputs": [],
      "stateMutability": "nonpayable",
      "type": "function"
    },
    {
      "inputs": [],
      "name": "stakeandcoverPool",
      "outputs": [
        {
          "internalType": "contract IHegicStakeAndCover",
          "name": "",
          "type": "address"
        }
      ],
      "stateMutability": "view",
      "type": "function"
    },
    {
      "inputs": [
        {
          "internalType": "bytes4",
          "name": "interfaceId",
          "type": "bytes4"
        }
      ],
      "name": "supportsInterface",
      "outputs": [
        {
          "internalType": "bool",
          "name": "",
          "type": "bool"
        }
      ],
      "stateMutability": "view",
      "type": "function"
    },
    {
      "inputs": [],
      "name": "token",
      "outputs": [
        {
          "internalType": "contract IERC20",
          "name": "",
          "type": "address"
        }
      ],
      "stateMutability": "view",
      "type": "function"
    },
    {
      "inputs": [],
      "name": "totalBalance",
      "outputs": [
        {
          "internalType": "uint256",
          "name": "",
          "type": "uint256"
        }
      ],
      "stateMutability": "view",
      "type": "function"
    },
    {
      "inputs": [],
      "name": "totalLocked",
      "outputs": [
        {
          "internalType": "uint256",
          "name": "",
          "type": "uint256"
        }
      ],
      "stateMutability": "view",
      "type": "function"
    },
    {
      "inputs": [
        {
          "internalType": "uint256",
          "name": "lockedLiquidityID",
          "type": "uint256"
        }
      ],
      "name": "unlock",
      "outputs": [],
      "stateMutability": "nonpayable",
      "type": "function"
    },
    {
      "inputs": [
        {
          "internalType": "address",
          "name": "to",
          "type": "address"
        },
        {
          "internalType": "uint256",
          "name": "amount",
          "type": "uint256"
        }
      ],
      "name": "withdraw",
      "outputs": [],
      "stateMutability": "nonpayable",
      "type": "function"
    }
  ],
  "transactionHash": "0x2c1e5762f0a6477d76b5cc6d15c2a2b08ff815cd1555be12b777432c8baf2630",
  "args": [
    "0xff970a61a04b1ca14834a43f5de4533ebddb5cc8",
    "0x5B53d56c5a63ebBE852D9D911b7886A4338953f1",
    3888000,
    "0x60898dfA3C6e8Ba4998B5f3be25Fb0b0b69d5D5d",
    "50000000000"
  ],
  "numDeployments": 1,
  "solcInputHash": "757bafa4a73a0c219bd892c3e1c0b361",
  "bytecode": "0x60c06040523480156200001157600080fd5b5060405162001dc238038062001dc2833981016040819052620000349162000149565b6001805584848484846200004a60003362000099565b606094851b6001600160601b03199081166080529390941b90921660a052600955600280546001600160a01b0319166001600160a01b0390921691909117905560055550620001ca9350505050565b620000a58282620000a9565b5050565b6000828152602081815260408083206001600160a01b038516845290915290205460ff16620000a5576000828152602081815260408083206001600160a01b03851684529091529020805460ff19166001179055620001053390565b6001600160a01b0316816001600160a01b0316837f2f8788117e7eff1d82e926ec794901d17c78024a50270940304540a733656f0d60405160405180910390a45050565b600080600080600060a086880312156200016257600080fd5b85516200016f81620001b1565b60208701519095506200018281620001b1565b6040870151606088015191955093506200019c81620001b1565b80925050608086015190509295509295909350565b6001600160a01b0381168114620001c757600080fd5b50565b60805160601c60a05160601c611bb062000212600039600081816102af015281816105ef0152610bb90152600081816103f20152818161113301526112c10152611bb06000f3fe608060405234801561001057600080fd5b506004361061018e5760003560e01c80638127f0a1116100de578063ad7a672f11610097578063d5f4f0b311610071578063d5f4f0b3146103bf578063d6a63677146103c7578063f3fef3a3146103da578063fc0c546a146103ed57600080fd5b8063ad7a672f1461039b578063d163af7b146103a4578063d547741f146103ac57600080fd5b80638127f0a1146103485780638903c5a21461035b57806391d14854146103645780639ec956d514610377578063a065ea5314610380578063a217fddf1461039357600080fd5b806346067d691161014b578063580b7c2e11610125578063580b7c2e146102f25780636198e3391461031957806368a2da511461032c578063797be55e1461033f57600080fd5b806346067d69146102a2578063481c6a75146102aa57806356891412146102e957600080fd5b806301ffc9a714610193578063248a9ca3146101bb5780632f2ff15d146101ec57806336568abe146102015780633755269b146102145780634485558314610282575b600080fd5b6101a66101a13660046118bc565b610414565b60405190151581526020015b60405180910390f35b6101de6101c9366004611873565b60009081526020819052604090206001015490565b6040519081526020016101b2565b6101ff6101fa36600461188c565b61044b565b005b6101ff61020f36600461188c565b610476565b610271610222366004611873565b60036020526000908152604090208054600182015460029092015460ff8216926101009092046001600160a01b0316916001600160801b0380821692600160801b909204169063ffffffff1685565b6040516101b29594939291906119be565b6101de61029036600461178b565b60046020526000908152604090205481565b6101de6104f9565b6102d17f000000000000000000000000000000000000000000000000000000000000000081565b6040516001600160a01b0390911681526020016101b2565b6101de60075481565b6101de7f928286c473ded01ff8bf61a1986f14a0579066072fa8261442d9fea514d93a4c81565b6101ff610327366004611873565b61057b565b6101ff61033a366004611873565b610677565b6101de60065481565b6101ff6103563660046118ff565b610689565b6101de60055481565b6101a661037236600461188c565b61091f565b6101de60095481565b6002546102d1906001600160a01b031681565b6101de600081565b6101de60085481565b6101ff610948565b6101ff6103ba36600461188c565b610961565b6101de610987565b6101de6103d53660046117c5565b6109a2565b6101ff6103e8366004611825565b610d1d565b6102d17f000000000000000000000000000000000000000000000000000000000000000081565b60006001600160e01b03198216637965db0b60e01b148061044557506301ffc9a760e01b6001600160e01b03198316145b92915050565b6000828152602081905260409020600101546104678133610d33565b6104718383610d97565b505050565b6001600160a01b03811633146104eb5760405162461bcd60e51b815260206004820152602f60248201527f416363657373436f6e74726f6c3a2063616e206f6e6c792072656e6f756e636560448201526e103937b632b9903337b91039b2b63360891b60648201526084015b60405180910390fd5b6104f58282610e1b565b5050565b6002546040805163ab2f0e5160e01b815290516000926001600160a01b03169163ab2f0e51916004808301926020929190829003018186803b15801561053e57600080fd5b505afa158015610552573d6000803e3d6000fd5b505050506040513d601f19601f8201168201806040525081019061057691906118e6565b905090565b61058481610e80565b600081815260036020526040812060018101549091906105b7906001600160801b0380821691600160801b900416611a4d565b6001600160801b031690508060085410156105d5576105d581610f2b565b6040516331a9108f60e11b815260048101849052610471907f00000000000000000000000000000000000000000000000000000000000000006001600160a01b031690636352211e9060240160206040518083038186803b15801561063957600080fd5b505afa15801561064d573d6000803e3d6000fd5b505050506040513d601f19601f8201168201806040525081019061067191906117a8565b82611002565b60006106838133610d33565b50600555565b600260015414156106dc5760405162461bcd60e51b815260206004820152601f60248201527f5265656e7472616e637947756172643a207265656e7472616e742063616c6c0060448201526064016104e2565b600260018190556000848152600360205260409020908101544263ffffffff9091161161074b5760405162461bcd60e51b815260206004820152601e60248201527f546865206f7074696f6e2068617320616c72656164792065787069726564000060448201526064016104e2565b805461010090046001600160a01b0316331461078d5760405162461bcd60e51b81526020600482015260016024820152606160f81b60448201526064016104e2565b6001600160a01b0382166107c75760405162461bcd60e51b81526020600482015260016024820152603160f91b60448201526064016104e2565b6040805160a0810190915281546108549185918490829060ff1660018111156107f2576107f2611b23565b600181111561080357610803611b23565b8152815461010090046001600160a01b0316602082015260018201546001600160801b038082166040840152600160801b90910416606082015260029091015463ffffffff1660809091015261115a565b6108ab5760405162461bcd60e51b815260206004820152602260248201527f54686520616d6f756e7420746f205061794f666620697320746f6f206c617267604482015261329760f11b60648201526084016104e2565b6108b481611183565b8260085410156108c7576108c783610f2b565b6108d18284611002565b816001600160a01b0316847f4f2d18324ee95128de091ed2adc501295479000ce4c2cec607aeb1b67e189e2f8560405161090d91815260200190565b60405180910390a35050600180555050565b6000918252602082815260408084206001600160a01b0393909316845291905290205460ff1690565b60006109548133610d33565b61095e6000610f2b565b50565b60008281526020819052604090206001015461097d8133610d33565b6104718383610e1b565b6000806109948133610d33565b61099c61129d565b91505090565b60007f928286c473ded01ff8bf61a1986f14a0579066072fa8261442d9fea514d93a4c6109cf8133610d33565b60006109d961129d565b9050846001600160801b0316600760008282546109f69190611a78565b92505081905550806001600160801b031660066000828254610a189190611a78565b90915550506002546040805163ab2f0e5160e01b815290516001600160a01b039092169163ab2f0e5191600480820192602092909190829003018186803b158015610a6257600080fd5b505afa158015610a76573d6000803e3d6000fd5b505050506040513d601f19601f82011682018060405250810190610a9a91906118e6565b600854610aa79190611a78565b600654600754610ab79190611a78565b1115610b115760405162461bcd60e51b8152602060048201526024808201527f546865206e6567617469766520706e6c20616d6f756e7420697320746f6f206c6044820152636172676560e01b60648201526084016104e2565b8363ffffffff1660095442610b269190611a78565b1015610b6d5760405162461bcd60e51b815260206004820152601660248201527554686520706572696f6420697320746f6f206c6f6e6760501b60448201526064016104e2565b33600090815260046020526040812080546001600160801b0388169290610b95908490611a78565b909155505060405163012c0d8160e71b81526001600160a01b0387811660048301527f00000000000000000000000000000000000000000000000000000000000000001690639606c08090602401602060405180830381600087803b158015610bfd57600080fd5b505af1158015610c11573d6000803e3d6000fd5b505050506040513d601f19601f82011682018060405250810190610c3591906118e6565b6040805160a0810182526001808252336020808401919091526001600160801b038a8116848601528616606084015263ffffffff8916608084015260008581526003909152929092208151815494975091939092839160ff1916908381811115610ca157610ca1611b23565b0217905550602082015181546001600160a01b0390911661010002610100600160a81b0319909116178155604082015160608301516001600160801b03908116600160801b0291161760018201556080909101516002909101805463ffffffff90921663ffffffff199092169190911790555090949350505050565b6000610d298133610d33565b6104718383611002565b610d3d828261091f565b6104f557610d55816001600160a01b03166014611363565b610d60836020611363565b604051602001610d71929190611949565b60408051601f198184030181529082905262461bcd60e51b82526104e291600401611a1a565b610da1828261091f565b6104f5576000828152602081815260408083206001600160a01b03851684529091529020805460ff19166001179055610dd73390565b6001600160a01b0316816001600160a01b0316837f2f8788117e7eff1d82e926ec794901d17c78024a50270940304540a733656f0d60405160405180910390a45050565b610e25828261091f565b156104f5576000828152602081815260408083206001600160a01b0385168085529252808320805460ff1916905551339285917ff6391f5c32d9c69d2a47ea670b442974b53935d1edc7fd64eb21e047a839171b9190a45050565b6000818152600360205260409020600281015463ffffffff164211610ef35760405162461bcd60e51b8152602060048201526024808201527f5468652065787069726174696f6e2074696d6520686173206e6f742079657420604482015263636f6d6560e01b60648201526084016104e2565b610efc81611183565b60405182907ff80dbaea4785589e52984ca36a31de106adc77759539a5c7d92883bf49692fe990600090a25050565b600060085460065483600554610f419190611a78565b610f4b9190611a78565b610f559190611aaf565b600254604051636d199e5360e11b8152600481018390529192506001600160a01b03169063da333ca690602401600060405180830381600087803b158015610f9c57600080fd5b505af1158015610fb0573d6000803e3d6000fd5b505050508060086000828254610fc69190611a78565b90915550506040518181527fc38f9a7f7e6a60286c03e404e4a1890a1434a5633900261bf999356064b031da9060200160405180910390a15050565b600260009054906101000a90046001600160a01b03166001600160a01b031663ab2f0e516040518163ffffffff1660e01b815260040160206040518083038186803b15801561105057600080fd5b505afa158015611064573d6000803e3d6000fd5b505050506040513d601f19601f8201168201806040525081019061108891906118e6565b6008546110959190611a78565b6006546007546110a59084611a78565b6110af9190611a78565b11156111095760405162461bcd60e51b815260206004820152602360248201527f54686520616d6f756e7420746f20776974686472617720697320746f6f206c6160448201526272676560e81b60648201526084016104e2565b806008600082825461111b9190611aaf565b909155505080156104f5576104f56001600160a01b037f0000000000000000000000000000000000000000000000000000000000000000168383611506565b6000816060015182604001516111709190611a4d565b6001600160801b03169092111592915050565b6001815460ff16600181111561119b5761119b611b23565b146111f85760405162461bcd60e51b815260206004820152602760248201527f546865206c69717569646974792068617320616c7265616479206265656e20756044820152661b9b1bd8dad95960ca1b60648201526084016104e2565b805460ff191681556001810154600780546001600160801b0390921691600090611223908490611aaf565b9091555050600181015460068054600160801b9092046001600160801b031691600090611251908490611aaf565b90915550506001810154815461010090046001600160a01b0316600090815260046020526040812080546001600160801b0390931692909190611295908490611aaf565b909155505050565b6008546040516370a0823160e01b8152306004820152600091906001600160a01b037f000000000000000000000000000000000000000000000000000000000000000016906370a082319060240160206040518083038186803b15801561130357600080fd5b505afa158015611317573d6000803e3d6000fd5b505050506040513d601f19601f8201168201806040525081019061133b91906118e6565b6113459190611aaf565b905080600860008282546113599190611a78565b9250508190555090565b60606000611372836002611a90565b61137d906002611a78565b67ffffffffffffffff81111561139557611395611b4f565b6040519080825280601f01601f1916602001820160405280156113bf576020820181803683370190505b509050600360fc1b816000815181106113da576113da611b39565b60200101906001600160f81b031916908160001a905350600f60fb1b8160018151811061140957611409611b39565b60200101906001600160f81b031916908160001a905350600061142d846002611a90565b611438906001611a78565b90505b60018111156114b0576f181899199a1a9b1b9c1cb0b131b232b360811b85600f166010811061146c5761146c611b39565b1a60f81b82828151811061148257611482611b39565b60200101906001600160f81b031916908160001a90535060049490941c936114a981611af6565b905061143b565b5083156114ff5760405162461bcd60e51b815260206004820181905260248201527f537472696e67733a20686578206c656e67746820696e73756666696369656e7460448201526064016104e2565b9392505050565b604080516001600160a01b03848116602483015260448083018590528351808403909101815260649092018352602080830180516001600160e01b031663a9059cbb60e01b17905283518085019094528084527f5361666545524332303a206c6f772d6c6576656c2063616c6c206661696c65649084015261047192869291600091611596918516908490611613565b80519091501561047157808060200190518101906115b49190611851565b6104715760405162461bcd60e51b815260206004820152602a60248201527f5361666545524332303a204552433230206f7065726174696f6e20646964206e6044820152691bdd081cdd58d8d9595960b21b60648201526084016104e2565b6060611622848460008561162a565b949350505050565b60608247101561168b5760405162461bcd60e51b815260206004820152602660248201527f416464726573733a20696e73756666696369656e742062616c616e636520666f6044820152651c8818d85b1b60d21b60648201526084016104e2565b843b6116d95760405162461bcd60e51b815260206004820152601d60248201527f416464726573733a2063616c6c20746f206e6f6e2d636f6e747261637400000060448201526064016104e2565b600080866001600160a01b031685876040516116f5919061192d565b60006040518083038185875af1925050503d8060008114611732576040519150601f19603f3d011682016040523d82523d6000602084013e611737565b606091505b5091509150611747828286611752565b979650505050505050565b606083156117615750816114ff565b8251156117715782518084602001fd5b8160405162461bcd60e51b81526004016104e29190611a1a565b60006020828403121561179d57600080fd5b81356114ff81611b65565b6000602082840312156117ba57600080fd5b81516114ff81611b65565b6000806000606084860312156117da57600080fd5b83356117e581611b65565b925060208401356001600160801b038116811461180157600080fd5b9150604084013563ffffffff8116811461181a57600080fd5b809150509250925092565b6000806040838503121561183857600080fd5b823561184381611b65565b946020939093013593505050565b60006020828403121561186357600080fd5b815180151581146114ff57600080fd5b60006020828403121561188557600080fd5b5035919050565b6000806040838503121561189f57600080fd5b8235915060208301356118b181611b65565b809150509250929050565b6000602082840312156118ce57600080fd5b81356001600160e01b0319811681146114ff57600080fd5b6000602082840312156118f857600080fd5b5051919050565b60008060006060848603121561191457600080fd5b8335925060208401359150604084013561181a81611b65565b6000825161193f818460208701611ac6565b9190910192915050565b7f416363657373436f6e74726f6c3a206163636f756e7420000000000000000000815260008351611981816017850160208801611ac6565b7001034b99036b4b9b9b4b733903937b6329607d1b60179184019182015283516119b2816028840160208801611ac6565b01602801949350505050565b60a08101600287106119e057634e487b7160e01b600052602160045260246000fd5b9581526001600160a01b039490941660208501526001600160801b0392831660408501529116606083015263ffffffff1660809091015290565b6020815260008251806020840152611a39816040850160208701611ac6565b601f01601f19169190910160400192915050565b60006001600160801b03808316818516808303821115611a6f57611a6f611b0d565b01949350505050565b60008219821115611a8b57611a8b611b0d565b500190565b6000816000190483118215151615611aaa57611aaa611b0d565b500290565b600082821015611ac157611ac1611b0d565b500390565b60005b83811015611ae1578181015183820152602001611ac9565b83811115611af0576000848401525b50505050565b600081611b0557611b05611b0d565b506000190190565b634e487b7160e01b600052601160045260246000fd5b634e487b7160e01b600052602160045260246000fd5b634e487b7160e01b600052603260045260246000fd5b634e487b7160e01b600052604160045260246000fd5b6001600160a01b038116811461095e57600080fdfea264697066735822122058538b0072fd412bfa43f209ab13488f7e9dd9b60421d0058dc59ef37d830c0364736f6c63430008060033",
  "devdoc": {
    "kind": "dev",
    "methods": {
      "addTokens()": {
        "params": {
          "amount": "The amount of tokens to add*"
        }
      },
      "getRoleAdmin(bytes32)": {
        "details": "Returns the admin role that controls `role`. See {grantRole} and {revokeRole}. To change a role's admin, use {_setRoleAdmin}."
      },
      "grantRole(bytes32,address)": {
        "details": "Grants `role` to `account`. If `account` had not been already granted `role`, emits a {RoleGranted} event. Requirements: - the caller must have ``role``'s admin role."
      },
      "hasRole(bytes32,address)": {
        "details": "Returns `true` if `account` has been granted `role`."
      },
      "lockLiquidityFor(address,uint128,uint32)": {
        "params": {
          "expiration": "The options strategy expiration time*",
          "holder": "The option strategy holder address",
          "negativepnl": "The amount of options strategy contract"
        }
      },
      "payOff(uint256,uint256,address)": {
        "params": {
          "account": "The holder address*",
          "amount": "The amount to pay off",
          "lockedLiquidityID": "The option contract ID"
        }
      },
      "renounceRole(bytes32,address)": {
        "details": "Revokes `role` from the calling account. Roles are often managed via {grantRole} and {revokeRole}: this function's purpose is to provide a mechanism for accounts to lose their privileges if they are compromised (such as when a trusted device is misplaced). If the calling account had been granted `role`, emits a {RoleRevoked} event. Requirements: - the caller must be `account`."
      },
      "revokeRole(bytes32,address)": {
        "details": "Revokes `role` from `account`. If `account` had been granted `role`, emits a {RoleRevoked} event. Requirements: - the caller must have ``role``'s admin role."
      },
      "setBenchmark(uint256)": {
        "params": {
          "value": "The benchmark value*"
        }
      },
      "supportsInterface(bytes4)": {
        "details": "See {IERC165-supportsInterface}."
      },
      "unlock(uint256)": {
        "params": {
          "lockedLiquidityID": "The option contract ID*"
        }
      },
      "withdraw(address,uint256)": {
        "params": {
          "amount": "The amount to withdraw*",
          "to": "The recipient address"
        }
      }
    },
    "version": 1
  },
  "userdoc": {
    "kind": "user",
    "methods": {
      "addTokens()": {
        "notice": "Used for adding deposited tokens (e.g. premiums) to the contract's totalBalance"
      },
      "lockLiquidityFor(address,uint128,uint32)": {
        "notice": "Used for locking liquidity in an active options strategy"
      },
      "payOff(uint256,uint256,address)": {
        "notice": "Used for paying off the profits if an option is exercised in-the-money"
      },
      "replenish()": {
        "notice": "replenishUsed for replenishing of the Hegic Operational Treasury contract*"
      },
      "setBenchmark(uint256)": {
        "notice": "Used for setting the initial contract benchmark for calculating future profits or losses"
      },
      "unlock(uint256)": {
        "notice": "Used for unlocking liquidity after an expiration"
      },
      "withdraw(address,uint256)": {
        "notice": "Used for withdrawing deposited tokens from the contract"
      }
    },
    "version": 1
  },
  "storageLayout": {
    "storage": [
      {
        "astId": 238,
        "contract": "contracts/Pool/HegicInverseOperationalTreasury.sol:HegicInverseOperationalTreasury",
        "label": "_roles",
        "offset": 0,
        "slot": "0",
        "type": "t_mapping(t_bytes32,t_struct(RoleData)233_storage)"
      },
      {
        "astId": 940,
        "contract": "contracts/Pool/HegicInverseOperationalTreasury.sol:HegicInverseOperationalTreasury",
        "label": "_status",
        "offset": 0,
        "slot": "1",
        "type": "t_uint256"
      },
      {
        "astId": 8347,
        "contract": "contracts/Pool/HegicInverseOperationalTreasury.sol:HegicInverseOperationalTreasury",
        "label": "stakeandcoverPool",
        "offset": 0,
        "slot": "2",
        "type": "t_contract(IHegicStakeAndCover)11962"
      },
      {
        "astId": 8358,
        "contract": "contracts/Pool/HegicInverseOperationalTreasury.sol:HegicInverseOperationalTreasury",
        "label": "lockedLiquidity",
        "offset": 0,
        "slot": "3",
        "type": "t_mapping(t_uint256,t_struct(LockedLiquidity)11843_storage)"
      },
      {
        "astId": 8363,
        "contract": "contracts/Pool/HegicInverseOperationalTreasury.sol:HegicInverseOperationalTreasury",
        "label": "lockedByStrategy",
        "offset": 0,
        "slot": "4",
        "type": "t_mapping(t_address,t_uint256)"
      },
      {
        "astId": 8366,
        "contract": "contracts/Pool/HegicInverseOperationalTreasury.sol:HegicInverseOperationalTreasury",
        "label": "benchmark",
        "offset": 0,
        "slot": "5",
        "type": "t_uint256"
      },
      {
        "astId": 8369,
        "contract": "contracts/Pool/HegicInverseOperationalTreasury.sol:HegicInverseOperationalTreasury",
        "label": "lockedPremium",
        "offset": 0,
        "slot": "6",
        "type": "t_uint256"
      },
      {
        "astId": 8372,
        "contract": "contracts/Pool/HegicInverseOperationalTreasury.sol:HegicInverseOperationalTreasury",
        "label": "totalLocked",
        "offset": 0,
        "slot": "7",
        "type": "t_uint256"
      },
      {
        "astId": 8375,
        "contract": "contracts/Pool/HegicInverseOperationalTreasury.sol:HegicInverseOperationalTreasury",
        "label": "totalBalance",
        "offset": 0,
        "slot": "8",
        "type": "t_uint256"
      },
      {
        "astId": 8377,
        "contract": "contracts/Pool/HegicInverseOperationalTreasury.sol:HegicInverseOperationalTreasury",
        "label": "maxLockupPeriod",
        "offset": 0,
        "slot": "9",
        "type": "t_uint256"
      }
    ],
    "types": {
      "t_address": {
        "encoding": "inplace",
        "label": "address",
        "numberOfBytes": "20"
      },
      "t_bool": {
        "encoding": "inplace",
        "label": "bool",
        "numberOfBytes": "1"
      },
      "t_bytes32": {
        "encoding": "inplace",
        "label": "bytes32",
        "numberOfBytes": "32"
      },
      "t_contract(IHegicStakeAndCover)11962": {
        "encoding": "inplace",
        "label": "contract IHegicStakeAndCover",
        "numberOfBytes": "20"
      },
      "t_enum(LockedLiquidityState)11815": {
        "encoding": "inplace",
        "label": "enum IHegicOperationalTreasury.LockedLiquidityState",
        "numberOfBytes": "1"
      },
      "t_mapping(t_address,t_bool)": {
        "encoding": "mapping",
        "key": "t_address",
        "label": "mapping(address => bool)",
        "numberOfBytes": "32",
        "value": "t_bool"
      },
      "t_mapping(t_address,t_uint256)": {
        "encoding": "mapping",
        "key": "t_address",
        "label": "mapping(address => uint256)",
        "numberOfBytes": "32",
        "value": "t_uint256"
      },
      "t_mapping(t_bytes32,t_struct(RoleData)233_storage)": {
        "encoding": "mapping",
        "key": "t_bytes32",
        "label": "mapping(bytes32 => struct AccessControl.RoleData)",
        "numberOfBytes": "32",
        "value": "t_struct(RoleData)233_storage"
      },
      "t_mapping(t_uint256,t_struct(LockedLiquidity)11843_storage)": {
        "encoding": "mapping",
        "key": "t_uint256",
        "label": "mapping(uint256 => struct IHegicOperationalTreasury.LockedLiquidity)",
        "numberOfBytes": "32",
        "value": "t_struct(LockedLiquidity)11843_storage"
      },
      "t_struct(LockedLiquidity)11843_storage": {
        "encoding": "inplace",
        "label": "struct IHegicOperationalTreasury.LockedLiquidity",
        "members": [
          {
            "astId": 11834,
            "contract": "contracts/Pool/HegicInverseOperationalTreasury.sol:HegicInverseOperationalTreasury",
            "label": "state",
            "offset": 0,
            "slot": "0",
            "type": "t_enum(LockedLiquidityState)11815"
          },
          {
            "astId": 11836,
            "contract": "contracts/Pool/HegicInverseOperationalTreasury.sol:HegicInverseOperationalTreasury",
            "label": "strategy",
            "offset": 1,
            "slot": "0",
            "type": "t_address"
          },
          {
            "astId": 11838,
            "contract": "contracts/Pool/HegicInverseOperationalTreasury.sol:HegicInverseOperationalTreasury",
            "label": "negativepnl",
            "offset": 0,
            "slot": "1",
            "type": "t_uint128"
          },
          {
            "astId": 11840,
            "contract": "contracts/Pool/HegicInverseOperationalTreasury.sol:HegicInverseOperationalTreasury",
            "label": "positivepnl",
            "offset": 16,
            "slot": "1",
            "type": "t_uint128"
          },
          {
            "astId": 11842,
            "contract": "contracts/Pool/HegicInverseOperationalTreasury.sol:HegicInverseOperationalTreasury",
            "label": "expiration",
            "offset": 0,
            "slot": "2",
            "type": "t_uint32"
          }
        ],
        "numberOfBytes": "96"
      },
      "t_struct(RoleData)233_storage": {
        "encoding": "inplace",
        "label": "struct AccessControl.RoleData",
        "members": [
          {
            "astId": 230,
            "contract": "contracts/Pool/HegicInverseOperationalTreasury.sol:HegicInverseOperationalTreasury",
            "label": "members",
            "offset": 0,
            "slot": "0",
            "type": "t_mapping(t_address,t_bool)"
          },
          {
            "astId": 232,
            "contract": "contracts/Pool/HegicInverseOperationalTreasury.sol:HegicInverseOperationalTreasury",
            "label": "adminRole",
            "offset": 0,
            "slot": "1",
            "type": "t_bytes32"
          }
        ],
        "numberOfBytes": "64"
      },
      "t_uint128": {
        "encoding": "inplace",
        "label": "uint128",
        "numberOfBytes": "16"
      },
      "t_uint256": {
        "encoding": "inplace",
        "label": "uint256",
        "numberOfBytes": "32"
      },
      "t_uint32": {
        "encoding": "inplace",
        "label": "uint32",
        "numberOfBytes": "4"
      }
    }
  }
}