{
  "address": "0x7a4aF7AAF60292461098edDFA63e4095144331ff",
  "abi": [
    {
      "inputs": [
        {
          "internalType": "contract IHegicOperationalTreasury",
          "name": "_pool",
          "type": "address"
        },
        {
          "internalType": "contract AggregatorV3Interface",
          "name": "_priceProvider",
          "type": "address"
        },
        {
          "internalType": "contract IPremiumCalculator",
          "name": "_pricer",
          "type": "address"
        },
        {
          "internalType": "uint8",
          "name": "_spotDecimals",
          "type": "uint8"
        },
        {
          "internalType": "uint256",
          "name": "limit",
          "type": "uint256"
        }
      ],
      "stateMutability": "nonpayable",
      "type": "constructor"
    },
    {
      "anonymous": false,
      "inputs": [
        {
          "indexed": true,
          "internalType": "uint256",
          "name": "id",
          "type": "uint256"
        },
        {
          "indexed": false,
          "internalType": "uint256",
          "name": "amount",
          "type": "uint256"
        },
        {
          "indexed": false,
          "internalType": "uint256",
          "name": "premium",
          "type": "uint256"
        },
        {
          "indexed": false,
          "internalType": "uint256",
          "name": "strike",
          "type": "uint256"
        },
        {
          "indexed": false,
          "internalType": "uint32",
          "name": "expiration",
          "type": "uint32"
        }
      ],
      "name": "Acquired",
      "type": "event"
    },
    {
      "anonymous": false,
      "inputs": [
        {
          "indexed": true,
          "internalType": "uint256",
          "name": "id",
          "type": "uint256"
        },
        {
          "indexed": false,
          "internalType": "uint256",
          "name": "amount",
          "type": "uint256"
        },
        {
          "indexed": false,
          "internalType": "uint256",
          "name": "premium",
          "type": "uint256"
        },
        {
          "indexed": false,
          "internalType": "uint256",
          "name": "atmStrike",
          "type": "uint256"
        },
        {
          "indexed": false,
          "internalType": "uint256",
          "name": "otmStrike",
          "type": "uint256"
        },
        {
          "indexed": false,
          "internalType": "uint32",
          "name": "expiration",
          "type": "uint32"
        }
      ],
      "name": "AcquiredSpread",
      "type": "event"
    },
    {
      "anonymous": false,
      "inputs": [
        {
          "indexed": true,
          "internalType": "uint256",
          "name": "id",
          "type": "uint256"
        },
        {
          "indexed": false,
          "internalType": "uint256",
          "name": "amount",
          "type": "uint256"
        },
        {
          "indexed": false,
          "internalType": "uint256",
          "name": "premium",
          "type": "uint256"
        },
        {
          "indexed": false,
          "internalType": "uint256",
          "name": "callStrike",
          "type": "uint256"
        },
        {
          "indexed": false,
          "internalType": "uint256",
          "name": "putStrike",
          "type": "uint256"
        },
        {
          "indexed": false,
          "internalType": "uint32",
          "name": "expiration",
          "type": "uint32"
        }
      ],
      "name": "AcquiredStrangle",
      "type": "event"
    },
    {
      "anonymous": false,
      "inputs": [
        {
          "indexed": true,
          "internalType": "address",
          "name": "previousOwner",
          "type": "address"
        },
        {
          "indexed": true,
          "internalType": "address",
          "name": "newOwner",
          "type": "address"
        }
      ],
      "name": "OwnershipTransferred",
      "type": "event"
    },
    {
      "anonymous": false,
      "inputs": [
        {
          "indexed": false,
          "internalType": "uint256",
          "name": "limit",
          "type": "uint256"
        }
      ],
      "name": "SetLimit",
      "type": "event"
    },
    {
      "inputs": [
        {
          "internalType": "address",
          "name": "holder",
          "type": "address"
        },
        {
          "internalType": "uint32",
          "name": "period",
          "type": "uint32"
        },
        {
          "internalType": "uint128",
          "name": "amount",
          "type": "uint128"
        },
        {
          "internalType": "uint256",
          "name": "strike",
          "type": "uint256"
        }
      ],
      "name": "buy",
      "outputs": [
        {
          "internalType": "uint256",
          "name": "id",
          "type": "uint256"
        }
      ],
      "stateMutability": "nonpayable",
      "type": "function"
    },
    {
      "inputs": [
        {
          "internalType": "uint32",
          "name": "period",
          "type": "uint32"
        },
        {
          "internalType": "uint256",
          "name": "amount",
          "type": "uint256"
        },
        {
          "internalType": "uint256",
          "name": "strike",
          "type": "uint256"
        }
      ],
      "name": "calculatePremium",
      "outputs": [
        {
          "internalType": "uint256",
          "name": "premium",
          "type": "uint256"
        },
        {
          "internalType": "uint256",
          "name": "available",
          "type": "uint256"
        }
      ],
      "stateMutability": "view",
      "type": "function"
    },
    {
      "inputs": [],
      "name": "collateralizationRatio",
      "outputs": [
        {
          "internalType": "uint8",
          "name": "",
          "type": "uint8"
        }
      ],
      "stateMutability": "view",
      "type": "function"
    },
    {
      "inputs": [
        {
          "internalType": "uint256",
          "name": "optionID",
          "type": "uint256"
        }
      ],
      "name": "exercise",
      "outputs": [],
      "stateMutability": "nonpayable",
      "type": "function"
    },
    {
      "inputs": [],
      "name": "getLockedByStrategy",
      "outputs": [
        {
          "internalType": "uint256",
          "name": "amount",
          "type": "uint256"
        }
      ],
      "stateMutability": "view",
      "type": "function"
    },
    {
      "inputs": [],
      "name": "k",
      "outputs": [
        {
          "internalType": "uint256",
          "name": "",
          "type": "uint256"
        }
      ],
      "stateMutability": "view",
      "type": "function"
    },
    {
      "inputs": [],
      "name": "lockedLimit",
      "outputs": [
        {
          "internalType": "uint256",
          "name": "",
          "type": "uint256"
        }
      ],
      "stateMutability": "view",
      "type": "function"
    },
    {
      "inputs": [],
      "name": "owner",
      "outputs": [
        {
          "internalType": "address",
          "name": "",
          "type": "address"
        }
      ],
      "stateMutability": "view",
      "type": "function"
    },
    {
      "inputs": [],
      "name": "pool",
      "outputs": [
        {
          "internalType": "contract IHegicOperationalTreasury",
          "name": "",
          "type": "address"
        }
      ],
      "stateMutability": "view",
      "type": "function"
    },
    {
      "inputs": [],
      "name": "priceProvider",
      "outputs": [
        {
          "internalType": "contract AggregatorV3Interface",
          "name": "",
          "type": "address"
        }
      ],
      "stateMutability": "view",
      "type": "function"
    },
    {
      "inputs": [],
      "name": "pricer",
      "outputs": [
        {
          "internalType": "contract IPremiumCalculator",
          "name": "",
          "type": "address"
        }
      ],
      "stateMutability": "view",
      "type": "function"
    },
    {
      "inputs": [
        {
          "internalType": "uint256",
          "name": "optionID",
          "type": "uint256"
        }
      ],
      "name": "profitOf",
      "outputs": [
        {
          "internalType": "uint256",
          "name": "amount",
          "type": "uint256"
        }
      ],
      "stateMutability": "view",
      "type": "function"
    },
    {
      "inputs": [],
      "name": "renounceOwnership",
      "outputs": [],
      "stateMutability": "nonpayable",
      "type": "function"
    },
    {
      "inputs": [
        {
          "internalType": "uint256",
          "name": "value",
          "type": "uint256"
        }
      ],
      "name": "setK",
      "outputs": [],
      "stateMutability": "nonpayable",
      "type": "function"
    },
    {
      "inputs": [
        {
          "internalType": "uint256",
          "name": "value",
          "type": "uint256"
        }
      ],
      "name": "setLimit",
      "outputs": [],
      "stateMutability": "nonpayable",
      "type": "function"
    },
    {
      "inputs": [
        {
          "internalType": "contract IPremiumCalculator",
          "name": "value",
          "type": "address"
        }
      ],
      "name": "setPricer",
      "outputs": [],
      "stateMutability": "nonpayable",
      "type": "function"
    },
    {
      "inputs": [
        {
          "internalType": "uint256",
          "name": "",
          "type": "uint256"
        }
      ],
      "name": "strategyData",
      "outputs": [
        {
          "internalType": "uint128",
          "name": "amount",
          "type": "uint128"
        },
        {
          "internalType": "uint128",
          "name": "strike",
          "type": "uint128"
        }
      ],
      "stateMutability": "view",
      "type": "function"
    },
    {
      "inputs": [
        {
          "internalType": "address",
          "name": "newOwner",
          "type": "address"
        }
      ],
      "name": "transferOwnership",
      "outputs": [],
      "stateMutability": "nonpayable",
      "type": "function"
    }
  ],
  "transactionHash": "0x1d33be767c8b81856ac3a51aa1ef07cc26374e312ce7398a021f7a7e8073c9c4",
  "args": [
    "0xB0F9F032158510cd4a926F9263Abc86bAF7b4Ab3",
    "0x6ce185860a4963106506C203335A2910413708e9",
    "0x4EdfC2057C3BF6Dd3a9Ff64E0fF412A048Ccd006",
    8,
    90000000000
  ],
  "solcInputHash": "264ee48953aea33f233d54b8c17bc0e4",
  "bytecode": "0x60e060405260646005553480156200001657600080fd5b5060405162001e8f38038062001e8f83398101604081905262000039916200010c565b848484600a84866200004b33620000bc565b60018055600480546001600160a01b0319166001600160a01b038616179055606086811b6001600160601b03199081166080529086901b1660a0526002805460ff191660ff85161790556003829055620000a781600a620001ce565b60c05250620002cb9950505050505050505050565b600080546001600160a01b038381166001600160a01b0319831681178455604051919092169283917f8be0079c531659141344cd1fd0a4f28419497f9722a3daafe3b4186f6b6457e09190a35050565b600080600080600060a086880312156200012557600080fd5b85516200013281620002b2565b60208701519095506200014581620002b2565b60408701519094506200015881620002b2565b606087015190935060ff811681146200017057600080fd5b80925050608086015190509295509295909350565b600181815b80851115620001c6578160001904821115620001aa57620001aa6200029c565b80851615620001b857918102915b93841c93908002906200018a565b509250929050565b6000620001df60ff841683620001e6565b9392505050565b600082620001f75750600162000296565b81620002065750600062000296565b81600181146200021f57600281146200022a576200024a565b600191505062000296565b60ff8411156200023e576200023e6200029c565b50506001821b62000296565b5060208310610133831016604e8410600b84101617156200026f575081810a62000296565b6200027b838362000185565b80600019048211156200029257620002926200029c565b0290505b92915050565b634e487b7160e01b600052601160045260246000fd5b6001600160a01b0381168114620002c857600080fd5b50565b60805160601c60a05160601c60c051611b106200037f600039600081816110bb015281816110fa0152818161113901526112c601526000818161023001528181611227015261134601526000818161012001528181610465015281816106390152818161066a015281816107f90152818161094401528181610a2801528181610a4a01528181610b3901528181610d9801528181610e2901528181610eba01528181610f4b015261101b0152611b106000f3fe608060405234801561001057600080fd5b50600436106101165760003560e01c8063b07f0a41116100a2578063d3d5c12111610071578063d3d5c1211461025a578063d6c8d1b414610263578063da3c1a76146102b7578063dcaf9c44146102ca578063f2fde38b146102e957600080fd5b8063b07f0a411461020f578063b4f40c6114610222578063b888879e1461022b578063d03d4aee1461025257600080fd5b806367de8be9116100e957806367de8be9146101af578063715018a6146101c25780637632bffb146101ca5780638da5cb5b146101eb578063a6138ed9146101fc57600080fd5b806316f0115b1461011b57806327ea6f2b1461015f5780632939037014610174578063370a6ae614610187575b600080fd5b6101427f000000000000000000000000000000000000000000000000000000000000000081565b6040516001600160a01b0390911681526020015b60405180910390f35b61017261016d3660046117c9565b6102fc565b005b610172610182366004611712565b61036a565b61019a6101953660046117fb565b6103b6565b60408051928352602083019190915201610156565b6101726101bd3660046117c9565b6103e0565b61017261040f565b6101dd6101d83660046117c9565b610445565b604051908152602001610156565b6000546001600160a01b0316610142565b600454610142906001600160a01b031681565b61017261021d3660046117c9565b610456565b6101dd60055481565b6101427f000000000000000000000000000000000000000000000000000000000000000081565b6101dd6107e1565b6101dd60035481565b6102976102713660046117c9565b6006602052600090815260409020546001600160801b0380821691600160801b90041682565b604080516001600160801b03938416815292909116602083015201610156565b6101dd6102c536600461174c565b610880565b6002546102d79060ff1681565b60405160ff9091168152602001610156565b6101726102f7366004611712565b610c56565b6000546001600160a01b0316331461032f5760405162461bcd60e51b8152600401610326906118f0565b60405180910390fd5b60038190556040518181527f479881bf41e329f328c21c2cbb11514b05a021cd33ea4e5a576ea6bc03874fd69060200160405180910390a150565b6000546001600160a01b031633146103945760405162461bcd60e51b8152600401610326906118f0565b600480546001600160a01b0319166001600160a01b0392909216919091179055565b6000806103ca8563ffffffff168585610cf1565b91506103d68584610d93565b9050935093915050565b6000546001600160a01b0316331461040a5760405162461bcd60e51b8152600401610326906118f0565b600555565b6000546001600160a01b031633146104395760405162461bcd60e51b8152600401610326906118f0565b6104436000611172565b565b6000610450826111c2565b92915050565b6000610461826111c2565b90507f00000000000000000000000000000000000000000000000000000000000000006001600160a01b031663481c6a756040518163ffffffff1660e01b815260040160206040518083038186803b1580156104bc57600080fd5b505afa1580156104d0573d6000803e3d6000fd5b505050506040513d601f19601f820116820180604052508101906104f4919061172f565b60405163430c208160e01b8152336004820152602481018490526001600160a01b03919091169063430c20819060440160206040518083038186803b15801561053c57600080fd5b505afa158015610550573d6000803e3d6000fd5b505050506040513d601f19601f8201168201806040525081019061057491906117a7565b6105dd5760405162461bcd60e51b815260206004820152603460248201527f486567696353747261746567793a204d73672e73656e6465722063616e27742060448201527332bc32b931b4b9b2903a3434b99037b83a34b7b760611b6064820152608401610326565b600081116106375760405162461bcd60e51b815260206004820152602160248201527f486567696353747261746567793a205468652070726f666974206973207a65726044820152606f60f81b6064820152608401610326565b7f00000000000000000000000000000000000000000000000000000000000000006001600160a01b0316638127f0a183837f00000000000000000000000000000000000000000000000000000000000000006001600160a01b031663481c6a756040518163ffffffff1660e01b815260040160206040518083038186803b1580156106c157600080fd5b505afa1580156106d5573d6000803e3d6000fd5b505050506040513d601f19601f820116820180604052508101906106f9919061172f565b6001600160a01b0316636352211e876040518263ffffffff1660e01b815260040161072691815260200190565b60206040518083038186803b15801561073e57600080fd5b505afa158015610752573d6000803e3d6000fd5b505050506040513d601f19601f82011682018060405250810190610776919061172f565b6040516001600160e01b031960e086901b168152600481019390935260248301919091526001600160a01b03166044820152606401600060405180830381600087803b1580156107c557600080fd5b505af11580156107d9573d6000803e3d6000fd5b505050505050565b604051634485558360e01b81523060048201526000907f00000000000000000000000000000000000000000000000000000000000000006001600160a01b03169063448555839060240160206040518083038186803b15801561084357600080fd5b505afa158015610857573d6000803e3d6000fd5b505050506040513d601f19601f8201168201806040525081019061087b91906117e2565b905090565b6000600260015414156108d55760405162461bcd60e51b815260206004820152601f60248201527f5265656e7472616e637947756172643a207265656e7472616e742063616c6c006044820152606401610326565b6002600155816108ea576108e7611341565b91505b60006109068563ffffffff16856001600160801b031685610cf1565b905060006109158587866113e0565b600354604051634485558360e01b8152306004820152919250906001600160801b038316906001600160a01b037f0000000000000000000000000000000000000000000000000000000000000000169063448555839060240160206040518083038186803b15801561098657600080fd5b505afa15801561099a573d6000803e3d6000fd5b505050506040513d601f19601f820116820180604052508101906109be91906117e2565b6109c89190611925565b1115610a225760405162461bcd60e51b8152602060048201526024808201527f486567696353747261746567793a20546865206c696d697420697320657863656044820152631959195960e21b6064820152608401610326565b610aea337f0000000000000000000000000000000000000000000000000000000000000000847f00000000000000000000000000000000000000000000000000000000000000006001600160a01b031663fc0c546a6040518163ffffffff1660e01b815260040160206040518083038186803b158015610aa157600080fd5b505afa158015610ab5573d6000803e3d6000fd5b505050506040513d601f19601f82011682018060405250810190610ad9919061172f565b6001600160a01b031692919061149d565b6000610afc63ffffffff881642611925565b60405163d6a6367760e01b81526001600160a01b038a811660048301526001600160801b038516602483015263ffffffff831660448301529192507f00000000000000000000000000000000000000000000000000000000000000009091169063d6a6367790606401602060405180830381600087803b158015610b7f57600080fd5b505af1158015610b93573d6000803e3d6000fd5b505050506040513d601f19601f82011682018060405250810190610bb791906117e2565b6040805180820182526001600160801b038981168083528982166020808501918252600087815260068252869020945191518416600160801b0291909316179092558251918252810186905290810187905263ffffffff8316606082015290945084907f1cc09915b693fed5c1f699371120d74d3bf06b9f2392d13cd6b001437f3725069060800160405180910390a250506001805550949350505050565b6000546001600160a01b03163314610c805760405162461bcd60e51b8152600401610326906118f0565b6001600160a01b038116610ce55760405162461bcd60e51b815260206004820152602660248201527f4f776e61626c653a206e6577206f776e657220697320746865207a65726f206160448201526564647265737360d01b6064820152608401610326565b610cee81611172565b50565b600081610d0357610d00611341565b91505b6004805460405163055bc75d60e21b815291820186905260248201859052604482018490526001600160a01b03169063156f1d749060640160206040518083038186803b158015610d5357600080fd5b505afa158015610d67573d6000803e3d6000fd5b505050506040513d601f19601f82011682018060405250810190610d8b91906117e2565b949350505050565b6000807f00000000000000000000000000000000000000000000000000000000000000006001600160a01b031663797be55e6040518163ffffffff1660e01b815260040160206040518083038186803b158015610def57600080fd5b505afa158015610e03573d6000803e3d6000fd5b505050506040513d601f19601f82011682018060405250810190610e2791906117e2565b7f00000000000000000000000000000000000000000000000000000000000000006001600160a01b031663568914126040518163ffffffff1660e01b815260040160206040518083038186803b158015610e8057600080fd5b505afa158015610e94573d6000803e3d6000fd5b505050506040513d601f19601f82011682018060405250810190610eb891906117e2565b7f00000000000000000000000000000000000000000000000000000000000000006001600160a01b031663ad7a672f6040518163ffffffff1660e01b815260040160206040518083038186803b158015610f1157600080fd5b505afa158015610f25573d6000803e3d6000fd5b505050506040513d601f19601f82011682018060405250810190610f4991906117e2565b7f00000000000000000000000000000000000000000000000000000000000000006001600160a01b03166346067d696040518163ffffffff1660e01b815260040160206040518083038186803b158015610fa257600080fd5b505afa158015610fb6573d6000803e3d6000fd5b505050506040513d601f19601f82011682018060405250810190610fda91906117e2565b610fe49190611925565b610fee9190611a6c565b610ff89190611a6c565b604051634485558360e01b81523060048201529091506000906001600160a01b037f0000000000000000000000000000000000000000000000000000000000000000169063448555839060240160206040518083038186803b15801561105d57600080fd5b505afa158015611071573d6000803e3d6000fd5b505050506040513d601f19601f8201168201806040525081019061109591906117e2565b6003546110a29190611a6c565b9050836110b4576110b1611341565b93505b60006110e17f000000000000000000000000000000000000000000000000000000000000000087876113e0565b6001600160801b0316905082821115611133578061111f7f000000000000000000000000000000000000000000000000000000000000000085611a4d565b611129919061193d565b9350505050610450565b8061115e7f000000000000000000000000000000000000000000000000000000000000000084611a4d565b611168919061193d565b9695505050505050565b600080546001600160a01b038381166001600160a01b0319831681178455604051919092169283917f8be0079c531659141344cd1fd0a4f28419497f9722a3daafe3b4186f6b6457e09190a35050565b60008181526006602090815260408083208151808301909252546001600160801b038082168352600160801b909104169181019190915281611202611341565b905081602001516001600160801b0316811115611223575060009392505050565b60007f00000000000000000000000000000000000000000000000000000000000000006001600160a01b031663313ce5676040518163ffffffff1660e01b815260040160206040518083038186803b15801561127e57600080fd5b505afa158015611292573d6000803e3d6000fd5b505050506040513d601f19601f820116820180604052508101906112b6919061187e565b6112c190600a6119a2565b9050807f0000000000000000000000000000000000000000000000000000000000000000620f424085600001516001600160801b03168587602001516001600160801b03166113109190611a6c565b61131a9190611a4d565b6113249190611a4d565b61132e919061193d565b611338919061193d565b95945050505050565b6000807f00000000000000000000000000000000000000000000000000000000000000006001600160a01b031663feaf968c6040518163ffffffff1660e01b815260040160a06040518083038186803b15801561139d57600080fd5b505afa1580156113b1573d6000803e3d6000fd5b505050506040513d601f19601f820116820180604052508101906113d5919061182e565b509195945050505050565b6005546004805460405163055bc75d60e21b815263ffffffff8616928101929092526001600160801b03861660248301526044820184905260009260649290916001600160a01b03169063156f1d7490840160206040518083038186803b15801561144a57600080fd5b505afa15801561145e573d6000803e3d6000fd5b505050506040513d601f19601f8201168201806040525081019061148291906117e2565b61148c9190611a4d565b610d8b919061193d565b9392505050565b604080516001600160a01b0385811660248301528416604482015260648082018490528251808303909101815260849091019091526020810180516001600160e01b03166323b872dd60e01b1790526114f79085906114fd565b50505050565b6000611552826040518060400160405280602081526020017f5361666545524332303a206c6f772d6c6576656c2063616c6c206661696c6564815250856001600160a01b03166115d49092919063ffffffff16565b8051909150156115cf578080602001905181019061157091906117a7565b6115cf5760405162461bcd60e51b815260206004820152602a60248201527f5361666545524332303a204552433230206f7065726174696f6e20646964206e6044820152691bdd081cdd58d8d9595960b21b6064820152608401610326565b505050565b6060610d8b848460008585843b61162d5760405162461bcd60e51b815260206004820152601d60248201527f416464726573733a2063616c6c20746f206e6f6e2d636f6e74726163740000006044820152606401610326565b600080866001600160a01b0316858760405161164991906118a1565b60006040518083038185875af1925050503d8060008114611686576040519150601f19603f3d011682016040523d82523d6000602084013e61168b565b606091505b509150915061169b8282866116a6565b979650505050505050565b606083156116b5575081611496565b8251156116c55782518084602001fd5b8160405162461bcd60e51b815260040161032691906118bd565b803563ffffffff811681146116f357600080fd5b919050565b805169ffffffffffffffffffff811681146116f357600080fd5b60006020828403121561172457600080fd5b813561149681611ac5565b60006020828403121561174157600080fd5b815161149681611ac5565b6000806000806080858703121561176257600080fd5b843561176d81611ac5565b935061177b602086016116df565b925060408501356001600160801b038116811461179757600080fd5b9396929550929360600135925050565b6000602082840312156117b957600080fd5b8151801515811461149657600080fd5b6000602082840312156117db57600080fd5b5035919050565b6000602082840312156117f457600080fd5b5051919050565b60008060006060848603121561181057600080fd5b611819846116df565b95602085013595506040909401359392505050565b600080600080600060a0868803121561184657600080fd5b61184f866116f8565b9450602086015193506040860151925060608601519150611872608087016116f8565b90509295509295909350565b60006020828403121561189057600080fd5b815160ff8116811461149657600080fd5b600082516118b3818460208701611a83565b9190910192915050565b60208152600082518060208401526118dc816040850160208701611a83565b601f01601f19169190910160400192915050565b6020808252818101527f4f776e61626c653a2063616c6c6572206973206e6f7420746865206f776e6572604082015260600190565b6000821982111561193857611938611aaf565b500190565b60008261195a57634e487b7160e01b600052601260045260246000fd5b500490565b600181815b8085111561199a57816000190482111561198057611980611aaf565b8085161561198d57918102915b93841c9390800290611964565b509250929050565b600061149660ff8416836000826119bb57506001610450565b816119c857506000610450565b81600181146119de57600281146119e857611a04565b6001915050610450565b60ff8411156119f9576119f9611aaf565b50506001821b610450565b5060208310610133831016604e8410600b8410161715611a27575081810a610450565b611a31838361195f565b8060001904821115611a4557611a45611aaf565b029392505050565b6000816000190483118215151615611a6757611a67611aaf565b500290565b600082821015611a7e57611a7e611aaf565b500390565b60005b83811015611a9e578181015183820152602001611a86565b838111156114f75750506000910152565b634e487b7160e01b600052601160045260246000fd5b6001600160a01b0381168114610cee57600080fdfea264697066735822122051a1b83417a1852e91885a0d30719cc59f3036dfc80bfbd5ff3040b704c204da64736f6c63430008060033",
  "devdoc": {
    "kind": "dev",
    "methods": {
      "buy(address,uint32,uint128,uint256)": {
        "params": {
          "amount": "The option/strategy amount",
          "holder": "The holder address",
          "period": "The option/strategy period",
          "strike": "The option/strategy strike*"
        }
      },
      "exercise(uint256)": {
        "params": {
          "optionID": "The option/strategy ID*"
        }
      },
      "owner()": {
        "details": "Returns the address of the current owner."
      },
      "profitOf(uint256)": {
        "params": {
          "amount": "The unrealized profits amount*",
          "optionID": "The option/strategy ID"
        }
      },
      "renounceOwnership()": {
        "details": "Leaves the contract without owner. It will not be possible to call `onlyOwner` functions anymore. Can only be called by the current owner. NOTE: Renouncing ownership will leave the contract without an owner, thereby removing any functionality that is only available to the owner."
      },
      "setK(uint256)": {
        "params": {
          "value": "The collateralization coefficient*"
        }
      },
      "setLimit(uint256)": {
        "params": {
          "value": "The maximum locked liquidity*"
        }
      },
      "transferOwnership(address)": {
        "details": "Transfers ownership of the contract to a new account (`newOwner`). Can only be called by the current owner."
      }
    },
    "version": 1
  },
  "userdoc": {
    "kind": "user",
    "methods": {
      "buy(address,uint32,uint128,uint256)": {
        "notice": "Used for buying options/strategies"
      },
      "exercise(uint256)": {
        "notice": "Used for exercising an in-the-money option/strategy and taking profits"
      },
      "getLockedByStrategy()": {
        "notice": "Used for viewing the total liquidity locked up for a specific options strategy*"
      },
      "profitOf(uint256)": {
        "notice": "Used for calculating the holder's option/strategy unrealized profits"
      },
      "setK(uint256)": {
        "notice": "Used for setting the collateralization coefficient"
      },
      "setLimit(uint256)": {
        "notice": "Used for setting a limit on the total locked liquidity"
      }
    },
    "version": 1
  },
  "storageLayout": {
    "storage": [
      {
        "astId": 611,
        "contract": "contracts/Strategies/HegicStrategyPut.sol:HegicStrategyPut",
        "label": "_owner",
        "offset": 0,
        "slot": "0",
        "type": "t_address"
      },
      {
        "astId": 810,
        "contract": "contracts/Strategies/HegicStrategyPut.sol:HegicStrategyPut",
        "label": "_status",
        "offset": 0,
        "slot": "1",
        "type": "t_uint256"
      },
      {
        "astId": 15532,
        "contract": "contracts/Strategies/HegicStrategyPut.sol:HegicStrategyPut",
        "label": "collateralizationRatio",
        "offset": 0,
        "slot": "2",
        "type": "t_uint8"
      },
      {
        "astId": 15535,
        "contract": "contracts/Strategies/HegicStrategyPut.sol:HegicStrategyPut",
        "label": "lockedLimit",
        "offset": 0,
        "slot": "3",
        "type": "t_uint256"
      },
      {
        "astId": 15538,
        "contract": "contracts/Strategies/HegicStrategyPut.sol:HegicStrategyPut",
        "label": "pricer",
        "offset": 0,
        "slot": "4",
        "type": "t_contract(IPremiumCalculator)7174"
      },
      {
        "astId": 15546,
        "contract": "contracts/Strategies/HegicStrategyPut.sol:HegicStrategyPut",
        "label": "k",
        "offset": 0,
        "slot": "5",
        "type": "t_uint256"
      },
      {
        "astId": 15556,
        "contract": "contracts/Strategies/HegicStrategyPut.sol:HegicStrategyPut",
        "label": "strategyData",
        "offset": 0,
        "slot": "6",
        "type": "t_mapping(t_uint256,t_struct(StrategyData)15551_storage)"
      }
    ],
    "types": {
      "t_address": {
        "encoding": "inplace",
        "label": "address",
        "numberOfBytes": "20"
      },
      "t_contract(IPremiumCalculator)7174": {
        "encoding": "inplace",
        "label": "contract IPremiumCalculator",
        "numberOfBytes": "20"
      },
      "t_mapping(t_uint256,t_struct(StrategyData)15551_storage)": {
        "encoding": "mapping",
        "key": "t_uint256",
        "label": "mapping(uint256 => struct HegicStrategy.StrategyData)",
        "numberOfBytes": "32",
        "value": "t_struct(StrategyData)15551_storage"
      },
      "t_struct(StrategyData)15551_storage": {
        "encoding": "inplace",
        "label": "struct HegicStrategy.StrategyData",
        "members": [
          {
            "astId": 15548,
            "contract": "contracts/Strategies/HegicStrategyPut.sol:HegicStrategyPut",
            "label": "amount",
            "offset": 0,
            "slot": "0",
            "type": "t_uint128"
          },
          {
            "astId": 15550,
            "contract": "contracts/Strategies/HegicStrategyPut.sol:HegicStrategyPut",
            "label": "strike",
            "offset": 16,
            "slot": "0",
            "type": "t_uint128"
          }
        ],
        "numberOfBytes": "32"
      },
      "t_uint128": {
        "encoding": "inplace",
        "label": "uint128",
        "numberOfBytes": "16"
      },
      "t_uint256": {
        "encoding": "inplace",
        "label": "uint256",
        "numberOfBytes": "32"
      },
      "t_uint8": {
        "encoding": "inplace",
        "label": "uint8",
        "numberOfBytes": "1"
      }
    }
  }
}