{
  "address": "0xA038F2B38CC7E499D516Ce34170332e16c0166A9",
  "abi": [
    {
      "inputs": [
        {
          "internalType": "contract IHegicOperationalTreasury",
          "name": "_pool",
          "type": "address"
        },
        {
          "internalType": "contract AggregatorV3Interface",
          "name": "_priceProvider",
          "type": "address"
        },
        {
          "internalType": "contract IPremiumCalculator",
          "name": "_pricer",
          "type": "address"
        },
        {
          "internalType": "uint8",
          "name": "_spotDecimals",
          "type": "uint8"
        },
        {
          "internalType": "uint256",
          "name": "limit",
          "type": "uint256"
        },
        {
          "internalType": "uint256",
          "name": "percentage",
          "type": "uint256"
        },
        {
          "internalType": "uint8",
          "name": "_roundedDecimals",
          "type": "uint8"
        }
      ],
      "stateMutability": "nonpayable",
      "type": "constructor"
    },
    {
      "anonymous": false,
      "inputs": [
        {
          "indexed": true,
          "internalType": "uint256",
          "name": "id",
          "type": "uint256"
        },
        {
          "indexed": false,
          "internalType": "uint256",
          "name": "amount",
          "type": "uint256"
        },
        {
          "indexed": false,
          "internalType": "uint256",
          "name": "premium",
          "type": "uint256"
        },
        {
          "indexed": false,
          "internalType": "uint256",
          "name": "strike",
          "type": "uint256"
        },
        {
          "indexed": false,
          "internalType": "uint32",
          "name": "expiration",
          "type": "uint32"
        }
      ],
      "name": "Acquired",
      "type": "event"
    },
    {
      "anonymous": false,
      "inputs": [
        {
          "indexed": true,
          "internalType": "uint256",
          "name": "id",
          "type": "uint256"
        },
        {
          "indexed": false,
          "internalType": "uint256",
          "name": "amount",
          "type": "uint256"
        },
        {
          "indexed": false,
          "internalType": "uint256",
          "name": "premium",
          "type": "uint256"
        },
        {
          "indexed": false,
          "internalType": "uint256",
          "name": "atmStrike",
          "type": "uint256"
        },
        {
          "indexed": false,
          "internalType": "uint256",
          "name": "otmStrike",
          "type": "uint256"
        },
        {
          "indexed": false,
          "internalType": "uint32",
          "name": "expiration",
          "type": "uint32"
        }
      ],
      "name": "AcquiredSpread",
      "type": "event"
    },
    {
      "anonymous": false,
      "inputs": [
        {
          "indexed": true,
          "internalType": "uint256",
          "name": "id",
          "type": "uint256"
        },
        {
          "indexed": false,
          "internalType": "uint256",
          "name": "amount",
          "type": "uint256"
        },
        {
          "indexed": false,
          "internalType": "uint256",
          "name": "premium",
          "type": "uint256"
        },
        {
          "indexed": false,
          "internalType": "uint256",
          "name": "callStrike",
          "type": "uint256"
        },
        {
          "indexed": false,
          "internalType": "uint256",
          "name": "putStrike",
          "type": "uint256"
        },
        {
          "indexed": false,
          "internalType": "uint32",
          "name": "expiration",
          "type": "uint32"
        }
      ],
      "name": "AcquiredStrangle",
      "type": "event"
    },
    {
      "anonymous": false,
      "inputs": [
        {
          "indexed": true,
          "internalType": "address",
          "name": "previousOwner",
          "type": "address"
        },
        {
          "indexed": true,
          "internalType": "address",
          "name": "newOwner",
          "type": "address"
        }
      ],
      "name": "OwnershipTransferred",
      "type": "event"
    },
    {
      "anonymous": false,
      "inputs": [
        {
          "indexed": false,
          "internalType": "uint256",
          "name": "limit",
          "type": "uint256"
        }
      ],
      "name": "SetLimit",
      "type": "event"
    },
    {
      "inputs": [
        {
          "internalType": "address",
          "name": "holder",
          "type": "address"
        },
        {
          "internalType": "uint32",
          "name": "period",
          "type": "uint32"
        },
        {
          "internalType": "uint128",
          "name": "amount",
          "type": "uint128"
        },
        {
          "internalType": "uint256",
          "name": "strike",
          "type": "uint256"
        }
      ],
      "name": "buy",
      "outputs": [
        {
          "internalType": "uint256",
          "name": "id",
          "type": "uint256"
        }
      ],
      "stateMutability": "nonpayable",
      "type": "function"
    },
    {
      "inputs": [
        {
          "internalType": "uint32",
          "name": "period",
          "type": "uint32"
        },
        {
          "internalType": "uint256",
          "name": "amount",
          "type": "uint256"
        },
        {
          "internalType": "uint256",
          "name": "strike",
          "type": "uint256"
        }
      ],
      "name": "calculatePremium",
      "outputs": [
        {
          "internalType": "uint256",
          "name": "premium",
          "type": "uint256"
        },
        {
          "internalType": "uint256",
          "name": "available",
          "type": "uint256"
        }
      ],
      "stateMutability": "view",
      "type": "function"
    },
    {
      "inputs": [],
      "name": "collateralizationRatio",
      "outputs": [
        {
          "internalType": "uint8",
          "name": "",
          "type": "uint8"
        }
      ],
      "stateMutability": "view",
      "type": "function"
    },
    {
      "inputs": [
        {
          "internalType": "uint256",
          "name": "optionID",
          "type": "uint256"
        }
      ],
      "name": "exercise",
      "outputs": [],
      "stateMutability": "nonpayable",
      "type": "function"
    },
    {
      "inputs": [],
      "name": "getLockedByStrategy",
      "outputs": [
        {
          "internalType": "uint256",
          "name": "amount",
          "type": "uint256"
        }
      ],
      "stateMutability": "view",
      "type": "function"
    },
    {
      "inputs": [],
      "name": "k",
      "outputs": [
        {
          "internalType": "uint256",
          "name": "",
          "type": "uint256"
        }
      ],
      "stateMutability": "view",
      "type": "function"
    },
    {
      "inputs": [],
      "name": "lockedLimit",
      "outputs": [
        {
          "internalType": "uint256",
          "name": "",
          "type": "uint256"
        }
      ],
      "stateMutability": "view",
      "type": "function"
    },
    {
      "inputs": [],
      "name": "owner",
      "outputs": [
        {
          "internalType": "address",
          "name": "",
          "type": "address"
        }
      ],
      "stateMutability": "view",
      "type": "function"
    },
    {
      "inputs": [],
      "name": "pool",
      "outputs": [
        {
          "internalType": "contract IHegicOperationalTreasury",
          "name": "",
          "type": "address"
        }
      ],
      "stateMutability": "view",
      "type": "function"
    },
    {
      "inputs": [],
      "name": "priceProvider",
      "outputs": [
        {
          "internalType": "contract AggregatorV3Interface",
          "name": "",
          "type": "address"
        }
      ],
      "stateMutability": "view",
      "type": "function"
    },
    {
      "inputs": [],
      "name": "pricer",
      "outputs": [
        {
          "internalType": "contract IPremiumCalculator",
          "name": "",
          "type": "address"
        }
      ],
      "stateMutability": "view",
      "type": "function"
    },
    {
      "inputs": [
        {
          "internalType": "uint256",
          "name": "optionID",
          "type": "uint256"
        }
      ],
      "name": "profitOf",
      "outputs": [
        {
          "internalType": "uint256",
          "name": "amount",
          "type": "uint256"
        }
      ],
      "stateMutability": "view",
      "type": "function"
    },
    {
      "inputs": [],
      "name": "renounceOwnership",
      "outputs": [],
      "stateMutability": "nonpayable",
      "type": "function"
    },
    {
      "inputs": [
        {
          "internalType": "uint256",
          "name": "value",
          "type": "uint256"
        },
        {
          "internalType": "uint8",
          "name": "decimals",
          "type": "uint8"
        }
      ],
      "name": "round",
      "outputs": [
        {
          "internalType": "uint256",
          "name": "roundedValue",
          "type": "uint256"
        }
      ],
      "stateMutability": "pure",
      "type": "function"
    },
    {
      "inputs": [
        {
          "internalType": "uint256",
          "name": "value",
          "type": "uint256"
        }
      ],
      "name": "setK",
      "outputs": [],
      "stateMutability": "nonpayable",
      "type": "function"
    },
    {
      "inputs": [
        {
          "internalType": "uint256",
          "name": "value",
          "type": "uint256"
        }
      ],
      "name": "setLimit",
      "outputs": [],
      "stateMutability": "nonpayable",
      "type": "function"
    },
    {
      "inputs": [
        {
          "internalType": "contract IPremiumCalculator",
          "name": "value",
          "type": "address"
        }
      ],
      "name": "setPricer",
      "outputs": [],
      "stateMutability": "nonpayable",
      "type": "function"
    },
    {
      "inputs": [
        {
          "internalType": "uint256",
          "name": "",
          "type": "uint256"
        }
      ],
      "name": "strategyData",
      "outputs": [
        {
          "internalType": "uint128",
          "name": "amount",
          "type": "uint128"
        },
        {
          "internalType": "uint128",
          "name": "strike",
          "type": "uint128"
        }
      ],
      "stateMutability": "view",
      "type": "function"
    },
    {
      "inputs": [],
      "name": "strikePercentage",
      "outputs": [
        {
          "internalType": "uint256",
          "name": "",
          "type": "uint256"
        }
      ],
      "stateMutability": "view",
      "type": "function"
    },
    {
      "inputs": [
        {
          "internalType": "address",
          "name": "newOwner",
          "type": "address"
        }
      ],
      "name": "transferOwnership",
      "outputs": [],
      "stateMutability": "nonpayable",
      "type": "function"
    }
  ],
  "transactionHash": "0x4ef118b7fdad8d2fabdbae29e802dc46ea5a42f53d523244a4595d6969964ed2",
  "args": [
    "0xB0F9F032158510cd4a926F9263Abc86bAF7b4Ab3",
    "0x639Fe6ab55C921f74e7fac1ee960C0B6293ba612",
    "0x30CffE3CACe98D297C586831741f06f115963F56",
    18,
    33333000000,
    70,
    10
  ],
  "solcInputHash": "264ee48953aea33f233d54b8c17bc0e4",
  "bytecode": "0x60e060405260646005553480156200001657600080fd5b50604051620020ce380380620020ce83398101604081905262000039916200013d565b868686600a86886200004b33620000d6565b60018055600480546001600160a01b0319166001600160a01b038616179055606086811b6001600160601b03199081166080529086901b1660a0526002805460ff191660ff85161790556003829055620000a781600a62000211565b60c05250505060089490945550506007805460ff191660ff92909216919091179055506200030e945050505050565b600080546001600160a01b038381166001600160a01b0319831681178455604051919092169283917f8be0079c531659141344cd1fd0a4f28419497f9722a3daafe3b4186f6b6457e09190a35050565b805160ff811681146200013857600080fd5b919050565b600080600080600080600060e0888a0312156200015957600080fd5b87516200016681620002f5565b60208901519097506200017981620002f5565b60408901519096506200018c81620002f5565b94506200019c6060890162000126565b93506080880151925060a08801519150620001ba60c0890162000126565b905092959891949750929550565b600181815b8085111562000209578160001904821115620001ed57620001ed620002df565b80851615620001fb57918102915b93841c9390800290620001cd565b509250929050565b60006200022260ff84168362000229565b9392505050565b6000826200023a57506001620002d9565b816200024957506000620002d9565b81600181146200026257600281146200026d576200028d565b6001915050620002d9565b60ff841115620002815762000281620002df565b50506001821b620002d9565b5060208310610133831016604e8410600b8410161715620002b2575081810a620002d9565b620002be8383620001c8565b8060001904821115620002d557620002d5620002df565b0290505b92915050565b634e487b7160e01b600052601160045260246000fd5b6001600160a01b03811681146200030b57600080fd5b50565b60805160601c60a05160601c60c051611d05620003c9600039600081816111ad015281816111ec0152818161122b015281816113dd015261146801526000818161024f0152818161131e01526114c3015260008181610152015281816104970152818161066b0152818161069c015281816108be01528181610a3501528181610b1901528181610b3b01528181610c2a01528181610e8a01528181610f1b01528181610fac0152818161103d015261110d0152611d056000f3fe608060405234801561001057600080fd5b506004361061012c5760003560e01c8063b07f0a41116100ad578063d3d5c12111610071578063d3d5c1211461028c578063d6c8d1b414610295578063da3c1a76146102e9578063dcaf9c44146102fc578063f2fde38b1461031b57600080fd5b8063b07f0a411461022e578063b4f40c6114610241578063b888879e1461024a578063cd6b9d2814610271578063d03d4aee1461028457600080fd5b806367de8be9116100f457806367de8be9146101dc578063715018a6146101ef5780637632bffb146101f75780638da5cb5b1461020a578063a6138ed91461021b57600080fd5b806310ca5c0f1461013157806316f0115b1461014d57806327ea6f2b1461018c57806329390370146101a1578063370a6ae6146101b4575b600080fd5b61013a60085481565b6040519081526020015b60405180910390f35b6101747f000000000000000000000000000000000000000000000000000000000000000081565b6040516001600160a01b039091168152602001610144565b61019f61019a366004611946565b61032e565b005b61019f6101af36600461188f565b61039c565b6101c76101c23660046119a8565b6103e8565b60408051928352602083019190915201610144565b61019f6101ea366004611946565b610412565b61019f610441565b61013a610205366004611946565b610477565b6000546001600160a01b0316610174565b600454610174906001600160a01b031681565b61019f61023c366004611946565b610488565b61013a60055481565b6101747f000000000000000000000000000000000000000000000000000000000000000081565b61013a61027f366004611978565b610813565b61013a6108a6565b61013a60035481565b6102c96102a3366004611946565b6006602052600090815260409020546001600160801b0380821691600160801b90041682565b604080516001600160801b03938416815292909116602083015201610144565b61013a6102f73660046118c9565b610945565b6002546103099060ff1681565b60405160ff9091168152602001610144565b61019f61032936600461188f565b610d50565b6000546001600160a01b031633146103615760405162461bcd60e51b815260040161035890611a97565b60405180910390fd5b60038190556040518181527f479881bf41e329f328c21c2cbb11514b05a021cd33ea4e5a576ea6bc03874fd69060200160405180910390a150565b6000546001600160a01b031633146103c65760405162461bcd60e51b815260040161035890611a97565b600480546001600160a01b0319166001600160a01b0392909216919091179055565b6000806103fc8563ffffffff168585610deb565b91506104088584610e85565b9050935093915050565b6000546001600160a01b0316331461043c5760405162461bcd60e51b815260040161035890611a97565b600555565b6000546001600160a01b0316331461046b5760405162461bcd60e51b815260040161035890611a97565b6104756000611264565b565b6000610482826112b4565b92915050565b6000610493826112b4565b90507f00000000000000000000000000000000000000000000000000000000000000006001600160a01b031663481c6a756040518163ffffffff1660e01b815260040160206040518083038186803b1580156104ee57600080fd5b505afa158015610502573d6000803e3d6000fd5b505050506040513d601f19601f8201168201806040525081019061052691906118ac565b60405163430c208160e01b8152336004820152602481018490526001600160a01b03919091169063430c20819060440160206040518083038186803b15801561056e57600080fd5b505afa158015610582573d6000803e3d6000fd5b505050506040513d601f19601f820116820180604052508101906105a69190611924565b61060f5760405162461bcd60e51b815260206004820152603460248201527f486567696353747261746567793a204d73672e73656e6465722063616e27742060448201527332bc32b931b4b9b2903a3434b99037b83a34b7b760611b6064820152608401610358565b600081116106695760405162461bcd60e51b815260206004820152602160248201527f486567696353747261746567793a205468652070726f666974206973207a65726044820152606f60f81b6064820152608401610358565b7f00000000000000000000000000000000000000000000000000000000000000006001600160a01b0316638127f0a183837f00000000000000000000000000000000000000000000000000000000000000006001600160a01b031663481c6a756040518163ffffffff1660e01b815260040160206040518083038186803b1580156106f357600080fd5b505afa158015610707573d6000803e3d6000fd5b505050506040513d601f19601f8201168201806040525081019061072b91906118ac565b6001600160a01b0316636352211e876040518263ffffffff1660e01b815260040161075891815260200190565b60206040518083038186803b15801561077057600080fd5b505afa158015610784573d6000803e3d6000fd5b505050506040513d601f19601f820116820180604052508101906107a891906118ac565b6040516001600160e01b031960e086901b168152600481019390935260248301919091526001600160a01b03166044820152606401600060405180830381600087803b1580156107f757600080fd5b505af115801561080b573d6000803e3d6000fd5b505050505050565b600080610821600184611c1c565b61082c90600a611b3b565b6108369085611ae4565b90506005610845600a83611c6b565b10156108735761085683600a611b3b565b610861600a83611ae4565b61086b9190611be6565b915050610482565b61087e83600a611b3b565b610889600a83611ae4565b610894906001611acc565b61089e9190611be6565b949350505050565b604051634485558360e01b81523060048201526000907f00000000000000000000000000000000000000000000000000000000000000006001600160a01b03169063448555839060240160206040518083038186803b15801561090857600080fd5b505afa15801561091c573d6000803e3d6000fd5b505050506040513d601f19601f82011682018060405250810190610940919061195f565b905090565b60006002600154141561099a5760405162461bcd60e51b815260206004820152601f60248201527f5265656e7472616e637947756172643a207265656e7472616e742063616c6c006044820152606401610358565b6002600155816109af576109ac6114be565b91505b60006109cb8563ffffffff16856001600160801b031685610deb565b905060006109da85878661155d565b90506000610a066064600854876109f19190611be6565b6109fb9190611ae4565b60075460ff16610813565b600354604051634485558360e01b8152306004820152919250906001600160801b038416906001600160a01b037f0000000000000000000000000000000000000000000000000000000000000000169063448555839060240160206040518083038186803b158015610a7757600080fd5b505afa158015610a8b573d6000803e3d6000fd5b505050506040513d601f19601f82011682018060405250810190610aaf919061195f565b610ab99190611acc565b1115610b135760405162461bcd60e51b8152602060048201526024808201527f486567696353747261746567793a20546865206c696d697420697320657863656044820152631959195960e21b6064820152608401610358565b610bdb337f0000000000000000000000000000000000000000000000000000000000000000857f00000000000000000000000000000000000000000000000000000000000000006001600160a01b031663fc0c546a6040518163ffffffff1660e01b815260040160206040518083038186803b158015610b9257600080fd5b505afa158015610ba6573d6000803e3d6000fd5b505050506040513d601f19601f82011682018060405250810190610bca91906118ac565b6001600160a01b031692919061161a565b6000610bed63ffffffff891642611acc565b60405163d6a6367760e01b81526001600160a01b038b811660048301526001600160801b038616602483015263ffffffff831660448301529192507f00000000000000000000000000000000000000000000000000000000000000009091169063d6a6367790606401602060405180830381600087803b158015610c7057600080fd5b505af1158015610c84573d6000803e3d6000fd5b505050506040513d601f19601f82011682018060405250810190610ca8919061195f565b6040805180820182526001600160801b038a81168083528a82166020808501918252600087815260068252869020945191518416600160801b029190931617909255825191825281018790529081018890526060810184905263ffffffff8316608082015290955085907ff5651c3e067cd659a7ed5d7301e821e52fa3eb7e1618b8bf63ab265f5844c5a29060a00160405180910390a2505060018055509095945050505050565b6000546001600160a01b03163314610d7a5760405162461bcd60e51b815260040161035890611a97565b6001600160a01b038116610ddf5760405162461bcd60e51b815260206004820152602660248201527f4f776e61626c653a206e6577206f776e657220697320746865207a65726f206160448201526564647265737360d01b6064820152608401610358565b610de881611264565b50565b600081610dfd57610dfa6114be565b91505b6004805460405163055bc75d60e21b815291820186905260248201859052604482018490526001600160a01b03169063156f1d749060640160206040518083038186803b158015610e4d57600080fd5b505afa158015610e61573d6000803e3d6000fd5b505050506040513d601f19601f8201168201806040525081019061089e919061195f565b6000807f00000000000000000000000000000000000000000000000000000000000000006001600160a01b031663797be55e6040518163ffffffff1660e01b815260040160206040518083038186803b158015610ee157600080fd5b505afa158015610ef5573d6000803e3d6000fd5b505050506040513d601f19601f82011682018060405250810190610f19919061195f565b7f00000000000000000000000000000000000000000000000000000000000000006001600160a01b031663568914126040518163ffffffff1660e01b815260040160206040518083038186803b158015610f7257600080fd5b505afa158015610f86573d6000803e3d6000fd5b505050506040513d601f19601f82011682018060405250810190610faa919061195f565b7f00000000000000000000000000000000000000000000000000000000000000006001600160a01b031663ad7a672f6040518163ffffffff1660e01b815260040160206040518083038186803b15801561100357600080fd5b505afa158015611017573d6000803e3d6000fd5b505050506040513d601f19601f8201168201806040525081019061103b919061195f565b7f00000000000000000000000000000000000000000000000000000000000000006001600160a01b03166346067d696040518163ffffffff1660e01b815260040160206040518083038186803b15801561109457600080fd5b505afa1580156110a8573d6000803e3d6000fd5b505050506040513d601f19601f820116820180604052508101906110cc919061195f565b6110d69190611acc565b6110e09190611c05565b6110ea9190611c05565b604051634485558360e01b81523060048201529091506000906001600160a01b037f0000000000000000000000000000000000000000000000000000000000000000169063448555839060240160206040518083038186803b15801561114f57600080fd5b505afa158015611163573d6000803e3d6000fd5b505050506040513d601f19601f82011682018060405250810190611187919061195f565b6003546111949190611c05565b9050836111a6576111a36114be565b93505b60006111d37f0000000000000000000000000000000000000000000000000000000000000000878761155d565b6001600160801b031690508282111561122557806112117f000000000000000000000000000000000000000000000000000000000000000085611be6565b61121b9190611ae4565b9350505050610482565b806112507f000000000000000000000000000000000000000000000000000000000000000084611be6565b61125a9190611ae4565b9695505050505050565b600080546001600160a01b038381166001600160a01b0319831681178455604051919092169283917f8be0079c531659141344cd1fd0a4f28419497f9722a3daafe3b4186f6b6457e09190a35050565b60008181526006602090815260408083208151808301909252546001600160801b038082168352600160801b9091041691810191909152816112f46114be565b90506000611318606460085485602001516001600160801b03166109f19190611be6565b905060007f00000000000000000000000000000000000000000000000000000000000000006001600160a01b031663313ce5676040518163ffffffff1660e01b815260040160206040518083038186803b15801561137557600080fd5b505afa158015611389573d6000803e3d6000fd5b505050506040513d601f19601f820116820180604052508101906113ad9190611a2b565b6113b890600a611b3b565b905083602001516001600160801b0316831080156113d557508183115b1561144557807f0000000000000000000000000000000000000000000000000000000000000000620f424086600001516001600160801b03168688602001516001600160801b03166114279190611c05565b6114319190611be6565b61143b9190611be6565b6112509190611ae4565b83602001516001600160801b03168310801561146057508183105b156114b257807f0000000000000000000000000000000000000000000000000000000000000000620f424086600001516001600160801b03168588602001516001600160801b03166114279190611c05565b50600095945050505050565b6000807f00000000000000000000000000000000000000000000000000000000000000006001600160a01b031663feaf968c6040518163ffffffff1660e01b815260040160a06040518083038186803b15801561151a57600080fd5b505afa15801561152e573d6000803e3d6000fd5b505050506040513d601f19601f8201168201806040525081019061155291906119db565b509195945050505050565b6005546004805460405163055bc75d60e21b815263ffffffff8616928101929092526001600160801b03861660248301526044820184905260009260649290916001600160a01b03169063156f1d7490840160206040518083038186803b1580156115c757600080fd5b505afa1580156115db573d6000803e3d6000fd5b505050506040513d601f19601f820116820180604052508101906115ff919061195f565b6116099190611be6565b61089e9190611ae4565b9392505050565b604080516001600160a01b0385811660248301528416604482015260648082018490528251808303909101815260849091019091526020810180516001600160e01b03166323b872dd60e01b17905261167490859061167a565b50505050565b60006116cf826040518060400160405280602081526020017f5361666545524332303a206c6f772d6c6576656c2063616c6c206661696c6564815250856001600160a01b03166117519092919063ffffffff16565b80519091501561174c57808060200190518101906116ed9190611924565b61174c5760405162461bcd60e51b815260206004820152602a60248201527f5361666545524332303a204552433230206f7065726174696f6e20646964206e6044820152691bdd081cdd58d8d9595960b21b6064820152608401610358565b505050565b606061089e848460008585843b6117aa5760405162461bcd60e51b815260206004820152601d60248201527f416464726573733a2063616c6c20746f206e6f6e2d636f6e74726163740000006044820152606401610358565b600080866001600160a01b031685876040516117c69190611a48565b60006040518083038185875af1925050503d8060008114611803576040519150601f19603f3d011682016040523d82523d6000602084013e611808565b606091505b5091509150611818828286611823565b979650505050505050565b60608315611832575081611613565b8251156118425782518084602001fd5b8160405162461bcd60e51b81526004016103589190611a64565b803563ffffffff8116811461187057600080fd5b919050565b805169ffffffffffffffffffff8116811461187057600080fd5b6000602082840312156118a157600080fd5b813561161381611cab565b6000602082840312156118be57600080fd5b815161161381611cab565b600080600080608085870312156118df57600080fd5b84356118ea81611cab565b93506118f86020860161185c565b925060408501356001600160801b038116811461191457600080fd5b9396929550929360600135925050565b60006020828403121561193657600080fd5b8151801515811461161357600080fd5b60006020828403121561195857600080fd5b5035919050565b60006020828403121561197157600080fd5b5051919050565b6000806040838503121561198b57600080fd5b82359150602083013561199d81611cc0565b809150509250929050565b6000806000606084860312156119bd57600080fd5b6119c68461185c565b95602085013595506040909401359392505050565b600080600080600060a086880312156119f357600080fd5b6119fc86611875565b9450602086015193506040860151925060608601519150611a1f60808701611875565b90509295509295909350565b600060208284031215611a3d57600080fd5b815161161381611cc0565b60008251611a5a818460208701611c3f565b9190910192915050565b6020815260008251806020840152611a83816040850160208701611c3f565b601f01601f19169190910160400192915050565b6020808252818101527f4f776e61626c653a2063616c6c6572206973206e6f7420746865206f776e6572604082015260600190565b60008219821115611adf57611adf611c7f565b500190565b600082611af357611af3611c95565b500490565b600181815b80851115611b33578160001904821115611b1957611b19611c7f565b80851615611b2657918102915b93841c9390800290611afd565b509250929050565b600061161360ff841683600082611b5457506001610482565b81611b6157506000610482565b8160018114611b775760028114611b8157611b9d565b6001915050610482565b60ff841115611b9257611b92611c7f565b50506001821b610482565b5060208310610133831016604e8410600b8410161715611bc0575081810a610482565b611bca8383611af8565b8060001904821115611bde57611bde611c7f565b029392505050565b6000816000190483118215151615611c0057611c00611c7f565b500290565b600082821015611c1757611c17611c7f565b500390565b600060ff821660ff841680821015611c3657611c36611c7f565b90039392505050565b60005b83811015611c5a578181015183820152602001611c42565b838111156116745750506000910152565b600082611c7a57611c7a611c95565b500690565b634e487b7160e01b600052601160045260246000fd5b634e487b7160e01b600052601260045260246000fd5b6001600160a01b0381168114610de857600080fd5b60ff81168114610de857600080fdfea264697066735822122059b6cc67fd2cbd002099eb357b753aa8b3a2846f743ec1cdc3c7e9a22fa5b50564736f6c63430008060033",
  "devdoc": {
    "kind": "dev",
    "methods": {
      "buy(address,uint32,uint128,uint256)": {
        "params": {
          "amount": "The option/strategy amount",
          "holder": "The holder address",
          "period": "The option/strategy period",
          "strike": "The option/strategy strike*"
        }
      },
      "exercise(uint256)": {
        "params": {
          "optionID": "The option/strategy ID*"
        }
      },
      "owner()": {
        "details": "Returns the address of the current owner."
      },
      "profitOf(uint256)": {
        "params": {
          "amount": "The unrealized profits amount*",
          "optionID": "The option/strategy ID"
        }
      },
      "renounceOwnership()": {
        "details": "Leaves the contract without owner. It will not be possible to call `onlyOwner` functions anymore. Can only be called by the current owner. NOTE: Renouncing ownership will leave the contract without an owner, thereby removing any functionality that is only available to the owner."
      },
      "setK(uint256)": {
        "params": {
          "value": "The collateralization coefficient*"
        }
      },
      "setLimit(uint256)": {
        "params": {
          "value": "The maximum locked liquidity*"
        }
      },
      "transferOwnership(address)": {
        "details": "Transfers ownership of the contract to a new account (`newOwner`). Can only be called by the current owner."
      }
    },
    "version": 1
  },
  "userdoc": {
    "kind": "user",
    "methods": {
      "buy(address,uint32,uint128,uint256)": {
        "notice": "Used for buying options/strategies"
      },
      "exercise(uint256)": {
        "notice": "Used for exercising an in-the-money option/strategy and taking profits"
      },
      "getLockedByStrategy()": {
        "notice": "Used for viewing the total liquidity locked up for a specific options strategy*"
      },
      "profitOf(uint256)": {
        "notice": "Used for calculating the holder's option/strategy unrealized profits"
      },
      "setK(uint256)": {
        "notice": "Used for setting the collateralization coefficient"
      },
      "setLimit(uint256)": {
        "notice": "Used for setting a limit on the total locked liquidity"
      }
    },
    "version": 1
  },
  "storageLayout": {
    "storage": [
      {
        "astId": 611,
        "contract": "contracts/Strategies/HegicStrategySpreadPut.sol:HegicStrategySpreadPut",
        "label": "_owner",
        "offset": 0,
        "slot": "0",
        "type": "t_address"
      },
      {
        "astId": 810,
        "contract": "contracts/Strategies/HegicStrategySpreadPut.sol:HegicStrategySpreadPut",
        "label": "_status",
        "offset": 0,
        "slot": "1",
        "type": "t_uint256"
      },
      {
        "astId": 15532,
        "contract": "contracts/Strategies/HegicStrategySpreadPut.sol:HegicStrategySpreadPut",
        "label": "collateralizationRatio",
        "offset": 0,
        "slot": "2",
        "type": "t_uint8"
      },
      {
        "astId": 15535,
        "contract": "contracts/Strategies/HegicStrategySpreadPut.sol:HegicStrategySpreadPut",
        "label": "lockedLimit",
        "offset": 0,
        "slot": "3",
        "type": "t_uint256"
      },
      {
        "astId": 15538,
        "contract": "contracts/Strategies/HegicStrategySpreadPut.sol:HegicStrategySpreadPut",
        "label": "pricer",
        "offset": 0,
        "slot": "4",
        "type": "t_contract(IPremiumCalculator)7174"
      },
      {
        "astId": 15546,
        "contract": "contracts/Strategies/HegicStrategySpreadPut.sol:HegicStrategySpreadPut",
        "label": "k",
        "offset": 0,
        "slot": "5",
        "type": "t_uint256"
      },
      {
        "astId": 15556,
        "contract": "contracts/Strategies/HegicStrategySpreadPut.sol:HegicStrategySpreadPut",
        "label": "strategyData",
        "offset": 0,
        "slot": "6",
        "type": "t_mapping(t_uint256,t_struct(StrategyData)15551_storage)"
      },
      {
        "astId": 16543,
        "contract": "contracts/Strategies/HegicStrategySpreadPut.sol:HegicStrategySpreadPut",
        "label": "roundedDecimals",
        "offset": 0,
        "slot": "7",
        "type": "t_uint8"
      },
      {
        "astId": 16545,
        "contract": "contracts/Strategies/HegicStrategySpreadPut.sol:HegicStrategySpreadPut",
        "label": "strikePercentage",
        "offset": 0,
        "slot": "8",
        "type": "t_uint256"
      }
    ],
    "types": {
      "t_address": {
        "encoding": "inplace",
        "label": "address",
        "numberOfBytes": "20"
      },
      "t_contract(IPremiumCalculator)7174": {
        "encoding": "inplace",
        "label": "contract IPremiumCalculator",
        "numberOfBytes": "20"
      },
      "t_mapping(t_uint256,t_struct(StrategyData)15551_storage)": {
        "encoding": "mapping",
        "key": "t_uint256",
        "label": "mapping(uint256 => struct HegicStrategy.StrategyData)",
        "numberOfBytes": "32",
        "value": "t_struct(StrategyData)15551_storage"
      },
      "t_struct(StrategyData)15551_storage": {
        "encoding": "inplace",
        "label": "struct HegicStrategy.StrategyData",
        "members": [
          {
            "astId": 15548,
            "contract": "contracts/Strategies/HegicStrategySpreadPut.sol:HegicStrategySpreadPut",
            "label": "amount",
            "offset": 0,
            "slot": "0",
            "type": "t_uint128"
          },
          {
            "astId": 15550,
            "contract": "contracts/Strategies/HegicStrategySpreadPut.sol:HegicStrategySpreadPut",
            "label": "strike",
            "offset": 16,
            "slot": "0",
            "type": "t_uint128"
          }
        ],
        "numberOfBytes": "32"
      },
      "t_uint128": {
        "encoding": "inplace",
        "label": "uint128",
        "numberOfBytes": "16"
      },
      "t_uint256": {
        "encoding": "inplace",
        "label": "uint256",
        "numberOfBytes": "32"
      },
      "t_uint8": {
        "encoding": "inplace",
        "label": "uint8",
        "numberOfBytes": "1"
      }
    }
  }
}