{
  "address": "0x570438b7b9C7FF075C768B093271B79152cf1BdC",
  "abi": [
    {
      "inputs": [
        {
          "internalType": "contract IPremiumCalculator[2]",
          "name": "_basePricers",
          "type": "address[2]"
        },
        {
          "internalType": "int256[2]",
          "name": "_coeficients",
          "type": "int256[2]"
        }
      ],
      "stateMutability": "nonpayable",
      "type": "constructor"
    },
    {
      "anonymous": false,
      "inputs": [
        {
          "indexed": true,
          "internalType": "address",
          "name": "previousOwner",
          "type": "address"
        },
        {
          "indexed": true,
          "internalType": "address",
          "name": "newOwner",
          "type": "address"
        }
      ],
      "name": "OwnershipTransferred",
      "type": "event"
    },
    {
      "anonymous": false,
      "inputs": [
        {
          "indexed": false,
          "internalType": "uint256[3]",
          "name": "values",
          "type": "uint256[3]"
        }
      ],
      "name": "SetBorders",
      "type": "event"
    },
    {
      "anonymous": false,
      "inputs": [
        {
          "indexed": false,
          "internalType": "int256[5]",
          "name": "values",
          "type": "int256[5]"
        }
      ],
      "name": "SetDiscontCall",
      "type": "event"
    },
    {
      "anonymous": false,
      "inputs": [
        {
          "indexed": false,
          "internalType": "int256[5]",
          "name": "values",
          "type": "int256[5]"
        }
      ],
      "name": "SetDiscontPut",
      "type": "event"
    },
    {
      "anonymous": false,
      "inputs": [
        {
          "indexed": false,
          "internalType": "uint8",
          "name": "values",
          "type": "uint8"
        }
      ],
      "name": "SetDiscontSpread",
      "type": "event"
    },
    {
      "anonymous": false,
      "inputs": [
        {
          "indexed": false,
          "internalType": "uint256",
          "name": "value",
          "type": "uint256"
        }
      ],
      "name": "SetImpliedVolRate",
      "type": "event"
    },
    {
      "anonymous": false,
      "inputs": [
        {
          "indexed": false,
          "internalType": "uint256[4]",
          "name": "values",
          "type": "uint256[4]"
        }
      ],
      "name": "SetImpliedVolRates",
      "type": "event"
    },
    {
      "anonymous": false,
      "inputs": [
        {
          "indexed": false,
          "internalType": "uint256",
          "name": "min",
          "type": "uint256"
        },
        {
          "indexed": false,
          "internalType": "uint256",
          "name": "max",
          "type": "uint256"
        }
      ],
      "name": "SetPeriodLimits",
      "type": "event"
    },
    {
      "anonymous": false,
      "inputs": [
        {
          "indexed": false,
          "internalType": "uint256",
          "name": "value",
          "type": "uint256"
        }
      ],
      "name": "SetSettlementFeeShare",
      "type": "event"
    },
    {
      "anonymous": false,
      "inputs": [
        {
          "indexed": false,
          "internalType": "uint256",
          "name": "value",
          "type": "uint256"
        }
      ],
      "name": "SetStrikePercentage",
      "type": "event"
    },
    {
      "inputs": [
        {
          "internalType": "uint256",
          "name": "",
          "type": "uint256"
        }
      ],
      "name": "basePricers",
      "outputs": [
        {
          "internalType": "contract IPremiumCalculator",
          "name": "",
          "type": "address"
        }
      ],
      "stateMutability": "view",
      "type": "function"
    },
    {
      "inputs": [
        {
          "internalType": "uint256",
          "name": "period",
          "type": "uint256"
        },
        {
          "internalType": "uint256",
          "name": "amount",
          "type": "uint256"
        },
        {
          "internalType": "uint256",
          "name": "strike",
          "type": "uint256"
        }
      ],
      "name": "calculatePremium",
      "outputs": [
        {
          "internalType": "uint256",
          "name": "premium",
          "type": "uint256"
        }
      ],
      "stateMutability": "view",
      "type": "function"
    },
    {
      "inputs": [
        {
          "internalType": "uint256",
          "name": "",
          "type": "uint256"
        }
      ],
      "name": "coeficients",
      "outputs": [
        {
          "internalType": "int256",
          "name": "",
          "type": "int256"
        }
      ],
      "stateMutability": "view",
      "type": "function"
    },
    {
      "inputs": [],
      "name": "maxPeriod",
      "outputs": [
        {
          "internalType": "uint256",
          "name": "",
          "type": "uint256"
        }
      ],
      "stateMutability": "view",
      "type": "function"
    },
    {
      "inputs": [],
      "name": "minPeriod",
      "outputs": [
        {
          "internalType": "uint256",
          "name": "",
          "type": "uint256"
        }
      ],
      "stateMutability": "view",
      "type": "function"
    },
    {
      "inputs": [],
      "name": "owner",
      "outputs": [
        {
          "internalType": "address",
          "name": "",
          "type": "address"
        }
      ],
      "stateMutability": "view",
      "type": "function"
    },
    {
      "inputs": [],
      "name": "priceProvider",
      "outputs": [
        {
          "internalType": "contract AggregatorV3Interface",
          "name": "",
          "type": "address"
        }
      ],
      "stateMutability": "view",
      "type": "function"
    },
    {
      "inputs": [],
      "name": "renounceOwnership",
      "outputs": [],
      "stateMutability": "nonpayable",
      "type": "function"
    },
    {
      "inputs": [
        {
          "internalType": "int256[2]",
          "name": "c",
          "type": "int256[2]"
        }
      ],
      "name": "setCoefficients",
      "outputs": [],
      "stateMutability": "nonpayable",
      "type": "function"
    },
    {
      "inputs": [
        {
          "internalType": "uint256",
          "name": "min",
          "type": "uint256"
        },
        {
          "internalType": "uint256",
          "name": "max",
          "type": "uint256"
        }
      ],
      "name": "setPeriodLimits",
      "outputs": [],
      "stateMutability": "nonpayable",
      "type": "function"
    },
    {
      "inputs": [
        {
          "internalType": "address",
          "name": "newOwner",
          "type": "address"
        }
      ],
      "name": "transferOwnership",
      "outputs": [],
      "stateMutability": "nonpayable",
      "type": "function"
    }
  ],
  "transactionHash": "0xed58e12ba2cc0ad7c05e22316cff90a5e45d4e80dfe2979a38a349785f4e218a",
  "args": [
    [
      "0x1CaABE6a8d493C389f31071301F64c3c717B0612",
      "0x4EdfC2057C3BF6Dd3a9Ff64E0fF412A048Ccd006"
    ],
    [
      100000,
      -80000
    ]
  ],
  "solcInputHash": "264ee48953aea33f233d54b8c17bc0e4",
  "bytecode": "0x60806040526201518060015562278d006002553480156200001f57600080fd5b5060405162000e5038038062000e50833981016040819052620000429162000206565b81600060200201516001600160a01b031663b888879e6040518163ffffffff1660e01b815260040160206040518083038186803b1580156200008357600080fd5b505afa15801562000098573d6000803e3d6000fd5b505050506040513d601f19601f82011682018060405250810190620000be9190620002df565b620000c93362000111565b600380546001600160a01b0319166001600160a01b0392909216919091179055620000f8600483600262000161565b50620001086006826002620001be565b50505062000356565b600080546001600160a01b038381166001600160a01b0319831681178455604051919092169283917f8be0079c531659141344cd1fd0a4f28419497f9722a3daafe3b4186f6b6457e09190a35050565b8260028101928215620001ac579160200282015b82811115620001ac57825182546001600160a01b0319166001600160a01b0390911617825560209092019160019091019062000175565b50620001ba929150620001ef565b5090565b8260028101928215620001ac579160200282015b82811115620001ac578251825591602001919060010190620001d2565b5b80821115620001ba5760008155600101620001f0565b600080608083850312156200021a57600080fd5b83601f8401126200022a57600080fd5b6200023462000306565b808460408601878111156200024857600080fd5b60005b60028110156200027857825162000262816200033d565b855260209485019492909201916001016200024b565b5082955087605f8801126200028c57600080fd5b6200029662000306565b9350839250905060808601871015620002ae57600080fd5b60005b6002811015620002d2578151845260209384019390910190600101620002b1565b5093969095509350505050565b600060208284031215620002f257600080fd5b8151620002ff816200033d565b9392505050565b604080519081016001600160401b03811182821017156200033757634e487b7160e01b600052604160045260246000fd5b60405290565b6001600160a01b03811681146200035357600080fd5b50565b610aea80620003666000396000f3fe608060405234801561001057600080fd5b50600436106100a95760003560e01c80638da5cb5b116100715780638da5cb5b14610125578063b888879e14610136578063b9939f0d14610149578063f1dbb4721461015c578063f2fde38b1461016f578063ffd49c841461018257600080fd5b80630fb74c3c146100ae578063156f1d74146100c357806349b9a67f146100e9578063715018a6146100f25780637770e108146100fa575b600080fd5b6100c16100bc36600461081e565b61018b565b005b6100d66100d13660046108ef565b6101cf565b6040519081526020015b60405180910390f35b6100d660025481565b6100c16101f6565b61010d61010836600461089b565b61022c565b6040516001600160a01b0390911681526020016100e0565b6000546001600160a01b031661010d565b60035461010d906001600160a01b031681565b6100c16101573660046108cd565b61024c565b6100d661016a36600461089b565b610330565b6100c161017d3660046107ee565b610347565b6100d660015481565b6000546001600160a01b031633146101be5760405162461bcd60e51b81526004016101b59061096b565b60405180910390fd5b6101cb600682600261077c565b5050565b60006101dc8484846103e2565b919550935091506101ee848484610466565b949350505050565b6000546001600160a01b031633146102205760405162461bcd60e51b81526004016101b59061096b565b61022a60006105b2565b565b6004816002811061023c57600080fd5b01546001600160a01b0316905081565b6000546001600160a01b031633146102765760405162461bcd60e51b81526004016101b59061096b565b62015180821015801561028c57506276a7008111155b6102e95760405162461bcd60e51b815260206004820152602860248201527f507269636543616c63756c61746f723a20506572696f64206c696d697473206160448201526772652077726f6e6760c01b60648201526084016101b5565b6002819055600182905560408051838152602081018390527ff9e1ce012dba7896277a749721b9a520958326ef22721f5aed4208640e8b6164910160405180910390a15050565b6006816002811061034057600080fd5b0154905081565b6000546001600160a01b031633146103715760405162461bcd60e51b81526004016101b59061096b565b6001600160a01b0381166103d65760405162461bcd60e51b815260206004820152602660248201527f4f776e61626c653a206e6577206f776e657220697320746865207a65726f206160448201526564647265737360d01b60648201526084016101b5565b6103df816105b2565b50565b60008060006103ef610602565b841461044c5760405162461bcd60e51b815260206004820152602660248201527f507269636543616c63756c61746f723a2054686520737472696b6520697320696044820152651b9d985b1a5960d21b60648201526084016101b5565b610457868686610696565b50909790965090945092505050565b6000620186a060066001015460046001015460405163055bc75d60e21b81526004810188905260248101879052604481018690526001600160a01b039091169063156f1d749060640160206040518083038186803b1580156104c757600080fd5b505afa1580156104db573d6000803e3d6000fd5b505050506040513d601f19601f820116820180604052508101906104ff91906108b4565b6105099190610a03565b6006546004805460405163055bc75d60e21b815291820189905260248201889052604482018790526001600160a01b03169063156f1d749060640160206040518083038186803b15801561055c57600080fd5b505afa158015610570573d6000803e3d6000fd5b505050506040513d601f19601f8201168201806040525081019061059491906108b4565b61059e9190610a03565b6105a891906109a0565b6101ee91906109e1565b600080546001600160a01b038381166001600160a01b0319831681178455604051919092169283917f8be0079c531659141344cd1fd0a4f28419497f9722a3daafe3b4186f6b6457e09190a35050565b600080600360009054906101000a90046001600160a01b03166001600160a01b031663feaf968c6040518163ffffffff1660e01b815260040160a06040518083038186803b15801561065357600080fd5b505afa158015610667573d6000803e3d6000fd5b505050506040513d601f19601f8201168201806040525081019061068b919061091b565b509195945050505050565b60008060006001548610156106fe5760405162461bcd60e51b815260206004820152602860248201527f507269636543616c63756c61746f723a2054686520706572696f6420697320746044820152671bdbc81cda1bdc9d60c21b60648201526084016101b5565b6002548611156107605760405162461bcd60e51b815260206004820152602760248201527f507269636543616c63756c61746f723a2054686520706572696f6420697320746044820152666f6f206c6f6e6760c81b60648201526084016101b5565b836107705761076d610602565b93505b50939492935090919050565b82600281019282156107aa579160200282015b828111156107aa57825182559160200191906001019061078f565b506107b69291506107ba565b5090565b5b808211156107b657600081556001016107bb565b805169ffffffffffffffffffff811681146107e957600080fd5b919050565b60006020828403121561080057600080fd5b81356001600160a01b038116811461081757600080fd5b9392505050565b60006040828403121561083057600080fd5b82601f83011261083f57600080fd5b6040516040810181811067ffffffffffffffff8211171561086257610862610a9e565b806040525080838560408601111561087957600080fd5b60005b600281101561068b57813583526020928301929091019060010161087c565b6000602082840312156108ad57600080fd5b5035919050565b6000602082840312156108c657600080fd5b5051919050565b600080604083850312156108e057600080fd5b50508035926020909101359150565b60008060006060848603121561090457600080fd5b505081359360208301359350604090920135919050565b600080600080600060a0868803121561093357600080fd5b61093c866107cf565b945060208601519350604086015192506060860151915061095f608087016107cf565b90509295509295909350565b6020808252818101527f4f776e61626c653a2063616c6c6572206973206e6f7420746865206f776e6572604082015260600190565b600080821280156001600160ff1b03849003851316156109c2576109c2610a88565b600160ff1b83900384128116156109db576109db610a88565b50500190565b6000826109fe57634e487b7160e01b600052601260045260246000fd5b500490565b60006001600160ff1b0381841382841380821686840486111615610a2957610a29610a88565b600160ff1b6000871282811687830589121615610a4857610a48610a88565b60008712925087820587128484161615610a6457610a64610a88565b87850587128184161615610a7a57610a7a610a88565b505050929093029392505050565b634e487b7160e01b600052601160045260246000fd5b634e487b7160e01b600052604160045260246000fdfea26469706673582212209026ea7cb2778d40fae54d9603c2f188a3aeb4c787613f9a32a51eb3cd257cdc64736f6c63430008060033",
  "devdoc": {
    "kind": "dev",
    "methods": {
      "calculatePremium(uint256,uint256,uint256)": {
        "params": {
          "amount": "The option size",
          "period": "The option period",
          "strike": "The option strike*"
        }
      },
      "owner()": {
        "details": "Returns the address of the current owner."
      },
      "renounceOwnership()": {
        "details": "Leaves the contract without owner. It will not be possible to call `onlyOwner` functions anymore. Can only be called by the current owner. NOTE: Renouncing ownership will leave the contract without an owner, thereby removing any functionality that is only available to the owner."
      },
      "transferOwnership(address)": {
        "details": "Transfers ownership of the contract to a new account (`newOwner`). Can only be called by the current owner."
      }
    },
    "version": 1
  },
  "userdoc": {
    "kind": "user",
    "methods": {},
    "version": 1
  },
  "storageLayout": {
    "storage": [
      {
        "astId": 611,
        "contract": "contracts/PriceCalculators/CombinedPriceCalculator.sol:CombinePriceCalculator",
        "label": "_owner",
        "offset": 0,
        "slot": "0",
        "type": "t_address"
      },
      {
        "astId": 12707,
        "contract": "contracts/PriceCalculators/CombinedPriceCalculator.sol:CombinePriceCalculator",
        "label": "minPeriod",
        "offset": 0,
        "slot": "1",
        "type": "t_uint256"
      },
      {
        "astId": 12710,
        "contract": "contracts/PriceCalculators/CombinedPriceCalculator.sol:CombinePriceCalculator",
        "label": "maxPeriod",
        "offset": 0,
        "slot": "2",
        "type": "t_uint256"
      },
      {
        "astId": 12714,
        "contract": "contracts/PriceCalculators/CombinedPriceCalculator.sol:CombinePriceCalculator",
        "label": "priceProvider",
        "offset": 0,
        "slot": "3",
        "type": "t_contract(AggregatorV3Interface)45"
      },
      {
        "astId": 13926,
        "contract": "contracts/PriceCalculators/CombinedPriceCalculator.sol:CombinePriceCalculator",
        "label": "basePricers",
        "offset": 0,
        "slot": "4",
        "type": "t_array(t_contract(IPremiumCalculator)7174)2_storage"
      },
      {
        "astId": 13930,
        "contract": "contracts/PriceCalculators/CombinedPriceCalculator.sol:CombinePriceCalculator",
        "label": "coeficients",
        "offset": 0,
        "slot": "6",
        "type": "t_array(t_int256)2_storage"
      }
    ],
    "types": {
      "t_address": {
        "encoding": "inplace",
        "label": "address",
        "numberOfBytes": "20"
      },
      "t_array(t_contract(IPremiumCalculator)7174)2_storage": {
        "base": "t_contract(IPremiumCalculator)7174",
        "encoding": "inplace",
        "label": "contract IPremiumCalculator[2]",
        "numberOfBytes": "64"
      },
      "t_array(t_int256)2_storage": {
        "base": "t_int256",
        "encoding": "inplace",
        "label": "int256[2]",
        "numberOfBytes": "64"
      },
      "t_contract(AggregatorV3Interface)45": {
        "encoding": "inplace",
        "label": "contract AggregatorV3Interface",
        "numberOfBytes": "20"
      },
      "t_contract(IPremiumCalculator)7174": {
        "encoding": "inplace",
        "label": "contract IPremiumCalculator",
        "numberOfBytes": "20"
      },
      "t_int256": {
        "encoding": "inplace",
        "label": "int256",
        "numberOfBytes": "32"
      },
      "t_uint256": {
        "encoding": "inplace",
        "label": "uint256",
        "numberOfBytes": "32"
      }
    }
  }
}