{
  "address": "0x3D24b1f8D629e3A415f6CbdD8929321e6949FaFC",
  "abi": [
    {
      "inputs": [
        {
          "internalType": "contract IHegicOperationalTreasury",
          "name": "pool",
          "type": "address"
        },
        {
          "internalType": "uint256[]",
          "name": "optionIDs",
          "type": "uint256[]"
        }
      ],
      "name": "unlockAll",
      "outputs": [],
      "stateMutability": "nonpayable",
      "type": "function"
    }
  ],
  "transactionHash": "0x0ee6b8bc995f29400f9291161d034b48da5dd0cc256edc0b3b1bba1a05c645ab",
  "args": [],
  "solcInputHash": "b38e6f06082a26d255a7484d5f8c9236",
  "bytecode": "0x608060405234801561001057600080fd5b506101ec806100206000396000f3fe608060405234801561001057600080fd5b506004361061002b5760003560e01c80631dcda34a14610030575b600080fd5b61004361003e3660046100e3565b610045565b005b8060005b818110156100dc57846001600160a01b0316636198e339858584818110610072576100726101a0565b905060200201356040518263ffffffff1660e01b815260040161009791815260200190565b600060405180830381600087803b1580156100b157600080fd5b505af11580156100c5573d6000803e3d6000fd5b5050505080806100d490610177565b915050610049565b5050505050565b6000806000604084860312156100f857600080fd5b83356001600160a01b038116811461010f57600080fd5b9250602084013567ffffffffffffffff8082111561012c57600080fd5b818601915086601f83011261014057600080fd5b81358181111561014f57600080fd5b8760208260051b850101111561016457600080fd5b6020830194508093505050509250925092565b600060001982141561019957634e487b7160e01b600052601160045260246000fd5b5060010190565b634e487b7160e01b600052603260045260246000fdfea26469706673582212204fbe2ef5badc8149d7200b992f00613b4e59a33383fe2b55f7929e5404de98b164736f6c63430008060033",
  "devdoc": {
    "author": "0mllwntrmt3",
    "kind": "dev",
    "methods": {
      "unlockAll(address,uint256[])": {
        "params": {
          "optionIDs": "The array of options*"
        }
      }
    },
    "title": "Hegic Protocol hardcore-beta Unlocker Contract",
    "version": 1
  },
  "userdoc": {
    "kind": "user",
    "methods": {
      "unlockAll(address,uint256[])": {
        "notice": "Unlocks the array of options."
      }
    },
    "notice": "The contract that allows to automatically unlocks an array of options*",
    "version": 1
  },
  "storageLayout": {
    "storage": [],
    "types": null
  }
}